S0130000544A3030303030345F53572E7372656346
S11300000C9436030C9453030C9453030C94530331
S11300100C9453030C9453030C9453030C94530304
S11300200C9453030C9453030C9453030C94130C2B
S11300300C9453030C9453030C9453030C945303E4
S11300400C9453030C9453030C9468050C94A5046A
S11300500C9453030C947C030C9453030C9453039B
S11300600C9453030C9453030A0D45202D20546F14
S113007067676C6520455854424154207374617419
S113008075730A0D49202D20546F67676C652049EC
S11300904E54424154207374617475730A0D502098
S11300A02D20546F67676C6520506F6C796675738B
S11300B065204C6F6164207374617475730A0D0A52
S11300C00D5072657373205820746F2065786974BD
S11300D00A0A0D000A0A0A0A0D492F4F20436F6EBF
S11300E074726F6C204465627567204D656E750A85
S11300F00D3D3D3D3D3D3D3D3D3D3D3D3D3D3D3D5C
S11301003D3D3D3D3D3D3D0A0A0D43757272656EB0
S113011074205374617475733A0A0D000A0A0A0A4A
S11301200D4144432044656275670A0D3D3D3D3DE4
S11301303D3D3D3D3D0A0A0D0A0D50726573732025
S11301405820746F20657869740A0A0D0A0D2020FE
S1130150202020416C6C204461746120696E206D04
S1130160696C6C69766F6C74730A0D0A0D202045F6
S11301705854202020494E542020202B355620202E
S1130180204F55542020203356330A0D000A0A0A02
S11301900A0D49324320546573740A0D3D3D3D3DBB
S11301A03D3D3D3D0A0A0D456E73757265207468C8
S11301B065204D6F64756C652069732050726F679C
S11301C072616D6D65642061732061204D6173748B
S11301D065720A0D436F6E6E6563742074686520E2
S11301E0546F7563682050616E656C204C434420E5
S11301F0746F20746865204D6F64756C6520616E42
S11302006420737769746368204F4E0A0A0D54683A
S11302106520272B27206B65792077696C6C206912
S11302206E6372656D656E742074686520414D500F
S113023020434F44452076616C7565206469737072
S11302406C6179656420627920310A0D54686520F7
S1130250272D27206B65792077696C6C2064656392
S113026072656D656E742074686520414D5020433D
S11302704F44452076616C756520646973706C61C8
S113028079656420627920310A0D50726573732098
S113029027582720746F2072657475726E20746FEE
S11302A02054657374204D656E750A0A0D000A0AA0
S11302B00A0A0D4445425547204D454E550A0D3D09
S11302C03D3D3D3D3D3D3D3D3D3D3D3D0A0D4120D6
S11302D02D2041444320746573740A0D43202D205E
S11302E0492F4F20436F6E74726F6C207465737462
S11302F00A0D49202D2049324320746573740A0D78
S113030058202D204578697420746F2053746172CD
S113031074204D656E750A0D000A0D507265737375
S11303202027582720746F2065786974206F722005
S1130330454E54455220746F2052657472790A0DEB
S1130340000A0D536C6F776C792052656475636590
S113035020746865207468652045585442415420CF
S1130360766F6C7461676520756E74696C204D6579
S1130370737361676520617070656172730A0D50F3
S1130380726573732027582720746F206578697409
S1130390206F7220454E54455220746F2070726F46
S11303A0636565640A0A0D000A0D436F6E6E65632A
S11303B074207468652074657374206A6967207496
S11303C06F204A38206F6E20746865204255540AA5
S11303D00D50726573732027582720746F20657839
S11303E06974206F7220454E54455220746F2070FA
S11303F0726F636565640A0A0D000A0D2A2A2A20B1
S113040041646A75737420496E70757420566F6CFC
S113041074616765202A2A2A0A0D004641494C0A5C
S11304200D00504153530A0D000A0A0A0A0D426F87
S113043061726420546573740A0D3D3D3D3D3D3D3C
S11304403D3D3D3D0A0D456E7375726520746865CA
S11304502045585442415420505355206973207309
S1130460657420746F2031342E305620B1302E3113
S1130470560A0D456E737572652074686520494E81
S1130480544241542050535520697320736574209D
S1130490746F2031352E305620B1302E31560A0D6E
S11304A0436F6E6E6563742074686520426F617279
S11304B06420556E64657220546573742028425517
S11304C0542920746F20746865204A69670A0D0AEC
S11304D02A2A2A20444F204E4F5420436F6E6E65C3
S11304E06374204A382061742074686973207374BB
S11304F0616765202A2A2A0A0A0D5475726E2074CF
S113050068652045787465726E616C20505355732C
S1130510204F4E0A0D50726573732027582720749C
S11305206F2065786974206F7220454E54455220BF
S1130530746F2070726F636565640A0A0D000A0A9D
S11305400D5374617274204D454E550A0D3D3D3D69
S11305503D3D3D3D3D3D3D0A0D54202D20426F6102
S1130560726420746573740A0D44202D20446562FE
S11305707567204D656E750A0D3C454E5445523ED7
S11305802D20546F207265667265736820736372E0
S113059065656E0A0A0D0020436F6D6D616E6420FF
S11305A06E6F7420696D706C656D656E7465640A38
S11305B00D000A0A0D45454720426174746572793D
S11305C0204D6F64756C65202D204932432054659D
S11305D0737420536F6674776172650A0D3D3D3DF7
S11305E03D3D3D3D3D3D3D3D3D3D3D3D3D3D3D3D37
S11305F03D3D3D3D3D3D3D3D3D3D3D3D3D3D3D3D27
S11306003D3D3D0A0D544A30303030303420466987
S1130610726D776172652049643A20000A0A0A0AF9
S11306200A0A0A0A0A0A0A0D28632920436F707904
S1130630726967687420546865204D6167737469D2
S11306406D20436F6D70616E79204C74642E20327E
S11306503032350A0A0D004F4646004F4E000A0D4F
S1130660005665722050312E3032000011241FBE16
S1130670CFEFD8E0DEBFCDBF12E0A0E0B1E0E8EFFD
S1130680FEE102C005900D92A43BB107D9F724E026
S1130690A4EBB2E001C01D92A43AB207E1F70E94B4
S11306A034060C947A0F0C9400001092BF02E0916F
S11306B0BF02F0E0E45AFE4F808180937C001092E8
S11306C07B0080E090E029E0289FF001299FF00D55
S11306D01124E054FD4F108211821282138215827C
S11306E0148217821682108601968530910561F76F
S11306F08FEC80937A0008951F920F920FB60F9299
S113070011242F933F938F939F93AF93BF93EF93B2
S1130710FF932091780030917900E091BF0280919D
S1130720BF028F5F8093BF02853010F01092BF022A
S1130730A091BF02B0E0A45ABE4F8C9180937C007C
S11307408FEC80937A0089E0E89FF0011124E05453
S1130750FD4F80819181A281B381820F931FA11DDE
S1130760B11D80839183A283B3838681978101968F
S1130770978386838F3F910599F090F017821682B4
S113078080819181A281B381892F9A2FAB2FBB27BE
S113079095838483108211821282138281E0808780
S11307A0FF91EF91BF91AF919F918F913F912F91C5
S11307B00F900FBE0F901F9018950F931F93CF9318
S11307C0DF938C01C62FD0E089E0689FF0011124EB
S11307D0E054FD4F8085882399F0A481B581CC0F26
S11307E0DD1FCC0FDD1FC85BDE4F288139814A81B4
S11307F05B810E946F0CD8018D939C93108681E0DD
S1130800DF91CF911F910F910895E82FF0E0EE0F43
S1130810FF1FE050FF4F808191810895CF92DF92B6
S1130820EF92FF920F931F93CF93DF9300D0CDB736
S1130830DEB7082F162F1092B5021092B4028FEF74
S11308409FEF9093B7028093B6021092B902109270
S1130850B8021092BA021092BB021092BC0210921B
S1130860BD021092BE028091BE028117D8F5602F9E
S1130870CE0101960E94DD038823C9F389819A8100
S11308802091B6023091B7028217930720F4909317
S1130890B7028093B6022091B4023091B5022817B2
S11308A0390720F49093B5028093B4024091BA02C0
S11308B05091BB026091BC027091BD026A017B0140
S11308C0C80ED91EE11CF11CC092BA02D092BB0220
S11308D0E092BC02F092BD028091BE028F5F8093D1
S11308E0BE02C1CF212F30E040E050E06091BA0257
S11308F07091BB028091BC029091BD020E944D0C8C
S11309003093B9022093B80284EB92E00F900F90D9
S1130910DF91CF911F910F91FF90EF90DF90CF90D7
S113092008951092AE031092AD031092AC0310928E
S1130930AB031092C50087E68093C40086E08093E1
S1130940C20088E98093C10008951F920F920FB6E8
S11309500F9211248F939F93EF93FF939091AC0385
S11309608091AB03981306C08091C1008F7D809362
S1130970C10011C0E091AB03F0E0E950FD4F80816C
S11309808093C6008091AB038F5F8093AB03843B5D
S113099010F01092AB03FF91EF919F918F910F9004
S11309A00FBE0F901F901895F8942091AC0330E07F
S11309B08091AB037894482F50E02417350710F446
S11309C02C543F4F8D54821B08951F93CF93DF9374
S11309D0D82F192FC62F0E94D4048C17E0F38091CE
S11309E0AC032D2FED2FF12F9E2F921B9C1758F443
S11309F09191A82FB0E0A950BD4F9C938F5F843B89
S1130A0098F380E0F1CFF8948093AC038091C10017
S1130A1085FD16C0E091AB03F0E0E950FD4F808105
S1130A208093C6008091AB038F5F8093AB03843BBC
S1130A3010F01092AB038091C10080628093C100DA
S1130A40789484E0DF91CF911F910895CF93DF9341
S1130A50FC0101900020E9F73197EF01C81BD90B85
S1130A606C2F0E94E504843011F48C2F01C080E0C7
S1130A70DF91CF910895CF93C82F1092C1000E94A7
S1130A809104EC2FF0E0EE0FFF1FE05DFE4F81813B
S1130A908F9380818F9381E691E09F938F938DEB69
S1130AA093E09F938F930E94900C0F900F900F9060
S1130AB00F900F900F908DEB93E0CF910C9426053F
S1130AC02091AC039091AB0381E0291380E0089559
S1130AD01F920F920FB60F9211242F933F934F93AF
S1130AE05F936F937F938F939F93AF93BF93EF9392
S1130AF0FF939091C0008091C600E091AE03F0E0B6
S1130B00E351FD4F80838091AE038F5F8093AE03EA
S1130B108A3010F01092AE03892F8C7159F094FF33
S1130B2002C080E005C093FF02C081E001C082E002
S1130B300E943B05FF91EF91BF91AF919F918F91DF
S1130B407F916F915F914F913F912F910F900FBEC5
S1130B500F901F9018953091AE032091AD0332177A
S1130B60A9F0F894E091AD03F0E0E351FD4F20814A
S1130B70FC0120838091AD038F5F8093AD038A30A5
S1130B8010F01092AD03789484E0089580E0089505
S1130B90CF93DF931F92CDB7DEB78FEF9FEF2091F6
S1130BA0BC002983298127FD02C00197C1F70F905A
S1130BB0DF91CF9108958CE08093B800ECEBF0E0E6
S1130BC08081846080830895FF920F931F93CF9355
S1130BD0DF93C82F162FF42E052F84EA8093BC00D0
S1130BE00E94C805CC0FC093BB0084E88093BC006E
S1130BF00E94C805CF2DD02FCE01810F911D8C01ED
S1130C0084E8F82EC017D10741F089918093BB0086
S1130C10F092BC000E94C805F5CF8091B90094E918
S1130C209093BC00DF91CF911F910F91FF90089595
S1130C301092B800ECEBF0E080818B7F8083089504
S1130C40579A5F985F9A5F985F9A5F985F9A5F98E8
S1130C508EE080937E0087E084B985B1887F85B972
S1130C6084E08AB95A9A08950E9420060E94DC0BF7
S1130C700E9491040E9455030E94700B0E94A90BCC
S1130C80FDCF982F83B1913049F020F0923049F490
S1130C908170089582FB882780F908958695817074
S1130CA008950895813051F018F0823069F0089564
S1130CB0613011F42A9A08952A980895613011F444
S1130CC0299A089529980895613011F4289A08956D
S1130CD0289808959093B3038093B20389E193E035
S1130CE09093B1038093B00386E39BE09093B503A4
S1130CF08093B4038FE399E09093B7038093B60392
S1130D000895CF93DF9300D000D01F92CDB7DEB704
S1130D100E94DB0581E08093AF031F928F938FEDD8
S1130D2091E09F938F938DEB93E09F938F930E9419
S1130D30900C8DEB93E00E94260581E189838091DC
S1130D40AF038A83AE014F5F5F4F62E080E10E9490
S1130D50E4051092B1031092B00382E19AE09093FB
S1130D60B5038093B4038FE399E09093B703809322
S1130D70B6030F900F900F900F900F900F900F905D
S1130D800F900F900F900F90DF91CF91089580E016
S1130D900E944106813019F48BE596E002C087E594
S1130DA096E00E94CF0B9F938F9380EF91E09F93E7
S1130DB08F938DEB93E09F938F930E94900C8DEB18
S1130DC093E00E94260581E00E9441060F900F9057
S1130DD00F900F900F900F90813019F48BE596E0EF
S1130DE002C087E596E00E94CF0B9F938F938EEF0E
S1130DF091E09F938F938DEB93E09F938F930E9449
S1130E00900C8DEB93E00E94260582E00E9441063F
S1130E100F900F900F900F900F900F90813019F456
S1130E208BE596E002C087E596E00E94CF0B9F9386
S1130E308F938CE092E09F938F938DEB93E09F933D
S1130E408F930E94900C8DEB93E00E94260588E618
S1130E5090E09093B1038093B00384EE98E0909374
S1130E60B5038093B4038FE399E09093B703809321
S1130E70B6030F900F900F900F900F900F9008955E
S1130E80CF92DF92EF92FF921F93CF93DF9300D024
S1130E90CDB7DEB710E08AE1E82E82E0F82E9DEBB4
S1130EA0C92E93E0D92E612FCE0101960E94DD0355
S1130EB0811117C01F5F1530B1F76CEA72E08DEB3A
S1130EC093E00E94890C8DEB93E00E9426050F901D
S1130ED00F90DF91CF911F91FF90EF90DF90CF9013
S1130EE008958A818F9389818F93FF92EF92DF9285
S1130EF0CF920E94900C8DEB93E00E9426050F90F8
S1130F000F900F900F900F900F900E946005882310
S1130F10E1F3D0CFCF92DF92EF92FF920F931F9322
S1130F20CF93DF93F82EEB0168E00E940E046C016E
S1130F30FC01148105818F2D0E9405040F931F93DA
S1130F409F938F9380E292E09F938F930DEB13E036
S1130F501F930F930E94900CC8010E942605F6016E
S1130F6024813581888199814A815B81BC01640F28
S1130F70751FEDB7FEB738960FB6F894FEBF0FBED7
S1130F80EDBF6217730738F58BE194E00E94CF0B35
S1130F900E942605DA80CB80E880C9818F2D0E94CB
S1130FA00504CF92DF92CF93EF929F938F938DE2BC
S1130FB092E09F938F931F930F930E94900CC8010C
S1130FC00E9426058DB79EB70A960FB6F8949EBF69
S1130FD00FBE8DBF2CC0841B950B2817390748F50D
S1130FE08BE194E00E94CF0B0E942605CA80EB801F
S1130FF0D880C9818F2D0E940504EF92CF92CF93A0
S1131000DF929F938F938EE592E09F938F931F932C
S11310100F930E94900C8DEB93E00E942605EDB790
S1131020FEB73A960FB6F894FEBF0FBEEDBF80E050
S113103007C082E294E00E94CF0B0E94260581E063
S1131040DF91CF911F910F91FF90EF90DF90CF90A0
S1131050089561E080E00E94520684EF91E00E94CE
S11310600C0C64E471E080E00E948A07811107C0DF
S11310708AEF93E00E94CF0B0E94260518C06CE310
S113108071E084E00E948A07882389F01092B103FA
S11310901092B0038FE598E09093B5038093B40366
S11310A08FE399E09093B7038093B60304C089E279
S11310B098E00E946A0660E080E00C94520661E0C9
S11310C081E00E94520684EF91E00E940C0C60E4DF
S11310D071E081E00E948A07811107C08AEF93E0E2
S11310E00E94CF0B0E9426051AC06CE371E084E0D5
S11310F00E948A07882399F088EA93E09093B103C9
S11311008093B00388EC9AE09093B5038093B40382
S11311108FE399E09093B7038093B60304C08FE5FF
S113112098E00E946A0660E081E00C94520668E34D
S113113071E082E00E948A07811105C087E998E086
S11311400E946A0619C06CE371E084E00E948A0779
S11311508823A1F381E493E09093B1038093B003D7
S113116080E09BE09093B5038093B4038FE399E010
S11311709093B7038093B60360E081E00C94520629
S11311801F93CF93DF931F92CDB7DEB7182FCE01F5
S113119001960E94AB05882391F0112379F089818F
S11311A08D3039F48EE596E00E94CF0B0E9426051F
S11311B005C061E0CE0101960E94E50489810F908B
S11311C0DF91CF911F91089581E00E94C0088111A1
S11311D002C00C944007883581F138F48934C9F091
S11311E0803511F1853491F50BC0893691F018F4EE
S11311F0853631F02BC08037B9F08837F1F026C03E
S113120080E00E94410661E0813009F460E080E002
S113121008C081E00E94410661E0813009F460E089
S113122081E00E94520618C082E00E94410661E0FB
S1131230813009F460E082E0F4CF8EEA92E090938A
S1131240B1038093B0038AEB99E00EC087E995E07F
S11312500E94CF0B0E94260584ED90E09093B10389
S11312608093B00387EC96E09093B5038093B40326
S11312708FE399E09093B7038093B6030895CF93D7
S1131280DF938091B0039091B103009771F10E94B4
S1131290C30BEC01833B910510F0C2EBD0E00E943C
S11312A0D40490E08C179D07D0F3BE018091B00365
S11312B09091B1030E94B10B2091B0033091B1031E
S11312C02C0F3D1F3093B1032093B0036C2F0E9469
S11312D0E504E091B003F091B103E491E1110DC094
S11312E01092B1031092B00308C08091B40390919E
S11312F0B5039093B7038093B603DF91CF9108951C
S113130081E00E94C0088823A1F1843541F018F4DB
S1131310843471F016C0843659F0843791F489E22C
S113132094E09093B1038093B00380E99AE017C0EE
S11313308EEA92E09093B1038093B0038AEB99E034
S11313400EC087E995E00E94CF0B0E9426058EE32C
S113135095E09093B1038093B00380E899E0909373
S1131360B5038093B4038FE399E09093B70380931C
S1131370B603089581E00E94C008882309F451C08F
S1131380883529F138F48334C9F0893449F181343A
S113139081F50BC0833691F018F4813631F029C001
S11313A08936F1F0883799F024C08CE191E090936C
S11313B0B1038093B00382E79AE029C084ED90E002
S11313C09093B1038093B00387EC96E020C08EE342
S11313D095E09093B1038093B00380E899E017C03F
S11313E08DE891E09093B1038093B00381E896E097
S11313F00EC087E995E00E94CF0B0E9426058EEA75
S113140092E09093B1038093B0038AEB99E09093B8
S1131410B5038093B4038FE399E09093B70380936B
S1131420B6030895CF93DF9300D000D01F92CDB7B9
S1131430DEB780E00E94C008882309F44BC08D32D7
S113144001F130F48B3211F58091AF038F5F1CC032
S1131450883511F08837D1F40E9418068EEA92E09C
S11314609093B1038093B0038AEB99E09093B50312
S11314708093B4038FE399E09093B7038093B6030A
S113148029C08091AF0381508093AF038091AF0353
S11314901F928F938FED91E09F938F938DEB93E049
S11314A09F938F930E94900C8DEB93E00E942605EE
S11314B081E189838091AF038A83AE014F5F5F4FDF
S11314C062E080E10E94E4050F900F900F900F906E
S11314D00F900F900F900F900F900F900F90DF913F
S11314E0CF9108950E94400781E00E94C00888239C
S11314F0B1F0883511F0883791F48EEA92E0909338
S1131500B1038093B0038AEB99E09093B503809381
S1131510B4038FE399E09093B7038093B6030895DF
S113152081E00E94C008882391F18D3089F018F47D
S11315308A3071F014C0883511F0883781F48EE355
S113154095E09093B1038093B00380E899E015C0CF
S11315501092B1031092B00389E298E00EC087E9BB
S113156095E00E94CF0B0E94260589E294E09093B7
S1131570B1038093B00380E99AE09093B50380931C
S1131580B4038FE399E09093B7038093B60308956F
S113159081E00E94C008882391F18D3089F018F40D
S11315A08A3071F014C0883511F0883781F48EE3E5
S11315B095E09093B1038093B00380E899E015C05F
S11315C01092B1031092B00387E998E00EC087E946
S11315D095E00E94CF0B0E94260588EA93E0909341
S11315E0B1038093B00388EC9AE09093B5038093A1
S11315F0B4038FE399E09093B7038093B6030895FF
S113160081E00E94C008882381F18D3049F018F4EC
S11316108A3031F012C0883539F0883771F404C04B
S11316208EE892E00E9426058EE395E09093B10344
S11316308093B00380E899E00EC087E995E00E94AA
S1131640CF0B0E94260581E493E09093B10380932D
S1131650B00380E09BE09093B5038093B4038FE3E1
S113166099E09093B7038093B603089581E00E94B4
S1131670C0088823A1F18D3089F018F48A3071F004
S113168016C0883511F0883791F48EE395E0909375
S1131690B1038093B00380E899E017C08091B2034E
S11316A09091B3031092B1031092B0030EC087E976
S11316B095E00E94CF0B0E94260589E193E0909368
S11316C0B1038093B00386E39BE09093B5038093CA
S11316D0B4038FE399E09093B7038093B60308951E
S11316E08CE196E00E94CF0B0E94260582EB95E0E8
S11316F00E94CF0B0E9426050E944A0C0E94CF0B29
S11317009F938F938EEA92E09F938F938DEB93E058
S11317109F938F930E94900C8DEB93E00E9426057B
S11317208EE395E09093B1038093B00380E899E051
S11317309093B5038093B4038FE399E09093B70338
S11317408093B6030F900F900F900F900F900F900F
S11317500895E091B603F091B703309709F0099426
S11317600895AFEEB3E020E030E02617370741F0EC
S1131770FC01E20FF31FE491ED932F5F3F4FF5CF90
S11317808FEE93E008959C0180E090E0F901E80F6A
S1131790F91FE491EE2311F00196F8CF0895CF9349
S11317A0DF93EC010E94C30BBC016F5F7F4FCE013E
S11317B0DF91CF910C94B10B1092BC031092BB0338
S11317C01092BA031092B9031092B803089590933B
S11317D0BC038093BB031092BA031092B903109216
S11317E08500109284008AEF90E0909389008093A2
S11317F08800EFE6F0E0808182608083E1E8F0E039
S113180080818360808308958091B803882319F0D0
S11318101092B80381E008950E94E70B0E94040C23
S11318208823E1F308951F920F920FB60F921124AB
S11318302F933F938F939F938091B9039091BA0311
S113184001969093BA038093B9032091BB0330911E
S1131850BC038217930759F41092810080916F00A2
S11318608D7F80936F0081E08093B8030AC08091DC
S113187088009091890086509F4F909389008093AF
S113188088009F918F913F912F910F900FBE0F90E1
S11318901F90189581E696E00895A1E21A2EAA1BDE
S11318A0BB1BFD010DC0AA1FBB1FEE1FFF1FA2170C
S11318B0B307E407F50720F0A21BB30BE40BF50B09
S11318C0661F771F881F991F1A9469F76095709592
S11318D0809590959B01AC01BD01CF0108950E94B4
S11318E07A0CA59F900DB49F900DA49F800D911D1F
S11318F011240895A29FB001B39FC001A39F700D4E
S1131900811D1124911DB29F700D811D1124911D03
S11319100895FB01DC0101900D920020E1F7089588
S1131920AEE0B0E0E6E9FCE00C94510F0D891E89AD
S113193086E08C831A8309838FEF9FE79E838D83D0
S1131940AE01475E5F4F6F89788DCE0101960E948C
S1131950B20CEF81F885E00FF11F10822E96E4E0BF
S11319600C946D0FABE0B0E0E8EBFCE00C94430F9B
S11319706C017B018A01FC0117821682838181FF3D
S1131980CCC1CE0101963C01F6019381F70193FD90
S1131990859193FF81917F01882309F4BAC185322F
S11319A039F493FD859193FF81917F01853229F468
S11319B0B60190E00E94A90EE7CF912C212C312C86
S11319C0FFE1F315D8F08B3279F038F4803279F0F6
S11319D08332A1F4232D20611DC08D3261F0803348
S11319E069F4232D216016C0832D8260382EE32DE7
S11319F0E4603E2E2AC0F32DF8601DC037FC2DC0D4
S1131A0020ED280F2A3040F08E32B9F436FC81C123
S1131A10232D2064322E19C036FE06C08AE0989E1B
S1131A20200D1124922E11C0EAE02E9E200D1124C7
S1131A30222EF32DF0623F2E08C08C3621F4832D24
S1131A408068382E02C0883641F4F70193FD8591F1
S1131A5093FF81917F018111B3CF982F9F7D95547E
S1131A60933028F40C5F1F4F9FE399830DC0833696
S1131A7031F0833771F0833509F059C021C0F80182
S1131A80808189830E5F1F4F88248394912C530196
S1131A9013C02801F2E04F0E511CF801A080B18060
S1131AA036FE03C0692D70E002C06FEF7FEFC50101
S1131AB00E949E0E4C018201F32DFF773F2E16C02B
S1131AC0280122E0420E511CF801A080B18036FEAC
S1131AD003C0692D70E002C06FEF7FEFC5010E9463
S1131AE0930E4C01F32DF0683F2E820133FC1BC092
S1131AF0822D90E088169906B0F4B60180E290E059
S1131B000E94A90E2A94F4CFF50137FC859137FE83
S1131B1081915F01B60190E00E94A90E21102A94E0
S1131B2021E0821A91088114910471F7E8C0843687
S1131B3011F0893641F5F80137FE07C060817181E3
S1131B40828193810C5F1F4F08C060817181072ED1
S1131B50000C880B990B0E5F1F4FF32DFF763F2E61
S1131B6097FF09C090958095709561957F4F8F4F31
S1131B709F4FF0683F2E2AE030E0A3010E94E50E5B
S1131B80882E861845C0853731F4232D2F7EB22E3A
S1131B902AE030E025C0932D997FB92E8F36C1F00D
S1131BA018F4883579F0B5C0803719F0883721F0FA
S1131BB0B0C0E92FE061BE2EB4FE0DC0FB2DF46071
S1131BC0BF2E09C034FE0AC0292F2660B22E06C0DB
S1131BD028E030E005C020E130E002C020E132E03E
S1131BE0F801B7FE07C060817181828193810C5F27
S1131BF01F4F06C06081718180E090E00E5F1F4F2F
S1131C00A3010E94E50E882E8618FB2DFF773F2E38
S1131C1036FE0DC0232D2E7FA22E891458F434FED7
S1131C200BC032FC09C0832D8E7EA82E05C0B82CB3
S1131C30A32C03C0B82C01C0B92CA4FE0FC0FE0114
S1131C40E80DF11D8081803321F49A2D997EA92E0F
S1131C5009C0A2FE06C0B394B39404C08A2D86784A
S1131C6009F0B394A3FC11C0A0FE06C0B21488F41A
S1131C70280C922C9B180EC0B21460F4B60180E2BA
S1131C8090E00E94A90EB394F7CFB21418F42B1865
S1131C9002C0982C212CA4FE10C0B60180E390E071
S1131CA00E94A90EA2FE17C0A1FC03C088E790E021
S1131CB002C088E590E0B6010CC08A2D867859F000
S1131CC0A1FE02C08BE201C080E2A7FC8DE2B60156
S1131CD090E00E94A90E891438F4B60180E390E0E4
S1131CE00E94A90E9A94F7CF8A94F301E80DF11D8E
S1131CF08081B60190E00E94A90E8110F5CF2220C8
S1131D0009F442CEB60180E290E00E94A90E2A9422
S1131D10F6CFF6018681978102C08FEF9FEF2B9655
S1131D20E2E10C945F0FFC010590615070400110DA
S1131D30D8F7809590958E0F9F1F0895FC016150F0
S1131D40704001900110D8F7809590958E0F9F1FD9
S1131D5008950F931F93CF93DF93FB01238121FDFC
S1131D6003C08FEF9FEF2CC022FF16C0468157811E
S1131D70248135814217530744F4A081B1819D0128
S1131D802F5F3F4F318320838C93268137812F5FD0
S1131D903F4F3783268314C08B01EC01FB01008481
S1131DA0F185E02D0995892BE1F6D80116968D91E0
S1131DB09C911797019617969C938E931697CE0134
S1131DC0DF91CF911F910F910895FA01AA2728302E
S1131DD051F1203181F1E8946F936E7F6E5F7F4FF4
S1131DE08F4F9F4FAF4FB1E03ED0B4E03CD0670F70
S1131DF0781F891F9A1FA11D680F791F8A1F911DC3
S1131E00A11D6A0F711D811D911DA11D20D009F412
S1131E1068943F912AE0269F11243019305D319354
S1131E20DEF6CF010895462F4770405D4193B3E03D
S1131E300FD0C9F7F6CF462F4F70405D4A3318F0E4
S1131E40495D31FD4052419302D0A9F7EACFB4E095
S1131E50A6959795879577956795BA95C9F700974D
S1131E606105710508959B01AC010A2E06945795EE
S1131E70479537952795BA95C9F7620F731F841F45
S1131E80951FA01D08952F923F924F925F926F92DB
S1131E907F928F929F92AF92BF92CF92DF92EF92F6
S1131EA0FF920F931F93CF93DF93CDB7DEB7CA1B77
S1131EB0DB0B0FB6F894DEBF0FBECDBF09942A88A2
S1131EC0398848885F846E847D848C849B84AA844A
S1131ED0B984C884DF80EE80FD800C811B81AA81D7
S1131EE0B981CE0FD11D0FB6F894DEBF0FBECDBFA2
S10B1EF0ED010895F894FFCF01
S1131EF8290122011B0112010A01335633204F55CF
S1131F08540056424154204F5554002B355620490D
S1131F184E00494E544241540045585442415400DD
S1131F2877018E01AA01C0018813C800E40C960049
S1131F38983A6400B0366400E8A30F00E8A30F00E1
S1131F48F4D10700E8A30F00FAE80300010203062E
S1131F58070A0A0D53595354454D204552524F52BE
S1131F680A0D25730A0D000A0D53657269616C2008
S1131F784672616D696E67204572726F72000A0D50
S1131F8853657269616C2044617461204F7665728F
S1131F9872756E204572726F72000A0D536572690C
S1131FA8616C20506172697479204572726F720095
S1131FB80A0D53657269616C205458206275662055
S1131FC86F766572666C6F77204572726F72004423
S1131FD86973706C6179696E6720253032780D00F9
S1131FE8455854424154203D2025730A0D00494E5A
S1131FF854424154203D2025730A0D0050464C4F4D
S11320084144203D2025730A0D00202530357500F4
S11320182573203D2025756D56202D20000A0A0DB4
S11320282A2A2A20257320566F6C746167652074E8
S11320386F6F2068696768202D2025756D56202BE1
S11320482F2D2025756D56202A2A2A0A0D000A0AE2
S11320580D2A2A2A20257320566F6C74616765201F
S1132068746F6F206C6F77202D2025756D56202B8B
S11320782F2D2025756D56202A2A2A0A0D000A0AB2
S11320880D20524541445920666F72205468657387
S1132098686F6C642053747566660A0A0D002573AC
S10720A80A0A0D000F
S9030000FC
