S0130000544A3030303030345F53572E7372656346
S11300000C94FE080C941B090C941B090C941B09FA
S11300100C941B090C941B090C941B090C941B09CC
S11300200C941B090C941B090C941B090C949F1829
S11300300C941B090C941B090C941B090C941B09AC
S11300400C941B090C941B090C94360B0C94730A26
S11300500C941B090C9444090C941B090C941B0963
S11300600C941B090C941B090A0A0A0D5665726943
S11300706669636174696F6E205468726573686F32
S11300806C64206D6F64696669636174696F6E2066
S11300904D656E750A0D3D3D3D3D3D3D3D3D3D3D4E
S11300A03D3D3D3D3D3D3D3D3D3D3D3D3D3D3D3D7C
S11300B03D3D3D3D3D3D3D3D3D3D3D3D3D3D0A0DCF
S11300C053656C656374206F7074696F6E2062652C
S11300D06C6F7720746F20746F67676C652076612E
S11300E06C7565206265747765656E2061637475EF
S11300F0616C20616E6420766572696669636174FF
S1130100696F6E2076616C7565730A0A0D31202D56
S113011020496E637265617365204C6F7765722048
S11301205468726573686F6C640A0D32202D204424
S113013065637265617365204C6F776572205468DE
S1130140726573686F6C640A0D33202D20496E63E9
S113015072656173652055707065722054687265AC
S113016073686F6C640A0D34202D204465637265D6
S11301706173652055707065722054687265736888
S11301806F6C640A0D35202D204C6F7765722050FA
S11301906F6C796675736520547269702054687247
S11301A06573686F6C640A0D000A0D45202D205498
S11301B06F67676C652045585442415420737461DD
S11301C07475730A0D49202D20546F67676C652080
S11301D0494E54424154207374617475730A0D502E
S11301E0202D20546F67676C6520506F6C7966759D
S11301F07365204C6F6164207374617475730A0DA8
S11302000A0D5072657373205820746F20657869E5
S1130210740A0A0D0A0D2020455854202020494E06
S1130220542020202B355620202056424154202093
S11302303356330A0D000A0A0A0A0D492F4F204388
S11302406F6E74726F6C204465627567204D656EC5
S1130250750A0D3D3D3D3D3D3D3D3D3D3D3D3D3DF5
S11302603D3D3D3D3D3D3D3D3D0A0A0D43757272A8
S1130270656E74205374617475733A0A0D000A0A2A
S11302800A0A0D4144432044656275670A0D3D3DE9
S11302903D3D3D3D3D3D3D0A0A0D0A0D50726573DD
S11302A073205820746F20657869740A0A0D0A0D4A
S11302B02020202020416C6C204461746120696EF0
S11302C0206D696C6C69766F6C74730A0D0A0D206D
S11302D020455854202020494E542020202B3556A8
S11302E02020205642415420203356330A0D000A60
S11302F00A0A0A0D49324320546573740A0D3D3DC0
S11303003D3D3D3D3D3D0A0A0D4E4F54453A204585
S11303106E7375726520746865204D6F64756C65C5
S11303202069732050726F6772616D6D656420611E
S1130330732061204D61737465720A0A0D42202D89
S1130340204C454420697320424C554520202D20E3
S11303504572726F7220436F6465203078666666FA
S1130360660A0D47202D204C4544206973204752CE
S113037045454E202D204572726F7220436F64658F
S1130380203078666666650A0D52202D204C45445F
S1130390206973205245442020202D204572726F1D
S11303A07220436F6465203078666666640A0A0DBD
S11303B050726573732027582720746F20726574F8
S11303C075726E20746F204465627567204D656E8A
S11303D0750A0A0D000A0A0A0A0D444542554720C7
S11303E04D454E550A0D3D3D3D3D3D3D3D3D3D3D5B
S11303F03D3D3D0A0D41202D204144432074657349
S1130400740A0D43202D20492F4F20436F6E7472C0
S11304106F6C20746573740A0D49202D2049324392
S113042020746573740A0D54202D20546F67676C13
S113043065205468726573686F6C647320666F72AC
S113044020566572696669636174696F6E0A0D5836
S1130450202D204578697420746F20537461727460
S1130460204D656E750A0D000A0A0D072A2A2A2AEC
S11304702A2A2A2A2A2A2A2A2A2A2A2A2A2A2A2AD8
S11304802A2A2A2A2A2A2A2A0A0D2A205465737417
S1130490696E67206973206E6F7720636F6D706C6F
S11304A065746564202A0A0D2A2A2A2A2A2A2A2AF5
S11304B02A2A2A2A2A2A2A2A2A2A2A2A2A2A2A2A98
S11304C02A2A2A2A0A0A0D202D205475726E204FDA
S11304D046462074686520355620506F7765722033
S11304E07377697463680A0D202D2052656D6F76E9
S11304F0652074686520426F61726420556E64657E
S11305007220546573742026206170706C792054B5
S11305104553544544206D61726B0A0D202D2043D0
S11305206F6E6E65637420746865206E65787420E0
S1130530626F61726420746F2062652074657374E5
S1130540656420746F20746865204A696720616E51
S1130550642070726573732027454E544552270AF0
S11305600A0D202D204F7220707265737320507213
S11305706573732027582720746F20657869742069
S1130580746F207374617274206D656E750A0A0D40
S1130590000A0A0D56455249465920746861742C64
S11305A0206166746572207072657373696E67206A
S11305B07468652027454E54455227206B65792C75
S11305C02074686520666F6C6C6F77696E67206F46
S11305D063637572733A0A0D202D20546865202BCD
S11305E0355620737570706C7920666F722074684C
S11305F065204C45442064726976652069732072D5
S113060065647563656420746F206C65737320740E
S113061068616E20312E3556206166746572203310
S1130620207365636F6E64730A0D202D2054686512
S1130630205452492D436F6C6F7572204C454420F1
S113064069732062726965666C7920657874696E75
S1130650677569736865640A0D202D2054686520E8
S11306604D617374657220646973706C617920697B
S113067073206E6F742061666665637465642061BF
S11306806E64207374696C6C20646973706C617936
S113069073202742415454455259270A0A0D507277
S11306A06573732027582720746F20657869742038
S11306B06F7220454E54455220746F2070726F63E0
S11306C06565640A0A0D000A0A0D564552494659E1
S11306D020746865204D6173746572206469737059
S11306E06C6179206E6F772073686F7773207468FC
S11306F065206D65737361676520274241545445D5
S11307005259270A0A0D50726573732027582720FF
S1130710746F2065786974206F7220454E54455279
S113072020746F2070726F636565640A0A0D000A95
S11307300A0D56455249465920746865204D617327
S113074074657220646973706C6179206E6F7720B0
S113075073686F77732074686520696E6469636178
S1130760746564204572726F7220436F6465206102
S11307706E64207468650A0D5452492D436F6C6F82
S11307807572204C4544206973206E6F7720696C24
S11307906C756D696E617465642061732069646948
S11307A063617465643A0A0A0D5072657373202795
S11307B0582720746F2065786974206F7220454E25
S11307C054455220746F2070726F636565640A0A21
S11307D00D000A0A0D564552494659207468617441
S11307E02C207768656E20746865204D617374658C
S11307F07220646973706C617920697320746F75F9
S1130800636865642074686520666F6C6C6F7769D3
S11308106E67206F63637572733A0A0D202D206131
S11308206E20274558542050575227206D65737306
S11308306167652061707065617273206F6E2074EA
S11308406865204D617374657220646973706C61AE
S1130850790A0D202D20746865205452492D436F68
S11308606C6F7572204C4544206F6E20746865204F
S11308704A696720697320696C6C756D696E61746F
S1130880656420616E6420697320475245454E209B
S1130890696E20636F6C6F75720A0A0D5645524972
S11308A0465920656163682074696D6520746865C4
S11308B0204D617374657220646973706C61792072
S11308C0697320746F756368656420746865206F4C
S11308D06E2F6F666620737461747573206973205C
S11308E0746F67676C65640A0A0D536574207468D5
S11308F06520646973706C617920746F2074686515
S1130900204F4E2073746174650A0A0D507265732A
S1130910732027582720746F2065786974206F72BC
S113092020454E54455220746F2070726F63656584
S1130930640A0A0D000A0A0D4379636C6520746821
S11309406520706F77657220746F2074686520422B
S11309505554207573696E6720746865202B35566D
S113096020706F776572207377697463680A0A0D63
S11309705645524946592074686520736C61766502
S113098020646973706C6179206973206E6F7720BD
S1130990626C616E6B20616E6420746865204D61C9
S11309A07374657220646973706C61792062726912
S11309B065666C792073686F77730A0D74686520B7
S11309C0636F7272656374206669726D77617265B4
S11309D02076657273696F6E20616C6F6E67207725
S11309E069746820616E20274F4E2F4F464627209A
S11309F073796D626F6C2C20616E6420746865205D
S1130A000A0D5452492D436F6C6F7572204C454446
S1130A10206F6E20746865204A6967206973204FCF
S1130A2046460A0A0D5072657373202758272074AE
S1130A306F2065786974206F7220454E54455220AA
S1130A40746F2070726F636565640A0A0D00466FE7
S1130A506C6C6F772074686520696E73747275634B
S1130A6074696F6E7320696E2074686520546573B1
S1130A7074204D6574686F6420746F2070726F67A2
S1130A8072616D207468652042555420696E746FDC
S1130A90204D4153544552204D4F44450A0A0D50B0
S1130AA0726573732027582720746F2065786974E2
S1130AB0206F7220454E54455220746F2070726F1F
S1130AC0636565640A0A0D00564552494659207407
S1130AD0686520274558542050575227206D657368
S1130AE07361676520686173206265656E20726555
S1130AF0706C61636564207769746820746865202C
S1130B00666F6C6C6F77696E673A0A0A0D20202055
S1130B102020202020202020202020202020272DBD
S1130B203A2D2D27200A0A0D56455249465920616F
S1130B306E202749444C4527206D657373616765B2
S1130B4020617070656172732061626F76652074D4
S1130B506865206261747465727920636861726784
S1130B6065207374617475730A0A0D50726573732A
S1130B702027582720746F2065786974206F7220AD
S1130B80454E54455220746F2070726F63656564DE
S1130B900A0A0D000A0A0D4379636C6520746865BE
S1130BA020706F77657220746F20746865204255D9
S1130BB054207573696E672074686520273556273D
S1130BC020506F776572207377697463680A0D56D5
S1130BD04552494659206F6E20706F7765722075B3
S1130BE0702C2074686520736C6176652064697369
S1130BF0706C6179732062726965666C79207368C0
S1130C006F77732074686520636F727265637420F4
S1130C106669726D776172652076657273696F6E4D
S1130C200A0A0D5645524946592061667465722078
S1130C30612073686F72742064656C6179207468D4
S1130C406520666F6C6C6F77696E672069732073BB
S1130C50686F776E206F6E2074686520736C6176A0
S1130C606520646973706C61793A0A0D202D2054F3
S1130C706865206261747465727920636861726763
S1130C80652073746174757320696E2074686520BF
S1130C90666F726D2027585825270A0D202D205481
S1130CA06865206D65737361676520274558542016
S1130CB05057522720697320646973706C61796599
S1130CC0640A0A0D50726573732027582720746FC5
S1130CD02065786974206F7220454E544552207403
S1130CE06F2070726F636565640A0A0D000A0A0D4D
S1130CF04C65617665207468652027355627207019
S1130D006F77657220737769746368204F4E206132
S1130D106E6420666F6C6C6F772074686520696EF2
S1130D20737472756374696F6E7320696E2074686E
S1130D30652054657374204D6574686F640A0D747E
S1130D406F2070726F6772616D2074686520425500
S1130D505420696E746F20534C415645204D4F44C6
S1130D60450A0A0D50726573732027582720746F43
S1130D702065786974206F7220454E544552207462
S1130D806F2070726F636565640A0A0D000A0A0DAC
S1130D902A2A2A2055505045522053574954434833
S1130DA0494E47205448524553484F4C44204552DD
S1130DB0524F52202A2A2A0A0A0D000A0A0D2A2A08
S1130DC02A204C4F57455220535749544348494EC3
S1130DD047205448524553484F4C44204552524FA3
S1130DE052202A2A2A0A0A0D000A0D5072657373CA
S1130DF02027582720746F2065786974206F72202B
S1130E00454E54455220746F2052657472790A0D10
S1130E10000A0D536C6F776C7920496E63726561BB
S1130E207365207468652045585442415420766F98
S1130E306C7461676520756E74696C2061204D6502
S1130E40737361676520617070656172730A0D5018
S1130E50726573732027582720746F20657869742E
S1130E60206F7220454E54455220746F2070726F6B
S1130E70636565640A0A0D20204558544241542094
S1130E80205642415420202020494E544241540AC5
S1130E900D000A0D536C6F776C792044656372659D
S1130EA06173652074686520455854424154207626
S1130EB06F6C7461676520756E74696C2061204D78
S1130EC065737361676520617070656172730A0D83
S1130ED050726573732027582720746F20657869D2
S1130EE074206F7220454E54455220746F207072E6
S1130EF06F636565640A0A0D2020455854424154C5
S1130F0020205642415420202020494E544241542E
S1130F100A0D000A0D2A2A2A205455524E205448FC
S1130F2045202B355620504F57455220535749548E
S1130F304348204F4E202A2A2A0A0D5072657373A3
S1130F402027582720746F2065786974206F7220D9
S1130F50454E54455220746F2070726F636565640A
S1130F600A0A0D000A0D2A2A2A2041646A7573743C
S1130F7020496E70757420566F6C74616765202A01
S1130F802A2A0A0D004641494C0A0D005041535388
S1130F900A0D000A0A0A0A0D426F61726420546540
S1130FA073740A0D3D3D3D3D3D3D3D3D3D3D0A0DC6
S1130FB0456E7375726520746865204558544241C6
S1130FC054205053552069732073657420746F2026
S1130FD031342E3056202B2F2D20302E31560A0D31
S1130FE0456E737572652074686520494E5442419C
S1130FF054205053552069732073657420746F20F6
S113100031352E3056202B2F2D20302E31560A0DFF
S1131010436F6E6E6563742074686520426F6172FD
S11310206420556E6465722054657374202842559B
S1131030542920746F20746865204A69670A0D0A70
S11310402A2A2A20456E7375726520746865202BE0
S1131050355620506F776572205377697463682022
S11310606973204F46462061742074686973207345
S113107074616765202A2A2A0A0A0D5475726E2043
S11310807468652045787465726E616C20505355A0
S113109073204F4E0A0D5072657373202758272012
S11310A0746F2065786974206F7220454E544552E0
S11310B020746F2070726F636565640A0A0D000AFC
S11310C00A0D5374617274204D454E550A0D3D3D11
S11310D03D3D3D3D3D3D3D3D0A0D54202D20426F9B
S11310E061726420746573740A0D44202D20446574
S11310F0627567204D656E750A0D3C454E54455228
S11311003E2D20546F207265667265736820736388
S11311107265656E0A0A0D0020436F6D6D616E6421
S1131120206E6F7420696D706C656D656E74656496
S11311300A0D000A0A0D4545472042617474657220
S113114079204D6F64756C65202D204932432054FD
S113115065737420536F6674776172650A0D3D3D43
S11311603D3D3D3D3D3D3D3D3D3D3D3D3D3D3D3DAB
S11311703D3D3D3D3D3D3D3D3D3D3D3D3D3D3D3D9B
S11311803D3D3D3D0A0D544A303030303034204628
S113119069726D776172652049643A20000A0A0A0F
S11311A00A0A0A0A0A0A0A0A0D28632920436F70E8
S11311B079726967687420546865204D6167737437
S11311C0696D20436F6D70616E79204C74642E20BC
S11311D0323032350A0A0D000A0A0A0A0A0A0A0AD1
S11311E00A0A0A0A0A0A0A0D004F4646004F4E0030
S11311F00A0D005665722056312E300011241FBE90
S1131200CFEFD8E0DEBFCDBF14E0A0E0B1E0E0E175
S1131210F8E302C005900D92AE34B107D9F726E089
S1131220AEE4B4E001C01D92AE33B207E1F70E9410
S1131230020C0C94061C0C94000010925904E091CA
S11312405904F0E0EE59FE4F808180937C001092A7
S11312507B0080E090E029E0289FF001299FF00DB9
S11312601124E65AFB4F10821182128213821582D6
S1131270148217821682108601968530910561F7D3
S11312808FEC80937A0008951F920F920FB60F92FD
S113129011242F933F938F939F93AF93BF93EF9317
S11312A0FF932091780030917900E0915904809166
S11312B059048F5F80935904853010F010925904BB
S11312C0A0915904B0E0AE59BE4F8C9180937C003C
S11312D08FEC80937A0089E0E89FF0011124E65AAC
S11312E0FB4F80819181A281B381820F931FA11D45
S11312F0B11D80839183A283B383868197810196F4
S11313009783868380389105A8F01782168280819E
S11313109181A281B38127E0B695A795979587958A
S11313202A95D1F7958384831082118212821382C5
S113133081E08087FF91EF91BF91AF919F918F9151
S11313403F912F910F900FBE0F901F9018950F9300
S11313501F93CF93DF938C01C62FD0E089E0689F61
S1131360F0011124E65AFB4F80858823B9F0A4814B
S1131370B581CC0FDD1FCC0FDD1FC25BDE4F288192
S113138039814A815B810E94FB18BB27A92F982FC2
S1131390872FE80199838883108681E0DF91CF91BC
S11313A01F910F910895E82FF0E0EE0FFF1FE0501A
S11313B0FF4F808191810895CF92DF92EF92FF9247
S11313C00F931F93CF93DF9300D0CDB7DEB7082FD1
S11313D0162F10924F0410924E048FEF9FEF9093AC
S11313E051048093500410925304109252041092AA
S11313F054041092550410925604109257041092FB
S11314005804809158048117D8F5602FCE010196B5
S11314100E94A7098823C9F389819A8120915004E5
S1131420309151048217930720F4909351048093D0
S1131430500420914E0430914F042817390720F4AA
S113144090934F0480934E0440915404509155045A
S113145060915604709157046A017B01C80ED91E2D
S1131460E11CF11CC0925404D0925504E09256043D
S1131470F0925704809158048F5F80935804C1CF31
S1131480212F30E040E050E0609154047091550405
S113149080915604909157040E94D91830935304B4
S11314A0209352048EE494E00F900F90DF91CF913B
S11314B01F910F91FF90EF90DF90CF9008951092BD
S11314C04805109247051092460510924505109262
S11314D0C50087E68093C40086E08093C20088E953
S11314E08093C10008951F920F920FB60F9211249A
S11314F08F939F93EF93FF939091460580914505B9
S1131500981306C08091C1008F7D8093C10011C0E3
S1131510E0914505F0E0EF56FB4F80818093C600D3
S1131520809145058F5F80934505843B10F01092B0
S11315304505FF91EF919F918F910F900FBE0F90F2
S11315401F901895F8942091460530E08091450548
S11315507894482F50E02417350710F42C543F4F4B
S11315608D54821B08951F93CF93DF93D82F192F87
S1131570C62F0E94A20A8C17E0F3809146052D2FF6
S1131580ED2FF12F9E2F921B9C1758F49191A82FA9
S1131590B0E0AF56BB4F9C938F5F843B98F380E0E1
S11315A0F1CFF894809346058091C10085FD16C063
S11315B0E0914505F0E0EF56FB4F80818093C60033
S11315C0809145058F5F80934505843B10F0109210
S11315D045058091C10080628093C100789484E0C5
S11315E0DF91CF911F910895CF93DF93FC01019078
S11315F00020E9F73197EF01C81BD90B6C2F0E942B
S1131600B30A843011F48C2F01C080E0DF91CF91B4
S11316100895CF93C82F1092C1000E945F0AEC2F47
S1131620F0E0EE0FFF1FE05DFE4F81818F9380811C
S11316308F9387E691E09F938F9387E595E09F933F
S11316408F930E941C190F900F900F900F900F9082
S11316500F9087E595E0CF910C94F40A209146050C
S11316609091450581E0291380E008951F920F921F
S11316700FB60F9211242F933F934F935F936F9361
S11316807F938F939F93AF93BF93EF93FF93909127
S1131690C0008091C600E0914805F0E0E957FB4F97
S11316A08083809148058F5F809348058A3010F0CD
S11316B010924805892F8C7159F094FF02C080E084
S11316C005C093FF02C081E001C082E00E94090BC3
S11316D0FF91EF91BF91AF919F918F917F916F9106
S11316E05F914F913F912F910F900FBE0F901F90DC
S11316F0189530914805209147053217A9F0F894C0
S1131700E0914705F0E0E957FB4F2081FC0120837D
S1131710809147058F5F809347058A3010F01092BF
S11317204705789484E0089580E00895CF93DF938B
S11317301F92CDB7DEB78FEF9FEF2091BC002983B6
S1131740298127FD02C00197C1F70F90DF91CF9146
S113175008958CE08093B800ECEBF0E08081846025
S113176080830895FF920F931F93CF93DF93C82F25
S1131770162FF42E052F84EA8093BC000E94960B4A
S1131780CC0FC093BB0084E88093BC000E94960BEE
S1131790CF2DD02FCE01810F911D8C0184E8F82E1E
S11317A0C017D10741F089918093BB00F092BC002F
S11317B00E94960BF5CF8091B90094E99093BC00F8
S11317C0DF91CF911F910F91FF9008951092B8006F
S11317D0ECEBF0E080818B7F80830895579A5F98CB
S11317E05F9A5F985F9A5F985F9A5F988EE08093A4
S11317F07E0087E084B985B1887F85B984E08AB9A1
S11318005A9A08950E94EE0B0E9468180E945F0A7B
S11318100E941D090E94A90B0E94FC170E94351802
S1131820FDCF982F83B1913049F020F0923049F4E4
S11318308170089582FB882780F9089586958170C8
S1131840089580E00895813051F018F0823069F0F5
S11318500895613011F42A9A08952A980895613000
S113186011F4299A089529980895613011F4289A59
S113187008952898089590934D0580934C0589EE1A
S11318809DE090934B0580934A0582EC97E19093F9
S11318904F0580934E0582E393E190935105809325
S11318A05005089580E00E94110C813019F48DEEEA
S11318B091E102C089EE91E10E945B189F938F939E
S11318C085EE91E09F938F9387E595E09F938F93A7
S11318D00E941C1987E595E00E94F40A81E00E94A9
S11318E0110C0F900F900F900F900F900F9081306C
S11318F019F48DEE91E102C089EE91E10E945B182A
S11319009F938F9383EF91E09F938F9387E595E067
S11319109F938F930E941C1987E595E00E94F40A17
S113192082E00E94110C0F900F900F900F900F9077
S11319300F90813019F48DEE91E102C089EE91E1AE
S11319400E945B189F938F9381E092E09F938F9303
S113195087E595E09F938F930E941C1987E595E096
S11319600E94F40A89EA91E090934B0580934A051A
S113197087ED90E190934F0580934E0582E393E1C8
S113198090935105809350050F900F900F900F90F6
S11319900F900F900895EF92FF920F931F93CF93A0
S11319A0DF93EC017B018A0160E0CE010E94A7096C
S11319B08823D1F361E0C7010E94A7098823D1F3EA
S11319C063E0C8010E94A7098823D1F3F70181814C
S11319D08F9380818F93F80181818F9380818F937E
S11319E089818F9388818F938FE092E09F938F9367
S11319F087E595E09F938F930E941C198DB79EB73E
S1131A000A960FB6F8949EBF0FBE8DBF87E595E08A
S1131A10DF91CF911F910F91FF90EF900C94F40AF6
S1131A20CF92DF92EF92FF921F93CF93DF9300D078
S1131A30CDB7DEB710E085E2E82E82E0F82E97E518
S1131A40C92E95E0D92E612FCE0101960E94A709D7
S1131A50811117C01F5F1530B1F76DE273E087E5A0
S1131A6095E00E94151987E595E00E94F40A0F900D
S1131A700F90DF91CF911F91FF90EF90DF90CF9067
S1131A8008958A818F9389818F93FF92EF92DF92D9
S1131A90CF920E941C1987E595E00E94F40A0F90EA
S1131AA00F900F900F900F900F900E942E0B882391
S1131AB0E1F3D0CFCF92DF92EF92FF920F931F9377
S1131AC0CF93DF93F82EEB0168E00E94DC096C01F0
S1131AD0FC01148105818F2D0E94D3090F931F935C
S1131AE09F938F938BE292E09F938F9307E515E08A
S1131AF01F930F930E941C19C8010E94F40AF60157
S1131B0024813581888199814A815B81BC01640F7C
S1131B10751FEDB7FEB738960FB6F894FEBF0FBE2B
S1131B20EDBF6217730738F585E89FE00E945B18E4
S1131B300E94F40ADA80CB80E880C9818F2D0E944C
S1131B40D309CF92DF92CF93EF929F938F9388E341
S1131B5092E09F938F931F930F930E941C19C801C7
S1131B600E94F40A8DB79EB70A960FB6F8949EBFEA
S1131B700FBE8DBF2CC0841B950B2817390748F561
S1131B8085E89FE00E945B180E94F40ACA80EB80FB
S1131B90D880C9818F2D0E94D309EF92CF92CF9321
S1131BA0DF929F938F9389E692E09F938F931F9385
S1131BB00F930E941C1987E595E00E94F40AEDB783
S1131BC0FEB73A960FB6F894FEBF0FBEEDBF80E0A5
S1131BD007C08CE89FE00E945B180E94F40A81E031
S1131BE0DF91CF911F910F91FF90EF90DF90CF90F5
S1131BF00895CF93DF9300D000D0CDB7DEB78091A6
S1131C004A0190914B019A83898388EC90E09C83EC
S1131C108B8360E081E00E94230C8AEF90E00E94B5
S1131C20981861E080E00E94230C8AEF90E00E9403
S1131C3098186AE471E080E00E945A0D811107C08F
S1131C4084E69FE00E945B180E94F40A20C062E4CC
S1131C5071E084E00E945A0D8823C9F0BE016F5FD1
S1131C607F4F83E00E945A0D882389F010924B0520
S1131C7010924A0586E59EE090934F0580934E05A9
S1131C8082E393E1909351058093500504C089EF5A
S1131C909DE00E943B0C60E080E00E94230C0F90CA
S1131CA00F900F900F90DF91CF910895CF93DF9312
S1131CB000D000D0CDB7DEB78091460190914701A6
S1131CC09A83898388EC90E09C838B8360E080E036
S1131CD00E94230C8AEF90E00E94981861E081E052
S1131CE00E94230C8AEF90E00E94981866E471E049
S1131CF081E00E945A0D811107C084E69FE00E9492
S1131D005B180E94F40A22C062E471E084E00E943D
S1131D105A0D8823D9F0BE016F5F7F4F83E00E9484
S1131D205A0D882399F083E19FE090934B058093AB
S1131D304A0589EC93E190934F0580934E0582E325
S1131D4093E1909351058093500504C086E59EE08D
S1131D500E943B0C60E081E00E94230C0F900F90E6
S1131D600F900F90DF91CF9108951F93CF93DF933E
S1131D701F92CDB7DEB7182FCE0101960E94790BC2
S1131D80882391F0112379F089818D3039F480EF23
S1131D9091E10E945B180E94F40A05C061E0CE0143
S1131DA001960E94B30A89810F90DF91CF911F9110
S1131DB0089580E00E94110C813021F460E080E0FD
S1131DC00E94230C81E00E94110C813019F460E020
S1131DD00E94230C82E00E94110C813021F460E007
S1131DE082E00E94230C81E00E94B50E8823A1F1B9
S1131DF0843541F018F4843471F016C0843659F0F7
S1131E00843791F483E99FE090934B0580934A05CE
S1131E1081E993E117C085ED93E090934B0580939E
S1131E204A058DE29FE00EC088E191E10E945B18B3
S1131E300E94F40A8FEB90E190934B0580934A053E
S1131E4089ED9EE090934F0580934E0582E393E1E4
S1131E509093510580935005089581E00E94B50E3A
S1131E60882309F462C0883559F158F48334F9F0B1
S1131E7018F4813499F041C08934A1F1843549F1D1
S1131E803CC0893679F128F4813641F0833679F003
S1131E9034C08437F1F0883799F02FC08EE792E090
S1131EA090934B0580934A0583E793E134C086E31E
S1131EB092E090934B0580934A0582E59CE02BC009
S1131EC08FEB90E190934B0580934A0589ED9EE05A
S1131ED022C088E690E090934B0580934A0584E203
S1131EE090E119C00E94A90B8FEE92E090934B05EC
S1131EF080934A0586E99FE00EC088E191E10E9443
S1131F005B180E94F40A85ED93E090934B0580934F
S1131F104A058DE29FE090934F0580934E0582E33E
S1131F2093E1909351058093500508950F931F9367
S1131F30CF93DF9300D000D01F92CDB7DEB780E0FF
S1131F400E94B50E882309F475C08835C1F040F4A9
S1131F50873489F0823509F445C0823431F53EC0B6
S1131F60873649F018F48236C9F11FC08237D1F19F
S1131F70883729F01AC08EE992E01EEF36C081E15D
S1131F8089831A821B82AE014F5F5F4F63E080E159
S1131F900E94B20B0E94E60B85ED93E090934B05F3
S1131FA080934A058DE29FE00EC088E191E10E9492
S1131FB05B180E94F40A8FEE92E090934B05809395
S1131FC04A0586E99FE090934F0580934E0582E38E
S1131FD093E190935105809350052CC089E992E0D8
S1131FE01FEF03C084EA92E01DEF9F938F931F922B
S1131FF01F931F920FEF0F9388EA92E09F938F93A2
S113200087E595E09F938F930E941C1987E595E0DF
S11320100E94F40A81E189830A831B83AE014F5F26
S11320205F4F63E080E10E94B20B0FB6F894DEBF0D
S11320300FBECDBF0F900F900F900F900F90DF91B8
S1132040CF911F910F91089581E00E94B50E8823CE
S113205009F4ACC08433C1F130F48233D1F038F5E3
S1132060813351F063C0883509F44DC0883709F4D1
S11320704AC08533B9F15AC080913C0190913D0129
S1132080803C9B4219F480EE9EE20CC080EC9BE203
S113209009C080913C0190913D01803C9B42B1F785
S11320A080EA98E290933D0180933C0145C0809181
S11320B03A0190913B01883C924319F488EE95E3F0
S11320C00CC088EC92E309C080913A0190913B01E5
S11320D0883C9243B1F788EA9FE290933B01809356
S11320E03A012AC080913801909139018C3D954084
S11320F019F484E690E002C08CED95E090933901E8
S11321008093380119C085ED93E090934B0580933B
S11321104A058DE29FE090934F0580934E0582E33C
S113212093E19093510580935005089588E191E1DE
S11321300E945B180E94F40A809139018F93809168
S113214038018F9380913B018F9380913A018F9353
S113215080913D018F9380913C018F9389ED92E0B2
S11321609F938F9387E595E09F938F930E941C190B
S113217087E595E00E94F40A88E690E090934B0589
S113218080934A0584E290E190934F0580934E0535
S113219082E393E190935105809350058DB79EB7E8
S11321A00A960FB6F8949EBF0FBE8DBF089581E0C6
S11321B00E94B50E811102C00C94100D883581F176
S11321C038F48934C9F0803511F1853491F50BC0A8
S11321D0893691F018F4853631F02BC08037B9F088
S11321E08837F1F026C080E00E94110C61E0813054
S11321F009F460E080E008C081E00E94110C61E015
S1132200813009F460E081E00E94230C18C082E070
S11322100E94110C61E0813009F460E082E0F4CFA7
S113222085ED93E090934B0580934A058DE29FE002
S11322300EC088E191E10E945B180E94F40A86E3D3
S113224092E090934B0580934A0582E59CE090933D
S11322504F0580934E0582E393E19093510580935B
S113226050050895CF93DF9300D000D01F92CDB7CF
S1132270DEB781E00E94B50E882309F44DC08D308D
S113228089F018F48A3071F02FC0883511F088373E
S113229059F58FEB90E190934B0580934A0589EDB6
S11322A09EE030C088ED91E10E945B180E94F40A20
S11322B00E94A90B81E189838DEF8A83809349056C
S11322C0AE014F5F5F4F63E080E10E94B20B80ED8F
S11322D097E00E9473188FE297E090934B058093E8
S11322E04A0584E991E10EC088E191E10E945B18FE
S11322F00E94F40A82ED97E090934B0580934A057F
S113230082E391E190934F0580934E0582E393E13C
S113231090935105809350050F900F900F900F905C
S11323200F90DF91CF9108950F931F93CF93DF9375
S113233000D000D01F92CDB7DEB781E00E94B50E69
S1132340882309F448C08D3089F018F48A3071F07C
S11323503BC0883511F08837B9F58FEB90E1909345
S11323604B0580934A0589ED9EE023C088ED91E1F9
S11323700E945B180E94F40A60E080E00E94230C33
S113238061E081E00E94230C81E189831A821B822F
S1132390AE014F5F5F4F63E080E10E94B20B0E9489
S11323A0E60B87EC96E090934B0580934A058EE606
S11323B095E190934F0580934E0582E393E19093CA
S11323C05105809350054EC088E191E10E945B184D
S11323D00E94F40A47C00E949018882309F442C05E
S11323E081E189838FEF8A83809149058F5F809390
S11323F04905811106C08DEF8093490504EA12E076
S113240007C08F3F19F00EE912E002C009E912E09B
S1132410809149058B83AE014F5F5F4F63E080E19C
S11324200E94B20B1F930F93809149051F928F93C3
S11324301F928FEF8F9388EA92E09F938F9387E5A3
S113244095E09F938F930E941C1987E595E00E9465
S1132450F40A80ED97E00E9473180FB6F894DEBF7B
S11324600FBECDBF0F900F900F900F900F90DF9184
S1132470CF911F910F910895CF92DF92EF92FF9227
S11324800F931F93CF93DF9300D0CDB7DEB781E0D6
S11324900E94B50E882309F4DAC08D3091F018F447
S11324A08A3079F0BCC0883519F0883709F0B7C094
S11324B08FEB90E190934B0580934A0589ED9EE064
S11324C0BCC088ED91E10E945B180E94F40A61E0AF
S11324D082E00E94230C8FE293E00E94F40A00E061
S11324E010E083E4E82E83E0F82E97E5C92E95E00A
S11324F0D92E88EE93E00E9473180E9490188111DF
S11325001DC062E0CE0101960E94A7098823C9F389
S11325101F930F938A818F9389818F93FF92EF92F8
S1132520DF92CF920E941C1987E595E00E94F40A7D
S11325300FB6F894DEBF0FBECDBFDFCF0F5F1F4FC6
S113254003301105B1F689819A81209138013091C7
S113255039018217930790F59F938F931F9283E01D
S11325608F9382E593E09F938F9387E595E09F9304
S11325708F930E941C1987E595E00E94F40A60E09D
S113258082E00E94230C60E080E00E94230C60E063
S113259081E00E94230C88E694E090934B0580939D
S11325A04A058EEA95E190934F0580934E0582E3A8
S11325B093E190935105809350052BC03F932F9343
S11325C09F938F931F9283E08F938CE893E09F9364
S11325D08F9387E595E09F938F930E941C1987E55D
S11325E095E00E94F40A89EE9DE090934B05809358
S11325F04A058CE392E190934F0580934E0582E364
S113260093E1909351058093500560E082E00E942D
S1132610230C0FB6F894DEBF0FBECDBF18C088E1FF
S113262091E10E945B180E94F40A81E995E090937D
S11326304B0580934A058CE392E190934F05809378
S11326404E0582E393E190935105809350050F90DA
S11326500F90DF91CF911F910F91FF90EF90DF903A
S1132660CF900895CF93DF9380914A0590914B05C5
S1132670009771F10E944F18EC01833B910510F013
S1132680C2EBD0E00E94A20A90E08C179D07D0F321
S1132690BE0180914A0590914B050E943D182091FE
S11326A04A0530914B052C0F3D1F30934B05209369
S11326B04A056C2F0E94B30AE0914A05F0914B053C
S11326C0E491E1110DC010924B0510924A0508C027
S11326D080914E0590914F0590935105809350053C
S11326E0DF91CF9108950E94100D81E00E94B50EF4
S11326F08823B1F0883511F0883791F485ED93E0A3
S113270090934B0580934A058DE29FE090934F058B
S113271080934E0582E393E1909351058093500595
S1132720089581E00E94B50E882391F18D3089F0DF
S113273018F48A3071F014C0883511F0883781F4A8
S11327408FEB90E190934B0580934A0589ED9EE0D1
S113275015C010924B0510924A0589EF9DE00EC0FA
S113276088E191E10E945B180E94F40A83E99FE0EA
S113277090934B0580934A0581E993E190934F052B
S113278080934E0582E393E1909351058093500525
S1132790089581E00E94B50E882391F18D3089F06F
S11327A018F48A3071F014C0883511F0883781F438
S11327B08FEB90E190934B0580934A0589ED9EE061
S11327C015C010924B0510924A0588EE95E10EC093
S11327D088E191E10E945B180E94F40A83E19FE082
S11327E090934B0580934A0589EC93E190934F05B0
S11327F080934E0582E393E19093510580935005B5
S1132800089581E00E94B50E882309F442C08D30FA
S113281089F018F48A3071F024C0883511F08837B3
S113282001F58FEB90E190934B0580934A0589ED78
S11328309EE025C060E080E00E94230C60E081E01F
S11328400E94230C88ED91E10E945B180E94F40A17
S113285084E99BE090934B0580934A058AE494E1D4
S11328600EC088E191E10E945B180E94F40A8DEE8B
S11328709CE090934B0580934A0581E094E190930A
S11328804F0580934E0582E393E190935105809325
S11328905005089581E00E94B50E882309F442C0D2
S11328A08D3089F018F48A3071F024C0883511F025
S11328B0883701F58FEB90E190934B0580934A059F
S11328C089ED9EE025C060E080E00E94230C61E079
S11328D081E00E94230C88ED91E10E945B180E9424
S11328E0F40A88EC9AE090934B0580934A0583E9B7
S11328F094E10EC088E191E10E945B180E94F40A01
S113290084E99BE090934B0580934A058AE494E123
S113291090934F0580934E0582E393E19093510584
S113292080935005089581E00E94B50E882309F430
S113293042C08D3089F018F48A3071F024C0883593
S113294011F0883701F58FEB90E190934B0580935C
S11329504A0589ED9EE025C060E080E00E94230CDA
S113296060E081E00E94230C88ED91E10E945B18F5
S11329700E94F40A8EE49AE090934B0580934A05F2
S11329808CED94E10EC088E191E10E945B180E94F5
S1132990F40A88EC9AE090934B0580934A0583E906
S11329A094E190934F0580934E0582E393E19093D5
S11329B0510580935005089581E00E94B50E882347
S11329C009F442C08D3089F018F48A3071F024C0C3
S11329D0883511F0883701F58FEB90E190934B0522
S11329E080934A0589ED9EE025C060E080E00E9466
S11329F0230C60E081E00E94230C88ED91E10E94A9
S1132A005B180E94F40A85E399E090934B05809348
S1132A104A0585E295E10EC088E191E10E945B18C8
S1132A200E94F40A8EE49AE090934B0580934A0541
S1132A308CED94E190934F0580934E0582E393E1EE
S1132A409093510580935005089581E00E94B50E3E
S1132A50882309F442C08D3089F018F48A3071F06B
S1132A6024C0883511F0883701F58FEB90E19093FD
S1132A704B0580934A0589ED9EE025C061E080E026
S1132A800E94230C60E081E00E94230C88ED91E118
S1132A900E945B180E94F40A82ED97E090934B0524
S1132AA080934A0582E391E10EC088E191E10E949E
S1132AB05B180E94F40A8EE49AE090934B0580938D
S1132AC04A0585E295E190934F0580934E0582E394
S1132AD093E19093510580935005089581E00E94FD
S1132AE0B50E8823D1F18D3089F018F48A3071F055
S1132AF01CC0883511F08837C1F48FEB90E19093B6
S1132B004B0580934A0589ED9EE01DC088ED91E157
S1132B100E945B180E94F40A81E995E090934B05AA
S1132B2080934A058CE392E10EC088E191E10E9412
S1132B305B180E94F40A87EC96E090934B0580930F
S1132B404A058EE695E190934F0580934E0582E306
S1132B5093E19093510580935005089581E00E947C
S1132B60B50E8823A1F18D3089F018F48A3071F004
S1132B7016C0883511F0883791F48FEB90E190936B
S1132B804B0580934A0589ED9EE017C083E99FE0D9
S1132B9090934B0580934A0581E993E10EC088E147
S1132BA091E10E945B180E94F40A88E694E09093F5
S1132BB04B0580934A058EEA95E190934F058093E7
S1132BC04E0582E393E19093510580935005089557
S1132BD06EE371E082E00E945A0D811108C088EE14
S1132BE095E10E943B0C60E081E00C94230C62E4CC
S1132BF071E084E00E945A0D882389F388ED91E105
S1132C000E945B180E94F40A82E99EE090934B05AF
S1132C1080934A0586E296E190934F0580934E0592
S1132C2082E393E1909351058093500561E080E045
S1132C300E94230C8AEF90E00E94981861E081E0E2
S1132C400E94230C8AEF90E00C949818CF93DF93A2
S1132C5000D000D000D0CDB7DEB781E00E94B50E21
S1132C60811193C0AE014F5F5F4FBE016D5F7F4F17
S1132C70CE0105960E94CB0C2D813E8149815A815B
S1132C80B9016659710980913C0190913D01461743
S1132C905707B8F1645D7E4F6417750790F180594A
S1132CA091404817590708F095C08BEB9DE00E94AE
S1132CB05B180E94F40A8E818F938D818F9381E03B
S1132CC08F9380E98F9380913D018F9380913C0194
S1132CD08F938BED93E09F938F9387E595E09F937C
S1132CE08F930E941C1987E595E00E94F40A86E2FE
S1132CF096E10E943B0C0FB6F894DEBF0FBECDBF29
S1132D0069C0AC01405951404217530770F68057CF
S1132D109E4F2817390748F688ED91E10E945B1809
S1132D200E94F40A8E818F938D818F9388E094E0C2
S1132D309F938F9387E595E09F938F930E941C192F
S1132D4087E595E00E94F40A81E19EE090934B05AB
S1132D5080934A0583EF96E190934F0580934E0547
S1132D6082E393E1909351058093500584EF91E0C1
S1132D700E9473180F900F900F900F900F900F9068
S1132D800E9490188823E1F325C0883511F0883714
S1132D9049F48FEB90E190934B0580934A0589EDBC
S1132DA09EE00EC088E191E10E945B180E94F40A43
S1132DB082E99EE090934B0580934A0586E296E172
S1132DC090934F0580934E0582E393E190935105D0
S1132DD08093500526960FB6F894DEBF0FBECDBF84
S1132DE0DF91CF910895CF93DF9300D000D000D02E
S1132DF0CDB7DEB781E00E94B50E811195C0AE015A
S1132E004F5F5F4FBE016D5F7F4FCE0105960E94FD
S1132E10CB0C2B813C8169817A81F901E659F10956
S1132E2080913A0190913B014D815E816E177F073D
S1132E30B8F12A563F4F2617370790F180579E4F17
S1132E408417950708F095C08DE89DE00E945B18F3
S1132E500E94F40A8E818F938D818F9381E08F93EA
S1132E6080E98F9380913B018F9380913A018F93F6
S1132E708BED93E09F938F9387E595E09F938F93DA
S1132E800E941C1987E595E00E94F40A83EF96E1FD
S1132E900E943B0C0FB6F894DEBF0FBECDBF69C0D5
S1132EA09C01205931402417350770F680579E4FF6
S1132EB04817590748F688ED91E10E945B180E9473
S1132EC0F40A8E818F938D818F9388E294E09F938F
S1132ED08F9387E595E09F938F930E941C1987E554
S1132EE095E00E94F40A60E080E00E94230C60E018
S1132EF081E00E94230C8DEE9CE090934B0580931F
S1132F004A0581E094E190934F0580934E0582E356
S1132F1093E190935105809350050F900F900F907B
S1132F200F900F900F9025C0883511F0883749F421
S1132F308FEB90E190934B0580934A0589ED9EE0D9
S1132F400EC088E191E10E945B180E94F40A82E9B4
S1132F509EE090934B0580934A0586E296E1909318
S1132F604F0580934E0582E393E19093510580933E
S1132F70500526960FB6F894DEBF0FBECDBFDF9185
S1132F80CF91089581E00E94B50E8823A1F18D3080
S1132F9089F018F48A3071F016C0883511F088373A
S1132FA091F48FEB90E190934B0580934A0589ED62
S1132FB09EE017C080914C0590914D0510924B05F1
S1132FC010924A050EC088E191E10E945B180E94AC
S1132FD0F40A89EE9DE090934B0580934A0582ECB8
S1132FE097E190934F0580934E0582E393E190938C
S1132FF051058093500508958DE991E10E945B1875
S11330000E94F40A83E391E10E945B180E94F40A8F
S11330100E94D6180E945B189F938F9388E494E0D3
S11330209F938F9387E595E09F938F930E941C193C
S113303087E595E00E94F40A8FEB90E190934B05AD
S113304080934A0589ED9EE090934F0580934E0549
S113305082E393E190935105809350050F900F9074
S11330600F900F900F900F900895E0915005F091FC
S11330705105309709F009940895A9E8B5E020E0D6
S113308030E02617370741F0FC01E20FF31FE4910B
S1133090ED932F5F3F4FF5CF89E895E008959C01AC
S11330A080E090E0F901E80FF91FE491EE2311F0BC
S11330B00196F8CF0895CF93DF93EC010E944F1847
S11330C0BC016F5F7F4FCE01DF91CF910C943D180F
S11330D010925605109255051092540510925305FE
S11330E010925205089590935605809355051092B9
S11330F054051092530510928500109284008AEFB3
S113310090E09093890080938800EFE6F0E080815E
S113311082608083E1E8F0E08081836080830895A9
S113312080915205882319F01092520581E0089588
S11331300E9473180E9490188823E1F308951F9247
S11331400F920FB60F9211242F933F938F939F9357
S11331508091530590915405019690935405809362
S1133160530520915505309156058217930759F45C
S11331701092810080916F008D7F80936F0081E0B9
S1133180809352050AC080918800909189008650EE
S11331909F4F90938900809388009F918F913F91D6
S11331A02F910F900FBE0F901F90189583EF91E110
S11331B00895A1E21A2EAA1BBB1BFD010DC0AA1F74
S11331C0BB1FEE1FFF1FA217B307E407F50720F08C
S11331D0A21BB30BE40BF50B661F771F881F991F07
S11331E01A9469F760957095809590959B01AC0150
S11331F0BD01CF0108950E940619A59F900DB49FAB
S1133200900DA49F800D911D11240895A29FB001DB
S1133210B39FC001A39F700D811D1124911DB29F06
S1133220700D811D1124911D0895FB01DC01019095
S11332300D920020E1F70895AEE0B0E0E2E2F9E19A
S11332400C94DD1B0D891E8986E08C831A83098307
S11332508FEF9FE79E838D83AE01475E5F4F6F893B
S1133260788DCE0101960E943E19EF81F885E00F1A
S1133270F11F10822E96E4E00C94F91BABE0B0E051
S1133280E4E4F9E10C94CF1B6C017B018A01FC019D
S113329017821682838181FFCCC1CE0101963C0145
S11332A0F6019381F70193FD859193FF81917F014D
S11332B0882309F4BAC1853239F493FD859193FFCB
S11332C081917F01853229F4B60190E00E94351B7B
S11332D0E7CF912C212C312CFFE1F315D8F08B3260
S11332E079F038F4803279F08332A1F4232D20610F
S11332F01DC08D3261F0803369F4232D216016C026
S1133300832D8260382EE32DE4603E2E2AC0F32DF7
S1133310F8601DC037FC2DC020ED280F2A3040F086
S11333208E32B9F436FC81C1232D2064322E19C0AB
S113333036FE06C08AE0989E200D1124922E11C0FC
S1133340EAE02E9E200D1124222EF32DF0623F2E52
S113335008C08C3621F4832D8068382E02C088364C
S113336041F4F70193FD859193FF81917F018111D0
S1133370B3CF982F9F7D9554933028F40C5F1F4F43
S11333809FE399830DC0833631F0833771F0833521
S113339009F059C021C0F801808189830E5F1F4F55
S11333A088248394912C530113C02801F2E04F0E1A
S11333B0511CF801A080B18036FE03C0692D70E075
S11333C002C06FEF7FEFC5010E942A1B4C018201EE
S11333D0F32DFF773F2E16C0280122E0420E511C28
S11333E0F801A080B18036FE03C0692D70E002C0F0
S11333F06FEF7FEFC5010E941F1B4C01F32DF06896
S11334003F2E820133FC1BC0822D90E08816990662
S1133410B0F4B60180E290E00E94351B2A94F4CF08
S1133420F50137FC859137FE81915F01B60190E08B
S11334300E94351B21102A9421E0821A91088114DC
S1133440910471F7E8C0843611F0893641F5F8012A
S113345037FE07C060817181828193810C5F1F4FA9
S113346008C060817181072E000C880B990B0E5FD8
S11334701F4FF32DFF763F2E97FF09C0909580953F
S1133480709561957F4F8F4F9F4FF0683F2E2AE0D4
S113349030E0A3010E94711B882E861845C0853731
S11334A031F4232D2F7EB22E2AE030E025C0932D57
S11334B0997FB92E8F36C1F018F4883579F0B5C0EC
S11334C0803719F0883721F0B0C0E92FE061BE2EB3
S11334D0B4FE0DC0FB2DF460BF2E09C034FE0AC03B
S11334E0292F2660B22E06C028E030E005C020E176
S11334F030E002C020E132E0F801B7FE07C060818D
S11335007181828193810C5F1F4F06C0608171813C
S113351080E090E00E5F1F4FA3010E94711B882E74
S11335208618FB2DFF773F2E36FE0DC0232D2E7FF0
S1133530A22E891458F434FE0BC032FC09C0832D2A
S11335408E7EA82E05C0B82CA32C03C0B82C01C0B5
S1133550B92CA4FE0FC0FE01E80DF11D808180335B
S113356021F49A2D997EA92E09C0A2FE06C0B39417
S1133570B39404C08A2D867809F0B394A3FC11C0D7
S1133580A0FE06C0B21488F4280C922C9B180EC01E
S1133590B21460F4B60180E290E00E94351BB3944B
S11335A0F7CFB21418F42B1802C0982C212CA4FEC7
S11335B010C0B60180E390E00E94351BA2FE17C044
S11335C0A1FC03C088E790E002C088E590E0B60162
S11335D00CC08A2D867859F0A1FE02C08BE201C08E
S11335E080E2A7FC8DE2B60190E00E94351B8914AD
S11335F038F4B60180E390E00E94351B9A94F7CF2B
S11336008A94F301E80DF11D8081B60190E00E94D7
S1133610351B8110F5CF222009F442CEB60180E299
S113362090E00E94351B2A94F6CFF601868197819B
S113363002C08FEF9FEF2B96E2E10C94EB1BFC0191
S11336400590615070400110D8F7809590958E0FC9
S11336509F1F0895FC016150704001900110D8F73C
S1133660809590958E0F9F1F08950F931F93CF936E
S1133670DF93FB01238121FD03C08FEF9FEF2CC05B
S113368022FF16C046815781248135814217530792
S113369044F4A081B1819D012F5F3F4F318320838A
S11336A08C93268137812F5F3F4F3783268314C045
S11336B08B01EC01FB010084F185E02D0995892B38
S11336C0E1F6D80116968D919C911797019617965D
S11336D09C938E931697CE01DF91CF911F910F91FA
S11336E00895FA01AA27283051F1203181F1E89494
S11336F06F936E7F6E5F7F4F8F4F9F4FAF4FB1E0E1
S11337003ED0B4E03CD0670F781F891F9A1FA11DDB
S1133710680F791F8A1F911DA11D6A0F711D811DDC
S1133720911DA11D20D009F468943F912AE0269FA1
S113373011243019305D3193DEF6CF010895462F00
S11337404770405D4193B3E00FD0C9F7F6CF462FE1
S11337504F70405D4A3318F0495D31FD405241934A
S113376002D0A9F7EACFB4E0A69597958795779507
S11337706795BA95C9F700976105710508959B018E
S1133780AC010A2E06945795479537952795BA9517
S1133790C9F7620F731F841F951FA01D08952F92F0
S11337A03F924F925F926F927F928F929F92AF92CD
S11337B0BF92CF92DF92EF92FF920F931F93CF931A
S11337C0DF93CDB7DEB7CA1BDB0B0FB6F894DEBFB1
S11337D00FBECDBF09942A88398848885F846E84D7
S11337E07D848C849B84AA84B984C884DF80EE8021
S11337F0FD800C811B81AA81B981CE0FD11D0FB62A
S1133800F894DEBF0FBECDBFED010895F894FFCF4D
S1133810290122011B0112010A01335633204F559D
S1133820540056424154204F5554002B35562049DC
S11338304E00494E544241540045585442415400AC
S11338407D019401B001C601DC05C832C02B881388
S11338509600E40C9600983A6400B0366400A40F15
S11338600000A40F0000D2070000A40F0000E90329
S1133870000001020306070A0A0D53595354454D2B
S1133880204552524F520A0D25730A0D000A0D535A
S1133890657269616C204672616D696E672045725C
S11338A0726F72000A0D53657269616C2044617411
S11338B061204F76657272756E204572726F720068
S11338C00A0D53657269616C2050617269747920C4
S11338D04572726F72000A0D53657269616C2054EF
S11338E05820627566206F766572666C6F77204526
S11338F072726F7200455854424154203D20257322
S11339000A0D00494E54424154203D2025730A0DAE
S11339100050464C4F4144203D2025730A0D0020A1
S11339202025303575202020253035752020202590
S11339303035750D002025303575002573203D2068
S113394025756D56202D20000A0A0D2A2A2A2025C5
S11339507320566F6C7461676520746F6F2068699B
S11339606768202D2025756D56202B2F2D20257559
S11339706D56202A2A2A0A0D000A0A0D2A2A2A200C
S1133980257320566F6C7461676520746F6F206CAB
S11339906F77202D2025756D56202B2F2D20257512
S11339A06D56202A2A2A0A0D00424C5545004752DA
S11339B045454E0052454400446973706C61796911
S11339C06E67204572726F7220436F646520307891
S11339D02530327825303278204C454420697320D4
S11339E0257320202020200D000A0A0D4C6F7765D6
S11339F072205468726573686F6C64203D202530B2
S1133A0035646D560A0D5570706572205468726580
S1133A1073686F6C64203D20253035646D560A0D43
S1133A20506F6C7966757365205468726573686F3E
S1133A306C64203D20253035646D560A0A0D000A59
S1133A400A0D506F6C7966757365202054696D6535
S1133A500A0D0020253034646D5620202020256472
S1133A600D00200A0A0D504F4C5946555345205419
S1133A7065737420504153533A20566F6C746167D8
S1133A8065206166746572202564207365636F6EBA
S1133A906473203D20253035646D5600200A0A0DDC
S1133AA0504F4C5946555345205465737420464134
S1133AB0494C3A20566F6C74616765206166746581
S1133AC072202564207365636F6E6473203D202526
S1133AD03035646D5620285468726573686F6C6461
S1133AE0203D20253035646D5629000A0D54687236
S1133AF06573686F6C64203D2025646D56202B2F00
S1133B002D2025646D560A0D455854424154203DDC
S1133B102025646D560A0D000A0A0D074C6F77655F
S1133B2072205468726573686F6C64204F4B204038
S1133B302025756D560A0D000A0A0D07557070652B
S1133B4072205468726573686F6C64204F4B204018
S1113B502025756D560A0D0025730A0A0D0016
S9030000FC
