S0130000544A3030303030345F53572E7372656346
S11300000C94B5030C94D2030C94D2030C94D20335
S11300100C94D2030C94D2030C94D2030C94D20308
S11300200C94D2030C94D2030C94D2030C94C20DFE
S11300300C94D2030C94D2030C94D2030C94D203E8
S11300400C94D2030C94D2030C94E7050C9424056D
S11300500C94D2030C94FB030C94D2030C94D2039F
S11300600C94D2030C94D2030A0D45202D20546F16
S113007067676C6520455854424154207374617419
S113008075730A0D49202D20546F67676C652049EC
S11300904E54424154207374617475730A0D502098
S11300A02D20546F67676C6520506F6C796675738B
S11300B065204C6F6164207374617475730A0D0A52
S11300C00D5072657373205820746F2065786974BD
S11300D00A0A0D000A0A0A0A0D492F4F20436F6EBF
S11300E074726F6C204465627567204D656E750A85
S11300F00D3D3D3D3D3D3D3D3D3D3D3D3D3D3D3D5C
S11301003D3D3D3D3D3D3D0A0A0D43757272656EB0
S113011074205374617475733A0A0D000A0A0A0A4A
S11301200D4144432044656275670A0D3D3D3D3DE4
S11301303D3D3D3D3D0A0A0D0A0D50726573732025
S11301405820746F20657869740A0A0D0A0D2020FE
S1130150202020416C6C204461746120696E206D04
S1130160696C6C69766F6C74730A0D0A0D202045F6
S11301705854202020494E542020202B355620202E
S1130180204F55542020203356330A0D000A0A0A02
S11301900A0D49324320546573740A0D3D3D3D3DBB
S11301A03D3D3D3D0A0A0D456E73757265207468C8
S11301B065204D6F64756C652069732050726F679C
S11301C072616D6D65642061732061204D6173748B
S11301D065720A0D436F6E6E6563742074686520E2
S11301E0546F7563682050616E656C204C434420E5
S11301F0746F20746865204D6F64756C6520616E42
S11302006420737769746368204F4E0A0A0D54683A
S11302106520272B27206B65792077696C6C206912
S11302206E6372656D656E742074686520414D500F
S113023020434F44452076616C7565206469737072
S11302406C6179656420627920310A0D54686520F7
S1130250272D27206B65792077696C6C2064656392
S113026072656D656E742074686520414D5020433D
S11302704F44452076616C756520646973706C61C8
S113028079656420627920310A0D50726573732098
S113029027582720746F2072657475726E20746FEE
S11302A02054657374204D656E750A0A0D000A0AA0
S11302B00A0A0D4445425547204D454E550A0D3D09
S11302C03D3D3D3D3D3D3D3D3D3D3D3D0A0D4120D6
S11302D02D2041444320746573740A0D43202D205E
S11302E0492F4F20436F6E74726F6C207465737462
S11302F00A0D49202D2049324320746573740A0D78
S113030058202D204578697420746F2053746172CD
S113031074204D656E750A0D000A0A0D2A2A2A20DA
S11303204C4F57455220535749544348494E472050
S11303305448524553484F4C44204552524F522042
S1130340322A2A2A0A0A0D000A0A0D2A2A2A204CCD
S11303504F57455220535749544348494E47205418
S113036048524553484F4C44204552524F52203135
S11303702A2A2A0A0A0D000A0D507265737320276F
S1130380582720746F2065786974206F7220454E59
S113039054455220746F2052657472790A0D000A14
S11303A00D536C6F776C79204963726561736520B6
S11303B07468652074686520455854424154207619
S11303C06F6C7461676520756E74696C2061204D73
S11303D065737361676520617070656172730A0D7E
S11303E050726573732027582720746F20657869CD
S11303F074206F7220454E54455220746F207072E1
S11304006F636565640A0A0D2020455854424154BF
S113041020205642415420202020494E5442415429
S11304200A0D000A0D536C6F776C79204465637272
S11304306561736520746865207468652045585447
S113044042415420766F6C7461676520756E7469DF
S11304506C2061204D657373616765206170706500
S11304606172730A0D5072657373202758272074C4
S11304706F2065786974206F7220454E5445522070
S1130480746F2070726F636565640A0A0D202045DD
S1130490585442415420205642415420202020499F
S11304A04E544241540A0D000A0D436F6E6E65634B
S11304B074207468652074657374206A6967207495
S11304C06F204A38206F6E20746865204255540AA4
S11304D00D50726573732027582720746F20657838
S11304E06974206F7220454E54455220746F2070F9
S11304F0726F636565640A0A0D000A0D2A2A2A20B0
S113050041646A75737420496E70757420566F6CFB
S113051074616765202A2A2A0A0D004641494C0A5B
S11305200D00504153530A0D000A0A0A0A0D426F86
S113053061726420546573740A0D3D3D3D3D3D3D3B
S11305403D3D3D3D0A0D456E7375726520746865C9
S11305502045585442415420505355206973207308
S1130560657420746F2031342E305620B1302E3112
S1130570560A0D456E737572652074686520494E80
S1130580544241542050535520697320736574209C
S1130590746F2031352E305620B1302E31560A0D6D
S11305A0436F6E6E6563742074686520426F617278
S11305B06420556E64657220546573742028425516
S11305C0542920746F20746865204A69670A0D0AEB
S11305D02A2A2A20444F204E4F5420436F6E6E65C2
S11305E06374204A382061742074686973207374BA
S11305F0616765202A2A2A0A0A0D5475726E2074CE
S113060068652045787465726E616C20505355732B
S1130610204F4E0A0D50726573732027582720749B
S11306206F2065786974206F7220454E54455220BE
S1130630746F2070726F636565640A0A0D000A0A9C
S11306400D5374617274204D454E550A0D3D3D3D68
S11306503D3D3D3D3D3D3D0A0D54202D20426F6101
S1130660726420746573740A0D44202D20446562FD
S11306707567204D656E750A0D3C454E5445523ED6
S11306802D20546F207265667265736820736372DF
S113069065656E0A0A0D0020436F6D6D616E6420FE
S11306A06E6F7420696D706C656D656E7465640A37
S11306B00D000A0A0D45454720426174746572793C
S11306C0204D6F64756C65202D204932432054659C
S11306D0737420536F6674776172650A0D3D3D3DF6
S11306E03D3D3D3D3D3D3D3D3D3D3D3D3D3D3D3D36
S11306F03D3D3D3D3D3D3D3D3D3D3D3D3D3D3D3D26
S11307003D3D3D0A0D544A30303030303420466986
S1130710726D776172652049643A20000A0A0A0AF8
S11307200A0A0A0A0A0A0A0D28632920436F707903
S1130730726967687420546865204D6167737469D1
S11307406D20436F6D70616E79204C74642E20327D
S11307503032350A0A0D004F4646004F4E000A0D4E
S1130760005665722050312E320011241FBECFEF87
S1130770D8E0DEBFCDBF13E0A0E0B1E0E6E5F2E2F1
S113078002C005900D92A230B107D9F724E0A2E08F
S1130790B3E001C01D92A23FB207E1F70E94B30685
S11307A00C9429110C94000010920D03E0910D0398
S11307B0F0E0E45AFE4F808180937C0010927B002D
S11307C080E090E029E0289FF001299FF00D11249A
S11307D0E25FFC4F1082118212821382158214820E
S11307E017821682108601968530910561F78FEC89
S11307F080937A0008951F920F920FB60F921124DE
S11308002F933F938F939F93AF93BF93EF93FF9354
S11308102091780030917900E0910D0380910D03CF
S11308208F5F80930D03853010F010920D03A0911B
S11308300D03B0E0A45ABE4F8C9180937C008FECE2
S113084080937A0089E0E89FF0011124E25FFC4F75
S113085080819181A281B381820F931FA11DB11D5B
S113086080839183A283B383868197810196978342
S113087086838F3F910599F090F0178216828081CC
S11308809181A281B381892F9A2FAB2FBB279583A6
S11308908483108211821282138281E08087FF9107
S11308A0EF91BF91AF919F918F913F912F910F90B5
S11308B00FBE0F901F9018950F931F93CF93DF9344
S11308C08C01C62FD0E089E0689FF0011124E25F1B
S11308D0FC4F8085882399F0A481B581CC0FDD1F5E
S11308E0CC0FDD1FC85BDE4F288139814A815B81D3
S11308F00E941E0ED8018D939C93108681E0DF9197
S1130900CF911F910F910895E82FF0E0EE0FFF1F94
S1130910E050FF4F808191810895CF92DF92EF9252
S1130920FF920F931F93CF93DF9300D0CDB7DEB721
S1130930082F162F10920303109202038FEF9FEFDC
S11309409093050380930403109207031092060307
S1130950109208031092090310920A0310920B03D9
S113096010920C0380910C038117D8F5602FCE01EF
S113097001960E945C048823C9F389819A8120919D
S11309800403309105038217930720F49093050321
S1130990809304032091020330910303281739073D
S11309A020F4909303038093020340910803509131
S11309B0090360910A0370910B036A017B01C80E5D
S11309C0D91EE11CF11CC0920803D0920903E092E5
S11309D00A03F0920B0380910C038F5F80930C0346
S11309E0C1CF212F30E040E050E0609108037091C6
S11309F0090380910A0390910B030E94FC0D30932C
S1130A0007032093060382E093E00F900F90DF9199
S1130A10CF911F910F91FF90EF90DF90CF900895A9
S1130A201092FC031092FB031092FA031092F90344
S1130A301092C50087E68093C40086E08093C200CC
S1130A4088E98093C10008951F920F920FB60F9208
S1130A5011248F939F93EF93FF939091FA038091C6
S1130A60F903981306C08091C1008F7D8093C10063
S1130A7011C0E091F903F0E0EB5BFC4F80818093BF
S1130A80C6008091F9038F5F8093F903843B10F0D3
S1130A901092F903FF91EF919F918F910F900FBEE8
S1130AA00F901F901895F8942091FA0330E08091EC
S1130AB0F9037894482F50E02417350710F42C5488
S1130AC03F4F8D54821B08951F93CF93DF93D82FEC
S1130AD0192FC62F0E9453058C17E0F38091FA0357
S1130AE02D2FED2FF12F9E2F921B9C1758F49191CF
S1130AF0A82FB0E0AB5BBC4F9C938F5F843B98F313
S1130B0080E0F1CFF8948093FA038091C10085FDD1
S1130B1016C0E091F903F0E0EB5BFC4F8081809319
S1130B20C6008091F9038F5F8093F903843B10F032
S1130B301092F9038091C10080628093C10078947F
S1130B4084E0DF91CF911F910895CF93DF93FC014F
S1130B5001900020E9F73197EF01C81BD90B6C2FE6
S1130B600E946405843011F48C2F01C080E0DF9171
S1130B70CF910895CF93C82F1092C1000E94100501
S1130B80EC2FF0E0EE0FFF1FE05DFE4F81818F93AD
S1130B9080818F9381E691E09F938F938BE094E023
S1130BA09F938F930E943F0E0F900F900F900F9082
S1130BB00F900F908BE094E0CF910C94A5052091B9
S1130BC0FA039091F90381E0291380E008951F92BC
S1130BD00F920FB60F9211242F933F934F935F936D
S1130BE06F937F938F939F93AF93BF93EF93FF93F1
S1130BF09091C0008091C600E091FC03F0E0E55CB8
S1130C00FC4F80838091FC038F5F8093FC038A30C8
S1130C1010F01092FC03892F8C7159F094FF02C0DC
S1130C2080E005C093FF02C081E001C082E00E9421
S1130C30BA05FF91EF91BF91AF919F918F917F91F1
S1130C406F915F914F913F912F910F900FBE0F9035
S1130C501F9018953091FC032091FB033217A9F0E3
S1130C60F894E091FB03F0E0E55CFC4F2081FC018B
S1130C7020838091FB038F5F8093FB038A3010F005
S1130C801092FB03789484E0089580E00895CF9354
S1130C90DF931F92CDB7DEB78FEF9FEF2091BC009B
S1130CA02983298127FD02C00197C1F70F90DF91A5
S1130CB0CF9108958CE08093B800ECEBF0E0808154
S1130CC0846080830895FF920F931F93CF93DF93E3
S1130CD0C82F162FF42E052F84EA8093BC000E949F
S1130CE04706CC0FC093BB0084E88093BC000E94ED
S1130CF04706CF2DD02FCE01810F911D8C0184E8A2
S1130D00F82EC017D10741F089918093BB00F0926F
S1130D10BC000E944706F5CF8091B90094E99093F6
S1130D20BC00DF91CF911F910F91FF900895109215
S1130D30B800ECEBF0E080818B7F80830895579AB4
S1130D405F985F9A5F985F9A5F985F9A5F988EE06A
S1130D5080937E0087E084B985B1887F85B984E07B
S1130D608AB95A9A08950E949F060E948B0D0E9488
S1130D7010050E94D4030E941F0D0E94580DFDCF40
S1130D80982F83B1913049F020F0923049F481706A
S1130D90089582FB882780F90895869581700895C7
S1130DA00895813051F018F0823069F0089561306F
S1130DB011F42A9A08952A980895613011F4299A11
S1130DC0089529980895613011F4289A089528986F
S1130DD00895909301048093000487E793E090932F
S1130DE0FF038093FE0385EE9CE0909303048093BD
S1130DF002048AEF99E09093050480930404089513
S1130E008FED91E00E94A5058EE396E09093FF0399
S1130E108093FE038BE39AE090930304809302048F
S1130E208AEF99E090930504809304040895CF9386
S1130E30DF9300D000D01F92CDB7DEB70E945A06D0
S1130E4081E08093FD031F928F9381E092E09F9352
S1130E508F938BE094E09F938F930E943F0E8BE0DF
S1130E6094E00E94A50581E189838091FD038A8332
S1130E70AE014F5F5F4F62E080E10E946306109213
S1130E80FF031092FE038DEC9AE090930304809389
S1130E9002048AEF99E090930504809304040F9070
S1130EA00F900F900F900F900F900F900F900F9046
S1130EB00F900F90DF91CF91089580E00E94C006BB
S1130EC0813019F48BE597E002C087E597E00E9432
S1130ED07E0D9F938F9382E192E09F938F938BE09B
S1130EE094E09F938F930E943F0E8BE094E00E94C6
S1130EF0A50581E00E94C0060F900F900F900F90FF
S1130F000F900F90813019F48BE597E002C087E5CC
S1130F1097E00E947E0D9F938F9380E292E09F93CF
S1130F208F938BE094E09F938F930E943F0E8BE00E
S1130F3094E00E94A50582E00E94C0060F900F90E5
S1130F400F900F900F900F90813019F48BE597E07C
S1130F5002C087E597E00E947E0D9F938F938EE2F7
S1130F6092E09F938F938BE094E09F938F930E94E2
S1130F703F0E8BE094E00E94A50588E690E09093F4
S1130F80FF038093FE038FE999E090930304809319
S1130F9002048AEF99E090930504809304040F906F
S1130FA00F900F900F900F900F900895CF92DF92B3
S1130FB0EF92FF921F93CF93DF9300D0CDB7DEB7AC
S1130FC010E08CE3E82E82E0F82E9BE0C92E94E03A
S1130FD0D92E612FCE0101960E945C04811117C0A5
S1130FE01F5F1530B1F760E073E08BE094E00E947E
S1130FF0380E8BE094E00E94A5050F900F90DF91CE
S1131000CF911F91FF90EF90DF90CF9008958A8148
S11310108F9389818F93FF92EF92DF92CF920E94F8
S11310203F0E8BE094E00E94A5050F900F900F9067
S11310300F900F900F900E94DF058823E1F3D0CF2B
S1131040CF92DF92EF92FF920F931F93CF93DF9390
S1131050F82EEB0168E00E948D046C01FC01148100
S113106005818F2D0E9484040F931F939F938F9368
S113107082E492E09F938F930BE014E01F930F930D
S11310800E943F0EC8010E94A505F6012481358106
S1131090888199814A815B81BC01640F751FEDB71A
S11310A0FEB738960FB6F894FEBF0FBEEDBF6217B9
S11310B0730738F58BE195E00E947E0D0E94A5052B
S11310C0DA80CB80E880C9818F2D0E948404CF927E
S11310D0DF92CF93EF929F938F938FE492E09F934D
S11310E08F931F930F930E943F0EC8010E94A50582
S11310F08DB79EB70A960FB6F8949EBF0FBE8DBFEC
S11311002CC0841B950B2817390748F58BE195E013
S11311100E947E0D0E94A505CA80EB80D880C981FB
S11311208F2D0E948404EF92CF92CF93DF929F93EE
S11311308F9380E892E09F938F931F930F930E9465
S11311403F0E8BE094E00E94A505EDB7FEB73A96FA
S11311500FB6F894FEBF0FBEEDBF80E007C082E279
S113116095E00E947E0D0E94A50581E0DF91CF915C
S11311701F910F91FF90EF90DF90CF900895CF9340
S1131180DF9300D000D0CDB7DEB7809144019091B9
S113119045019A83898388EC90E09C838B8360E08B
S11311A081E00E94D1068AEF90E00E94BB0D61E0CD
S11311B080E00E94D1068AEF90E00E94BB0D64E4B7
S11311C071E080E00E942008811107C08AEF94E05A
S11311D00E947E0D0E94A50520C06CE371E084E0AE
S11311E00E9420088823C9F0BE016F5F7F4F83E00F
S11311F00E942008882389F01092FF031092FE03B6
S11312008CE199E090930304809302048AEF99E0BF
S1131210909305048093040404C08FEB98E00E942B
S1131220E90660E080E00E94D1060F900F900F90D5
S11312300F90DF91CF910895CF93DF9300D000D02A
S1131240CDB7DEB780914001909141019A838983A3
S113125088EC90E09C838B8360E080E00E94D10660
S11312608AEF90E00E94BB0D61E081E00E94D1060C
S11312708AEF90E00E94BB0D60E471E081E00E947F
S11312802008811107C08AEF94E00E947E0D0E941D
S1131290A50522C06CE371E084E00E942008882345
S11312A0D9F0BE016F5F7F4F83E00E94200888233E
S11312B099F088EA94E09093FF038093FE0383E817
S11312C09BE090930304809302048AEF99E0909347
S11312D005048093040404C08CE199E00E94E906AB
S11312E060E081E00E94D1060F900F900F900F9064
S11312F0DF91CF9108951F93CF93DF931F92CDB7C2
S1131300DEB7182FCE0101960E942A06882391F099
S1131310112379F089818D3039F48EE597E00E94AC
S11313207E0D0E94A50505C061E0CE0101960E94D4
S1131330640589810F90DF91CF911F91089581E019
S11313400E947B09811102C00C94D607883581F173
S113135038F48934C9F0803511F1853491F50BC026
S1131360893691F018F4853631F02BC08037B9F006
S11313708837F1F026C080E00E94C00661E0813029
S113138009F460E080E008C081E00E94C00661E0EA
S1131390813009F460E081E00E94D10618C082E047
S11313A00E94C00661E0813009F460E082E0F4CF7D
S11313B08EEA92E09093FF038093FE0385E79AE020
S11313C00EC087E996E00E947E0D0E94A50584ED7B
S11313D090E09093FF038093FE038DE597E0909354
S11313E00304809302048AEF99E0909305048093A8
S11313F004040895CF93DF938091FE039091FF033B
S1131400009771F10E94720DEC01833B910510F07D
S1131410C2EBD0E00E94530590E08C179D07D0F3F7
S1131420BE018091FE039091FF030E94600D209104
S1131430FE033091FF032C0F3D1F3093FF032093D5
S1131440FE036C2F0E946405E091FE03F091FF03FC
S1131450E491E1110DC01092FF031092FE0308C045
S113146080910204909103049093050480930404F2
S1131470DF91CF91089581E00E947B098823A1F137
S1131480843541F018F4843471F016C0843659F070
S1131490843791F489E295E09093FF038093FE03EF
S11314A08BE49BE017C08EEA92E09093FF03809355
S11314B0FE0385E79AE00EC087E996E00E947E0D60
S11314C00E94A5058EE396E09093FF038093FE03AC
S11314D08BE39AE090930304809302048AEF99E0EB
S11314E09093050480930404089581E00E947B098D
S11314F0882309F451C0883529F138F48334C9F0BC
S1131500893449F1813481F50BC0833691F018F4A4
S1131510813631F029C08936F1F0883799F024C03A
S11315208CE191E09093FF038093FE038DE29BE0B6
S113153029C084ED90E09093FF038093FE038DE532
S113154097E020C08EE396E09093FF038093FE0320
S11315508BE39AE017C08DE891E09093FF038093AA
S1131560FE0387E197E00EC087E996E00E947E0DB6
S11315700E94A5058EEA92E09093FF038093FE03F8
S113158085E79AE090930304809302048AEF99E03C
S113159090930504809304040895CF93DF9300D0BF
S11315A000D01F92CDB7DEB780E00E947B0988236C
S11315B009F44BC08D3201F130F48B3211F5809176
S11315C0FD038F5F1CC0883511F08837D1F40E9469
S11315D097068EEA92E09093FF038093FE0385E7DB
S11315E09AE090930304809302048AEF99E0909325
S11315F005048093040429C08091FD0381508093E5
S1131600FD038091FD031F928F9381E092E09F93ED
S11316108F938BE094E09F938F930E943F0E8BE017
S113162094E00E94A50581E189838091FD038A836A
S1131630AE014F5F5F4F62E080E10E9463060F904E
S11316400F900F900F900F900F900F900F900F909E
S11316500F900F90DF91CF9108950E94D60781E0FB
S11316600E947B098823B1F0883511F0883791F402
S11316708EEA92E09093FF038093FE0385E79AE05D
S113168090930304809302048AEF99E090930504F5
S113169080930404089581E00E947B09882391F1DA
S11316A08D3089F018F48A3071F014C0883511F047
S11316B0883781F48EE396E09093FF038093FE03D2
S11316C08BE39AE015C01092FF031092FE038FEB98
S11316D098E00EC087E996E00E947E0D0E94A50561
S11316E089E295E09093FF038093FE038BE49BE0F3
S11316F090930304809302048AEF99E09093050485
S113170080930404089581E00E947B09882391F169
S11317108D3089F018F48A3071F014C0883511F0D6
S1131720883781F48EE396E09093FF038093FE0361
S11317308BE39AE015C01092FF031092FE038BEB2B
S11317409BE00EC087E996E00E947E0D0E94A505ED
S113175088EA94E09093FF038093FE0383E89BE080
S113176090930304809302048AEF99E09093050414
S113177080930404089568E371E082E00E942008E5
S1131780811108C08BEB9BE00E94E90660E081E0D8
S11317900C94D1066CE371E084E00E942008882355
S11317A089F383E294E09093FF038093FE0383EF35
S11317B09BE090930304809302048AEF99E0909352
S11317C005048093040461E080E00E94D1068AEF5E
S11317D090E00E94BB0D61E081E00E94D1068AEF97
S11317E090E00C94BB0DCF93DF9300D000D000D0D9
S11317F0CDB7DEB781E00E947B098111B8C060E0FB
S1131800CE0105960E945C048823C9F361E0CE01F1
S113181003960E945C048823C9F363E0CE01019619
S11318200E945C048823C9F38C818F938B818F93EE
S11318308A818F9389818F938E818F938D818F93EA
S113184080EB92E09F938F938BE094E09F938F9330
S11318500E943F0E8BE094E00E94A5058D819E813D
S113186029813A81AC01445651090FB6F894DEBF80
S11318700FBECDBF2417350770F048535F4F421792
S1131880530748F024393A4208F096C088E493E0BC
S11318900E947E0D65C04B815C81BA01645671095A
S11318A02617370708F488C04C595F4F421753076F
S11318B008F482C09C0125593A422735324048F544
S11318C09F938F9386EC92E09F938F938BE094E0A9
S11318D09F938F930E943F0E8BE094E00E94A50596
S11318E08FE993E09093FF038093FE0380E097E0F9
S11318F090930304809302048AEF99E09093050483
S1131900809304040F900F900F900F900F900F90FE
S113191053C089E193E00E947E0D0E94A5058C814D
S11319208F938B818F938A818F9389818F938E81FB
S11319308F938D818F938FED92E09F938F938BE0A4
S113194094E09F938F930E943F0E0FB6F894DEBFEE
S11319500FBECDBF0E94DF058823E1F38BE094E046
S11319600E94A50583EF9BE00E94E90625C0883507
S113197011F0883749F48EE396E09093FF03809347
S1131980FE038BE39AE00EC087E996E00E947E0D89
S11319900E94A50583E294E09093FF038093FE03E5
S11319A083EF9BE090930304809302048AEF99E011
S11319B0909305048093040426960FB6F894DEBF32
S11319C00FBECDBFDF91CF91089581E00E947B09C6
S11319D08823A1F18D3089F018F48A3071F016C093
S11319E0883511F0883791F48EE396E09093FF03E5
S11319F08093FE038BE39AE017C0809100049091DA
S1131A0001041092FF031092FE030EC087E996E0D2
S1131A100E947E0D0E94A50587E793E09093FF0343
S1131A208093FE0385EE9CE090930304809302046C
S1131A308AEF99E0909305048093040408958CE15F
S1131A4097E00E947E0D0E94A50582EB96E00E941D
S1131A507E0D0E94A5050E94F90D0E947E0D9F93A4
S1131A608F938CEF92E09F938F938BE094E09F93FE
S1131A708F930E943F0E8BE094E00E94A5058EE3B5
S1131A8096E09093FF038093FE038BE39AE0909398
S1131A900304809302048AEF99E0909305048093F1
S1131AA004040F900F900F900F900F900F900895D3
S1131AB0E0910404F0910504309709F00994089525
S1131AC0ADE3B4E020E030E02617370741F0FC0135
S1131AD0E20FF31FE491ED932F5F3F4FF5CF8DE3BA
S1131AE094E008959C0180E090E0F901E80FF91F6B
S1131AF0E491EE2311F00196F8CF0895CF93DF938C
S1131B00EC010E94720DBC016F5F7F4FCE01DF912B
S1131B10CF910C94600D10920A0410920904109253
S1131B2008041092070410920604089590930A047E
S1131B3080930904109208041092070410928500FF
S1131B40109284008AEF90E090938900809388003B
S1131B50EFE6F0E0808182608083E1E8F0E080815C
S1131B6083608083089580910604882319F010927D
S1131B70060481E008950E94960D0E94B30D882307
S1131B80E1F308951F920F920FB60F9211242F9331
S1131B903F938F939F93809107049091080401963B
S1131BA090930804809307042091090430910A0457
S1131BB08217930759F41092810080916F008D7FF2
S1131BC080936F0081E0809306040AC080918800AE
S1131BD09091890086509F4F90938900809388004C
S1131BE09F918F913F912F910F900FBE0F901F9057
S1131BF0189581E697E00895A1E21A2EAA1BBB1B53
S1131C00FD010DC0AA1FBB1FEE1FFF1FA217B307C4
S1131C10E407F50720F0A21BB30BE40BF50B661FDA
S1131C20771F881F991F1A9469F76095709580959E
S1131C3090959B01AC01BD01CF0108950E94290E2E
S1131C40A59F900DB49F900DA49F800D911D11240C
S1131C500895A29FB001B39FC001A39F700D811D81
S1131C601124911DB29F700D811D1124911D0895A1
S1131C70FB01DC0101900D920020E1F70895AEE034
S1131C80B0E0E5E4FEE00C9400110D891E8986E0C5
S1131C908C831A8309838FEF9FE79E838D83AE0124
S1131CA0475E5F4F6F89788DCE0101960E94610E69
S1131CB0EF81F885E00FF11F10822E96E4E00C947A
S1131CC01C11ABE0B0E0E7E6FEE00C94F2106C010E
S1131CD07B018A01FC0117821682838181FFCCC1BA
S1131CE0CE0101963C01F6019381F70193FD8591A4
S1131CF093FF81917F01882309F4BAC1853239F4B5
S1131D0093FD859193FF81917F01853229F4B6017A
S1131D1090E00E945810E7CF912C212C312CFFE148
S1131D20F315D8F08B3279F038F4803279F08332BD
S1131D30A1F4232D20611DC08D3261F0803369F43C
S1131D40232D216016C0832D8260382EE32DE4609C
S1131D503E2E2AC0F32DF8601DC037FC2DC020EDA7
S1131D60280F2A3040F08E32B9F436FC81C1232D7D
S1131D702064322E19C036FE06C08AE0989E200DDB
S1131D801124922E11C0EAE02E9E200D1124222E41
S1131D90F32DF0623F2E08C08C3621F4832D806829
S1131DA0382E02C0883641F4F70193FD859193FFE4
S1131DB081917F018111B3CF982F9F7D95549330EA
S1131DC028F40C5F1F4F9FE399830DC0833631F0D5
S1131DD0833771F0833509F059C021C0F80180813F
S1131DE089830E5F1F4F88248394912C530113C061
S1131DF02801F2E04F0E511CF801A080B18036FE9C
S1131E0003C0692D70E002C06FEF7FEFC5010E942F
S1131E104D104C018201F32DFF773F2E16C028018F
S1131E2022E0420E511CF801A080B18036FE03C0AE
S1131E30692D70E002C06FEF7FEFC5010E94421070
S1131E404C01F32DF0683F2E820133FC1BC0822D20
S1131E5090E088169906B0F4B60180E290E00E9402
S1131E6058102A94F4CFF50137FC859137FE8191FF
S1131E705F01B60190E00E94581021102A9421E0DD
S1131E80821A91088114910471F7E8C0843611F024
S1131E90893641F5F80137FE07C06081718182817E
S1131EA093810C5F1F4F08C060817181072E000C65
S1131EB0880B990B0E5F1F4FF32DFF763F2E97FF74
S1131EC009C090958095709561957F4F8F4F9F4F76
S1131ED0F0683F2E2AE030E0A3010E949410882E7F
S1131EE0861845C0853731F4232D2F7EB22E2AE083
S1131EF030E025C0932D997FB92E8F36C1F018F4A8
S1131F00883579F0B5C0803719F0883721F0B0C032
S1131F10E92FE061BE2EB4FE0DC0FB2DF460BF2E90
S1131F2009C034FE0AC0292F2660B22E06C028E05C
S1131F3030E005C020E130E002C020E132E0F801E9
S1131F40B7FE07C060817181828193810C5F1F4F4E
S1131F5006C06081718180E090E00E5F1F4FA30195
S1131F600E949410882E8618FB2DFF773F2E36FE94
S1131F700DC0232D2E7FA22E891458F434FE0BC0DD
S1131F8032FC09C0832D8E7EA82E05C0B82CA32C4C
S1131F9003C0B82C01C0B92CA4FE0FC0FE01E80D8B
S1131FA0F11D8081803321F49A2D997EA92E09C0D8
S1131FB0A2FE06C0B394B39404C08A2D867809F0B7
S1131FC0B394A3FC11C0A0FE06C0B21488F4280C7C
S1131FD0922C9B180EC0B21460F4B60180E290E01B
S1131FE00E945810B394F7CFB21418F42B1802C0FF
S1131FF0982C212CA4FE10C0B60180E390E00E942E
S11320005810A2FE17C0A1FC03C088E790E002C0EC
S113201088E590E0B6010CC08A2D867859F0A1FEBF
S113202002C08BE201C080E2A7FC8DE2B60190E021
S11320300E945810891438F4B60180E390E00E949D
S113204058109A94F7CF8A94F301E80DF11D80811A
S1132050B60190E00E9458108110F5CF222009F4B7
S113206042CEB60180E290E00E9458102A94F6CF46
S1132070F6018681978102C08FEF9FEF2B96E2E1F4
S11320800C940E11FC010590615070400110D8F7BA
S1132090809590958E0F9F1F0895FC0161507040AC
S11320A001900110D8F7809590958E0F9F1F089589
S11320B00F931F93CF93DF93FB01238121FD03C073
S11320C08FEF9FEF2CC022FF16C0468157812481D9
S11320D035814217530744F4A081B1819D012F5FDC
S11320E03F4F318320838C93268137812F5F3F4F6D
S11320F03783268314C08B01EC01FB010084F18536
S1132100E02D0995892BE1F6D80116968D919C91C5
S11321101797019617969C938E931697CE01DF918D
S1132120CF911F910F910895FA01AA27283051F1F8
S1132130203181F1E8946F936E7F6E5F7F4F8F4FF4
S11321409F4FAF4FB1E03ED0B4E03CD0670F781F53
S1132150891F9A1FA11D680F791F8A1F911DA11D38
S11321606A0F711D811D911DA11D20D009F4689471
S11321703F912AE0269F11243019305D3193DEF619
S1132180CF010895462F4770405D4193B3E00FD0CF
S1132190C9F7F6CF462F4F70405D4A3318F0495DBA
S11321A031FD4052419302D0A9F7EACFB4E0A6959D
S11321B09795879577956795BA95C9F700976105BF
S11321C0710508959B01AC010A2E06945795479515
S11321D037952795BA95C9F7620F731F841F951F0A
S11321E0A01D08952F923F924F925F926F927F921B
S11321F08F929F92AF92BF92CF92DF92EF92FF9213
S11322000F931F93CF93DF93CDB7DEB7CA1BDB0BBE
S11322100FB6F894DEBF0FBECDBF09942A88398863
S113222048885F846E847D848C849B84AA84B9846A
S1132230C884DF80EE80FD800C811B81AA81B98176
S1132240CE0FD11D0FB6F894DEBF0FBECDBFED018A
S10922500895F894FFCF8D
S1132256290122011B0112010A01335633204F556D
S1132266540056424154204F5554002B35562049AC
S11322764E00494E5442415400455854424154007C
S113228677018E01AA01C0018813C800E40C9600E8
S1132296983A6400B0366400E8A30F00E8A30F0080
S11322A6F4D10700E8A30F00FAE8030001020306CD
S11322B6070A0A0D53595354454D204552524F525D
S11322C60A0D25730A0D000A0D53657269616C20A7
S11322D64672616D696E67204572726F72000A0DEF
S11322E653657269616C2044617461204F7665722E
S11322F672756E204572726F72000A0D53657269AB
S1132306616C20506172697479204572726F720033
S11323160A0D53657269616C2054582062756620F3
S11323266F766572666C6F77204572726F72000AFB
S11323360D204E6F7720646F20557070657220747F
S113234668726573686F6C642073747566660A0DCB
S113235600446973706C6179696E67202530327840
S11323660D00455854424154203D2025730A0D0062
S1132376494E54424154203D2025730A0D005046CF
S11323864C4F4144203D2025730A0D00202530354D
S113239675002573203D2025756D56202D20000AD5
S11323A60A0D2A2A2A20257320566F6C74616765E4
S11323B620746F6F2068696768202D2025756D5617
S11323C6202B2F2D2025756D56202A2A2A0A0D002A
S11323D60A0A0D2A2A2A20257320566F6C7461670F
S11323E66520746F6F206C6F77202D2025756D56D0
S11323F6202B2F2D2025756D56202A2A2A0A0D00FA
S113240620202530357520202025303575202020C4
S1132416253035750D000A0A0D5468726573686FA8
S11324266C64204F4B20402025756D560A0D000A1A
S11324360D453D202530357520563D202530357512
S11324462049203D20253035750A0D0025730A0ADA
S10524560D0073
S9030000FC
