S0130000544A3030303030345F53572E7372656346
S11300000C94C5030C94E2030C94E2030C94E203F5
S11300100C94E2030C94E2030C94E2030C94E203C8
S11300200C94E2030C94E2030C94E2030C94C30ECC
S11300300C94E2030C94E2030C94E2030C94E203A8
S11300400C94E2030C94E2030C9402060C943F0516
S11300500C94E2030C940B040C94E2030C94E2035E
S11300600C94E2030C94E2030A0D45202D20546FF6
S113007067676C6520455854424154207374617419
S113008075730A0D49202D20546F67676C652049EC
S11300904E54424154207374617475730A0D502098
S11300A02D20546F67676C6520506F6C796675738B
S11300B065204C6F6164207374617475730A0D0A52
S11300C00D5072657373205820746F2065786974BD
S11300D00A0A0D000A0A0A0A0D492F4F20436F6EBF
S11300E074726F6C204465627567204D656E750A85
S11300F00D3D3D3D3D3D3D3D3D3D3D3D3D3D3D3D5C
S11301003D3D3D3D3D3D3D0A0A0D43757272656EB0
S113011074205374617475733A0A0D000A0A0A0A4A
S11301200D4144432044656275670A0D3D3D3D3DE4
S11301303D3D3D3D3D0A0A0D0A0D50726573732025
S11301405820746F20657869740A0A0D0A0D2020FE
S1130150202020416C6C204461746120696E206D04
S1130160696C6C69766F6C74730A0D0A0D202045F6
S11301705854202020494E542020202B355620202E
S1130180204F55542020203356330A0D000A0A0A02
S11301900A0D49324320546573740A0D3D3D3D3DBB
S11301A03D3D3D3D0A0A0D456E73757265207468C8
S11301B065204D6F64756C652069732050726F679C
S11301C072616D6D65642061732061204D6173748B
S11301D065720A0D436F6E6E6563742074686520E2
S11301E0546F7563682050616E656C204C434420E5
S11301F0746F20746865204D6F64756C6520616E42
S11302006420737769746368204F4E0A0A0D54683A
S11302106520272B27206B65792077696C6C206912
S11302206E6372656D656E742074686520414D500F
S113023020434F44452076616C7565206469737072
S11302406C6179656420627920310A0D54686520F7
S1130250272D27206B65792077696C6C2064656392
S113026072656D656E742074686520414D5020433D
S11302704F44452076616C756520646973706C61C8
S113028079656420627920310A0D50726573732098
S113029027582720746F2072657475726E20746FEE
S11302A02054657374204D656E750A0A0D000A0AA0
S11302B00A0A0D4445425547204D454E550A0D3D09
S11302C03D3D3D3D3D3D3D3D3D3D3D3D0A0D4120D6
S11302D02D2041444320746573740A0D43202D205E
S11302E0492F4F20436F6E74726F6C207465737462
S11302F00A0D49202D2049324320746573740A0D78
S113030058202D204578697420746F2053746172CD
S113031074204D656E750A0D000A0A0D2A2A2A20DA
S1130320555050455220535749544348494E47204D
S11303305448524553484F4C44204552524F522042
S11303402A2A2A0A0A0D000A0A0D2A2A2A204C4FB0
S113035057455220535749544348494E472054481F
S1130360524553484F4C44204552524F52202A2A5A
S11303702A0A0A0D000A0D50726573732027582744
S113038020746F2065786974206F7220454E54453F
S11303905220746F2052657472790A0D000A0D534D
S11303A06C6F776C7920496E637265617365207434
S11303B06865207468652045585442415420766F1E
S11303C06C7461676520756E74696C2061204D657D
S11303D0737361676520617070656172730A0D5093
S11303E0726573732027582720746F2065786974A9
S11303F0206F7220454E54455220746F2070726FE6
S1130400636565640A0A0D2020455854424154200E
S1130410205642415420202020494E544241540A3F
S11304200D000A0D536C6F776C7920446563726517
S1130430617365207468652074686520455854426A
S1130440415420766F6C7461676520756E74696CB5
S11304502061204D6573736167652061707065610B
S113046072730A0D50726573732027582720746FB6
S11304702065786974206F7220454E54455220746B
S11304806F2070726F636565640A0A0D20204558F9
S11304905442415420205642415420202020494EA9
S11304A0544241540A0D000A0D2A2A2A2054555256
S11304B04E20544845202B355620504F5745522046
S11304C0535749544348204F4E202A2A2A0A0D5094
S11304D0726573732027582720746F2065786974B8
S11304E0206F7220454E54455220746F2070726FF5
S11304F0636565640A0A0D000A0D2A2A2A204164EC
S11305006A75737420496E70757420566F6C7461CB
S11305106765202A2A2A0A0D004641494C0A0D0023
S1130520504153530A0D000A0A0A0A0D426F6172C0
S11305306420546573740A0D3D3D3D3D3D3D3D3D94
S11305403D3D0A0D456E73757265207468652045DE
S11305505854424154205053552069732073657494
S113056020746F2031342E305620B1302E31560A8B
S11305700D456E737572652074686520494E54424A
S11305804154205053552069732073657420746F4F
S11305902031352E305620B1302E31560A0D436F9E
S11305A06E6E6563742074686520426F61726420A6
S11305B0556E64657220546573742028425554291D
S11305C020746F20746865204A69670A0D0A2A2A14
S11305D02A20456E7375726520746865202B355624
S11305E020506F776572205377697463682069734C
S11305F0204F4646206174207468697320737461C7
S11306006765202A2A2A0A0A0D5475726E207468B6
S1130610652045787465726E616C20505355732063
S11306204F4E0A0D50726573732027582720746F3C
S11306302065786974206F7220454E5445522074A9
S11306406F2070726F636565640A0A0D000A0A0DF3
S11306505374617274204D454E550A0D3D3D3D3D28
S11306603D3D3D3D3D3D0A0D54202D20426F6172BC
S11306706420746573740A0D44202D2044656275EA
S113068067204D656E750A0D3C454E5445523E2D0E
S113069020546F2072656672657368207363726597
S11306A0656E0A0A0D0020436F6D6D616E64206EE5
S11306B06F7420696D706C656D656E7465640A0D88
S11306C0000A0A0D45454720426174746572792019
S11306D04D6F64756C65202D204932432054657339
S11306E07420536F6674776172650A0D3D3D3D3D1C
S11306F03D3D3D3D3D3D3D3D3D3D3D3D3D3D3D3D26
S11307003D3D3D3D3D3D3D3D3D3D3D3D3D3D3D3D15
S11307103D3D0A0D544A3030303030342046697241
S11307206D776172652049643A20000A0A0A0A0A50
S11307300A0A0A0A0A0A0D28632920436F7079728B
S11307406967687420546865204D61677374696DC6
S113075020436F6D70616E79204C74642E203230AA
S113076032350A0A0D000A0A0A0A0A0A0A0A0A0A99
S11307700A0A0A0A0A0D004F4646004F4E000A0DA7
S1130780005665722050312E330011241FBECFEF66
S1130790D8E0DEBFCDBF13E0A0E0B1E0E8E5F4E2CD
S11307A002C005900D92A433B107D9F725E0A4E364
S11307B0B3E001C01D92A432B207E1F70E94CE0655
S11307C00C942A120C94000010923F03E0913F0312
S11307D0F0E0E45AFE4F808180937C0010927B000D
S11307E080E090E029E0289FF001299FF00D11247A
S11307F0E05CFC4F108211821282138215821482F3
S113080017821682108601968530910561F78FEC68
S113081080937A0008951F920F920FB60F921124BD
S11308202F933F938F939F93AF93BF93EF93FF9334
S11308302091780030917900E0913F0380913F034B
S11308408F5F80933F03853010F010923F03A09197
S11308503F03B0E0A45ABE4F8C9180937C008FEC90
S113086080937A0089E0E89FF0011124E05CFC4F5A
S113087080819181A281B381820F931FA11DB11D3B
S113088080839183A283B383868197810196978322
S1130890868380389105A8F0178216828081918121
S11308A0A281B38127E0B695A795979587952A9558
S11308B0D1F795838483108211821282138281E09E
S11308C08087FF91EF91BF91AF919F918F913F915D
S11308D02F910F900FBE0F901F9018950F931F9399
S11308E0CF93DF938C01C62FD0E089E0689FF0019D
S11308F01124E05CFC4F80858823E1F0A481B5815C
S1130900CC0FDD1FCC0FDD1FC85BDE4F2881398182
S11309104A815B810E941F0FDC01CB012FE0B69559
S1130920A795979587952A95D1F7E80199838883A8
S1130930108681E0DF91CF911F910F910895E82FE8
S1130940F0E0EE0FFF1FE050FF4F8081918108958A
S1130950CF92DF92EF92FF920F931F93CF93DF9387
S113096000D0CDB7DEB7082F162F109235031092A2
S113097034038FEF9FEF90933703809336031092E5
S113098039031092380310923A0310923B031092E9
S11309903C0310923D0310923E0380913E03811765
S11309A0D8F5602FCE0101960E946E048823C9F306
S11309B089819A81209136033091370382179307F6
S11309C020F49093370380933603209134033091BD
S11309D035032817390720F49093350380933403A3
S11309E040913A0350913B0360913C0370913D0365
S11309F06A017B01C80ED91EE11CF11CC0923A03A6
S1130A00D0923B03E0923C03F0923D0380913E037D
S1130A108F5F80933E03C1CF212F30E040E050E050
S1130A2060913A0370913B0380913C0390913D03A4
S1130A300E94FD0E309339032093380384E393E03E
S1130A400F900F90DF91CF911F910F91FF90EF9036
S1130A50DF90CF90089510922E0410922D041092DE
S1130A602C0410922B041092C50087E68093C400D6
S1130A7086E08093C20088E98093C10008951F92A4
S1130A800F920FB60F9211248F939F93EF93FF93BE
S1130A9090912C0480912B04981306C08091C1007E
S1130AA08F7D8093C10011C0E0912B04F0E0E958E0
S1130AB0FC4F80818093C60080912B048F5F8093CC
S1130AC02B04843B10F010922B04FF91EF919F9123
S1130AD08F910F900FBE0F901F901895F89420914E
S1130AE02C0430E080912B047894482F50E0241794
S1130AF0350710F42C543F4F8D54821B08951F93D7
S1130B00CF93DF93D82F192FC62F0E946E058C1711
S1130B10E0F380912C042D2FED2FF12F9E2F921BAB
S1130B209C1758F49191A82FB0E0A958BC4F9C93FE
S1130B308F5F843B98F380E0F1CFF89480932C048A
S1130B408091C10085FD16C0E0912B04F0E0E958C6
S1130B50FC4F80818093C60080912B048F5F80932B
S1130B602B04843B10F010922B048091C10080620E
S1130B708093C100789484E0DF91CF911F91089510
S1130B80CF93DF93FC0101900020E9F73197EF0147
S1130B90C81BD90B6C2F0E947F05843011F48C2F55
S1130BA001C080E0DF91CF910895CF93C82F1092B8
S1130BB0C1000E942B05EC2FF0E0EE0FFF1FE05D5B
S1130BC0FE4F81818F9380818F9381E691E09F9383
S1130BD08F938DE394E09F938F930E94400F0F9027
S1130BE00F900F900F900F900F908DE394E0CF91A2
S1130BF00C94C00520912C0490912B0481E02913BE
S1130C0080E008951F920F920FB60F9211242F9334
S1130C103F934F935F936F937F938F939F93AF9380
S1130C20BF93EF93FF939091C0008091C600E09131
S1130C302E04F0E0E359FC4F808380912E048F5FF3
S1130C4080932E048A3010F010922E04892F8C7118
S1130C5059F094FF02C080E005C093FF02C081E018
S1130C6001C082E00E94D505FF91EF91BF91AF9141
S1130C709F918F917F916F915F914F913F912F91B0
S1130C800F900FBE0F901F90189530912E04209155
S1130C902D043217A9F0F894E0912D04F0E0E35903
S1130CA0FC4F2081FC01208380912D048F5F809371
S1130CB02D048A3010F010922D04789484E0089565
S1130CC080E00895CF93DF931F92CDB7DEB78FEF07
S1130CD09FEF2091BC002983298127FD02C0019741
S1130CE0C1F70F90DF91CF9108958CE08093B80005
S1130CF0ECEBF0E08081846080830895FF920F9391
S1130D001F93CF93DF93C82F162FF42E052F84EA59
S1130D108093BC000E946206CC0FC093BB0084E8A1
S1130D208093BC000E946206CF2DD02FCE01810F8C
S1130D30911D8C0184E8F82EC017D10741F08991E8
S1130D408093BB00F092BC000E946206F5CF8091B4
S1130D50B90094E99093BC00DF91CF911F910F915A
S1130D60FF9008951092B800ECEBF0E080818B7F47
S1130D7080830895579A5F985F9A5F985F9A5F9807
S1130D805F9A5F988EE080937E0087E084B985B196
S1130D90887F85B984E08AB95A9A08950E94BA0670
S1130DA00E948C0E0E942B050E94E4030E94200ED8
S1130DB00E94590EFDCF982F83B1913049F020F055
S1130DC0923049F48170089582FB882780F9089550
S1130DD08695817008950895813051F018F082301D
S1130DE069F00895613011F42A9A08952A980895B3
S1130DF0613011F4299A089529980895613011F405
S1130E00289A08952898089590933304809332047F
S1130E1085E793E0909331048093300486EE9DE05F
S1130E20909335048093340487E99AE090933704CF
S1130E3080933604089580E00E94DB06813019F423
S1130E408BE797E002C087E797E00E947F0E9F93AD
S1130E508F938FED91E09F938F938DE394E09F9315
S1130E608F930E94400F8DE394E00E94C00581E0BF
S1130E700E94DB060F900F900F900F900F900F9031
S1130E80813019F48BE797E002C087E797E00E946E
S1130E907F0E9F938F938DEE91E09F938F938DE3BD
S1130EA094E09F938F930E94400F8DE394E00E94FF
S1130EB0C00582E00E94DB060F900F900F900F9008
S1130EC00F900F90813019F48BE797E002C087E709
S1130ED097E00E947F0E9F938F938BEF91E09F93F7
S1130EE08F938DE394E09F938F930E94400F8DE343
S1130EF094E00E94C00588E690E0909331048093CA
S1130F0030048CE39AE0909335048093340487E9A9
S1130F109AE090933704809336040F900F900F90CB
S1130F200F900F900F900895CF93DF9300D000D0CF
S1130F301F92CDB7DEB70E94750681E080932F041F
S1130F401F928F9389E092E09F938F938DE394E0B7
S1130F509F938F930E94400F8DE394E00E94C005FD
S1130F6081E1898380912F048A83AE014F5F5F4FB3
S1130F7062E080E10E947E061092310410923004F7
S1130F8080E39BE0909335048093340487E99AE0EE
S1130F9090933704809336040F900F900F900F9026
S1130FA00F900F900F900F900F900F900F90DF9174
S1130FB0CF910895EF92FF920F931F93CF93DF93F6
S1130FC0EC017B018A0160E0CE010E946E0488235B
S1130FD0D1F361E0C7010E946E048823D1F363E07A
S1130FE0C8010E946E048823D1F3F70181818F9395
S1130FF080818F93F80181818F9380818F93898180
S11310008F9388818F938AE192E09F938F938DE3EE
S113101094E09F938F930E94400F8DB79EB70A96DA
S11310200FB6F8949EBF0FBE8DBF8DE394E0DF91A1
S1131030CF911F910F91FF90EF900C94C005CF9228
S1131040DF92EF92FF921F93CF93DF9300D0CDB73F
S1131050DEB710E080E3E82E82E0F82E9DE3C92E8F
S113106094E0D92E612FCE0101960E946E04811165
S113107017C01F5F1530B1F761E373E08DE394E0AF
S11310800E94390F8DE394E00E94C0050F900F90E9
S1131090DF91CF911F91FF90EF90DF90CF90089553
S11310A08A818F9389818F93FF92EF92DF92CF92FF
S11310B00E94400F8DE394E00E94C0050F900F90B2
S11310C00F900F900F900F900E94FA058823E1F380
S11310D0D0CFCF92DF92EF92FF920F931F93CF93D3
S11310E0DF93F82EEB0168E00E94A8046C01FC0178
S11310F0148105818F2D0E949F040F931F939F934A
S11311008F9386E392E09F938F930DE314E01F93F4
S11311100F930E94400FC8010E94C005F60124816C
S11311203581888199814A815B81BC01640F751F77
S1131130EDB7FEB738960FB6F894FEBF0FBEEDBFFD
S11311406217730738F589E195E00E947F0E0E94CB
S1131150C005DA80CB80E880C9818F2D0E949F046E
S1131160CF92DF92CF93EF929F938F9383E492E099
S11311709F938F931F930F930E94400FC8010E9467
S1131180C0058DB79EB70A960FB6F8949EBF0FBEE2
S11311908DBF2CC0841B950B2817390748F589E1AE
S11311A095E00E947F0E0E94C005CA80EB80D88023
S11311B0C9818F2D0E949F04EF92CF92CF93DF922B
S11311C09F938F9384E792E09F938F931F930F9342
S11311D00E94400F8DE394E00E94C005EDB7FEB776
S11311E03A960FB6F894FEBF0FBEEDBF80E007C07D
S11311F080E295E00E947F0E0E94C00581E0DF91AD
S1131200CF911F910F91FF90EF90DF90CF900895B1
S1131210CF93DF9300D000D0CDB7DEB780914401E7
S1131220909145019A83898388EC90E09C838B8319
S113123060E081E00E94EC068AEF90E00E94BC0E20
S113124061E080E00E94EC068AEF90E00E94BC0E10
S113125064E471E080E00E946908811107C088EFAE
S113126094E00E947F0E0E94C00520C06CE371E0F0
S113127084E00E9469088823C9F0BE016F5F7F4F34
S113128083E00E946908882389F010923104109247
S1131290300485E699E0909335048093340487E91B
S11312A09AE0909337048093360404C088E099E070
S11312B00E94040760E080E00E94EC060F900F900B
S11312C00F900F90DF91CF910895CF93DF9300D0CB
S11312D000D0CDB7DEB780914001909141019A834F
S11312E0898388EC90E09C838B8360E080E00E949B
S11312F0EC068AEF90E00E94BC0E61E081E00E945F
S1131300EC068AEF90E00E94BC0E60E471E081E09C
S11313100E946908811107C088EF94E00E947F0E43
S11313200E94C00522C06CE371E084E00E94690859
S11313308823D9F0BE016F5F7F4F83E00E94690864
S1131340882399F087EA94E09093310480933004E1
S113135086EE9BE0909335048093340487E99AE009
S1131360909337048093360404C085E699E00E9484
S1131370040760E081E00E94EC060F900F900F904C
S11313800F90DF91CF9108951F93CF93DF931F9216
S1131390CDB7DEB7182FCE0101960E9445068823EB
S11313A091F0112379F089818D3039F48EE797E03B
S11313B00E947F0E0E94C00505C061E0CE01019627
S11313C00E947F0589810F90DF91CF911F9108952D
S11313D080E00E94DB06813021F460E080E00E941E
S11313E0EC0681E00E94DB06813019F460E00E9483
S11313F0EC0682E00E94DB06813021F460E082E0AA
S11314000E94EC0681E00E94C4098823A1F184357E
S113141041F018F4843471F016C0843659F08437DE
S113142091F487E295E090933104809330048EEA3E
S11314309BE017C08EEA92E09093310480933004CD
S113144088ED9AE00EC086EA96E00E947F0E0E9424
S1131450C0058DE496E0909331048093300488EEC7
S113146099E0909335048093340487E99AE090934B
S1131470370480933604089581E00E94C4098111E1
S113148002C00C941F08883581F138F48934C9F0FE
S1131490803511F1853491F50BC0893691F018F43B
S11314A0853631F02BC08037B9F08837F1F026C08B
S11314B080E00E94DB0661E0813009F460E080E0B6
S11314C008C081E00E94DB0661E0813009F460E03D
S11314D081E00E94EC0618C082E00E94DB0661E015
S11314E0813009F460E082E0F4CF8EEA92E09093D8
S11314F031048093300488ED9AE00EC086EA96E0C9
S11315000E947F0E0E94C00584ED90E09093310408
S1131510809330048BE197E09093350480933404F6
S113152087E99AE090933704809336040895CF9323
S1131530DF938091300490913104009771F10E94FF
S1131540730EEC01833B910510F0C2EBD0E00E94D6
S11315506E0590E08C179D07D0F3BE018091300496
S1131560909131040E94610E209130043091310435
S11315702C0F3D1F30933104209330046C2F0E94B4
S11315807F05E0913004F0913104E491E1110DC044
S1131590109231041092300408C080913404909168
S11315A035049093370480933604DF91CF910895E6
S11315B081E00E94C409882309F451C0883529F1C7
S11315C038F48334C9F0893449F1813481F50BC08E
S11315D0833691F018F4813631F029C08936F1F060
S11315E0883799F024C08CE191E090933104809382
S11315F0300480E99BE029C084ED90E090933104AD
S1131600809330048BE197E020C08DE496E09093C2
S113161031048093300488EE99E017C08DE891E09E
S1131620909331048093300484E997E00EC086EAF5
S113163096E00E947F0E0E94C0058EEA92E090938D
S113164031048093300488ED9AE0909335048093BC
S1131650340487E99AE0909337048093360408951C
S1131660CF93DF9300D000D01F92CDB7DEB780E0D8
S11316700E94C409882309F44BC08D3201F130F46F
S11316808B3211F580912F048F5F1CC0883511F0C7
S11316908837D1F40E94B2068EEA92E09093310426
S11316A08093300488ED9AE0909335048093340459
S11316B087E99AE0909337048093360429C0809197
S11316C02F04815080932F0480912F041F928F93B5
S11316D089E092E09F938F938DE394E09F938F939F
S11316E00E94400F8DE394E00E94C00581E189834C
S11316F080912F048A83AE014F5F5F4F62E080E1E7
S11317000E947E060F900F900F900F900F900F90F5
S11317100F900F900F900F900F90DF91CF9108953D
S11317200E941F0881E00E94C4098823B1F0883513
S113173011F0883791F48EEA92E09093310480930B
S1131740300488ED9AE0909335048093340487E95B
S11317509AE09093370480933604089581E00E94C0
S1131760C409882391F18D3089F018F48A3071F01E
S113177014C0883511F0883781F48DE496E0909395
S113178031048093300488EE99E015C0109231043E
S11317901092300488E099E00EC086EA96E00E9438
S11317A07F0E0E94C00587E295E0909331048093F8
S11317B030048EEA9BE0909335048093340487E9E7
S11317C09AE09093370480933604089581E00E9450
S11317D0C409882391F18D3089F018F48A3071F0AE
S11317E014C0883511F0883781F48DE496E0909325
S11317F031048093300488EE99E015C010923104CE
S1131800109230048EE19CE00EC086EA96E00E94BD
S11318107F0E0E94C00587EA94E090933104809380
S1131820300486EE9BE0909335048093340487E97A
S11318309AE09093370480933604089568E371E046
S113184082E00E946908811108C08EE19CE00E9438
S1131850040760E081E00C94EC066CE371E084E042
S11318600E946908882389F382E294E0909331040A
S11318708093300486E59CE090933504809334048F
S113188087E99AE0909337048093360461E080E01E
S11318900E94EC068AEF90E00E94BC0E61E081E0B9
S11318A00E94EC068AEF90E00C94BC0ECF93DF9379
S11318B000D000D000D0CDB7DEB781E00E94C409CB
S11318C081118CC0AE014F5F5F4FBE016D5F7F4FD2
S11318D0CE0105960E94DA078D819E8129813A8185
S11318E0AC01485C51092417350798F140575E4F05
S11318F04217530770F120333A4208F094C087E44A
S113190093E00E947F0E0E94C0058E818F938D818B
S11319108F9381E08F9380E98F938BE28F9380EC98
S11319208F9384EA92E09F938F938DE394E09F9347
S11319308F930E94400F8DE394E00E94C00586E5DA
S11319409CE00E9404070FB6F894DEBF0FBECDBF23
S11319506AC04B815C81BA01685C7109261737073C
S113196008F461C048535F4F4217530708F45BC043
S113197081539A428F31934010F686E697E00E9495
S11319807F0E0E94C0058E818F938D818F9381ED90
S113199092E09F938F938DE394E09F938F930E94A3
S11319A0400F8DE394E00E94C0058DE993E090938D
S11319B03104809330048CE19DE09093350480934E
S11319C0340487E99AE090933704809336040F90A7
S11319D00F900F900F900F900F9025C0883511F045
S11319E0883749F48DE496E0909331048093300471
S11319F088EE99E00EC086EA96E00E947F0E0E946F
S1131A00C00582E294E0909331048093300486E52B
S1131A109CE0909335048093340487E99AE0909392
S1131A2037048093360426960FB6F894DEBF0FBEB3
S1131A30CDBFDF91CF910895CF93DF9300D000D035
S1131A4000D0CDB7DEB781E00E94C409811190C0F7
S1131A50AE014F5F5F4FBE016D5F7F4FCE010596B4
S1131A600E94DA074B815C8129813A81BA01685C62
S1131A7071098D819E812617370798F148535F4F6E
S1131A804217530770F18935944308F496C089E1ED
S1131A9093E00E947F0E0E94C0058E818F938D81FA
S1131AA08F9381E08F9380E98F9382E38F9388EC07
S1131AB08F9384EA92E09F938F938DE394E09F93B6
S1131AC08F930E94400F8DE394E00E94C0058CE147
S1131AD09DE00E9404070FB6F894DEBF0FBECDBF91
S1131AE06CC0AC01485C51092417350708F465C083
S1131AF040575E4F4217530708F45FC08953914320
S1131B008F31934020F686E697E00E947F0E0E9474
S1131B10C0058E818F938D818F9380EF92E09F9388
S1131B208F938DE394E09F938F930E94400F8DE3F6
S1131B3094E00E94C0058FE093E00E94C0058DE40C
S1131B4096E0909331048093300488EE99E090936A
S1131B5035048093340487E99AE0909337048093A2
S1131B6036040F900F900F900F900F900F9025C098
S1131B70883511F0883749F48DE496E09093310468
S1131B808093300488EE99E00EC086EA96E00E94C5
S1131B907F0E0E94C00582E294E09093310480930A
S1131BA0300486E59CE0909335048093340487E9FF
S1131BB09AE0909337048093360426960FB6F894EF
S1131BC0DEBF0FBECDBFDF91CF91089581E00E94AB
S1131BD0C4098823A1F18D3089F018F48A3071F09A
S1131BE016C0883511F0883791F48DE496E090930F
S1131BF031048093300488EE99E017C08091320458
S1131C009091330410923104109230040EC086EA8D
S1131C1096E00E947F0E0E94C00585E793E09093B2
S1131C2031048093300486EE9DE0909335048093D4
S1131C30340487E99AE09093370480933604089536
S1131C408BE297E00E947F0E0E94C00581EC96E033
S1131C500E947F0E0E94C0050E94FA0E0E947F0E11
S1131C609F938F938DE293E09F938F938DE394E002
S1131C709F938F930E94400F8DE394E00E94C005D0
S1131C808DE496E0909331048093300488EE99E0DB
S1131C90909335048093340487E99AE09093370451
S1131CA0809336040F900F900F900F900F900F9029
S1131CB00895E0913604F0913704309709F00994BF
S1131CC00895AFE6B4E020E030E02617370741F08E
S1131CD0FC01E20FF31FE491ED932F5F3F4FF5CF2B
S1131CE08FE694E008959C0180E090E0F901E80F0C
S1131CF0F91FE491EE2311F00196F8CF0895CF93E4
S1131D00DF93EC010E94730EBC016F5F7F4FCE0125
S1131D10DF91CF910C94610E10923C0410923B041D
S1131D2010923A0410923904109238040895909352
S1131D303C0480933B0410923A04109239041092AC
S1131D408500109284008AEF90E09093890080933C
S1131D508800EFE6F0E0808182608083E1E8F0E0D3
S1131D60808183608083089580913804882319F0EA
S1131D701092380481E008950E94970E0E94B40ED8
S1131D808823E1F308951F920F920FB60F92112446
S1131D902F933F938F939F938091390490913A04AA
S1131DA0019690933A048093390420913B04309136
S1131DB03C048217930759F41092810080916F00BC
S1131DC08D7F80936F0081E0809338040AC08091F6
S1131DD088009091890086509F4F9093890080934A
S1131DE088009F918F913F912F910F900FBE0F907C
S1131DF01F90189581E897E00895A1E21A2EAA1B76
S1131E00BB1BFD010DC0AA1FBB1FEE1FFF1FA217A6
S1131E10B307E407F50720F0A21BB30BE40BF50BA3
S1131E20661F771F881F991F1A9469F7609570952C
S1131E30809590959B01AC01BD01CF0108950E944E
S1131E402A0FA59F900DB49F900DA49F800D911D06
S1131E5011240895A29FB001B39FC001A39F700DE8
S1131E60811D1124911DB29F700D811D1124911D9E
S1131E700895FB01DC0101900D920020E1F7089523
S1131E80AEE0B0E0E6E4FFE00C9401120D891E8997
S1131E9086E08C831A8309838FEF9FE79E838D836B
S1131EA0AE01475E5F4F6F89788DCE0101960E9427
S1131EB0620FEF81F885E00FF11F10822E96E4E0A7
S1131EC00C941D12ABE0B0E0E8E6FFE00C94F311D3
S1131ED06C017B018A01FC0117821682838181FFD8
S1131EE0CCC1CE0101963C01F6019381F70193FD2B
S1131EF0859193FF81917F01882309F4BAC18532CA
S1131F0039F493FD859193FF81917F01853229F402
S1131F10B60190E00E945911E7CF912C212C312C6D
S1131F20FFE1F315D8F08B3279F038F4803279F090
S1131F308332A1F4232D20611DC08D3261F08033E2
S1131F4069F4232D216016C0832D8260382EE32D81
S1131F50E4603E2E2AC0F32DF8601DC037FC2DC06E
S1131F6020ED280F2A3040F08E32B9F436FC81C1BE
S1131F70232D2064322E19C036FE06C08AE0989EB6
S1131F80200D1124922E11C0EAE02E9E200D112462
S1131F90222EF32DF0623F2E08C08C3621F4832DBF
S1131FA08068382E02C0883641F4F70193FD85918C
S1131FB093FF81917F018111B3CF982F9F7D955419
S1131FC0933028F40C5F1F4F9FE399830DC0833631
S1131FD031F0833771F0833509F059C021C0F8011D
S1131FE0808189830E5F1F4F88248394912C530131
S1131FF013C02801F2E04F0E511CF801A080B180FB
S113200036FE03C0692D70E002C06FEF7FEFC5019B
S11320100E944E114C018201F32DFF773F2E16C012
S1132020280122E0420E511CF801A080B18036FE46
S113203003C0692D70E002C06FEF7FEFC5010E94FD
S113204043114C01F32DF0683F2E820133FC1BC079
S1132050822D90E088169906B0F4B60180E290E0F3
S11320600E9459112A94F4CFF50137FC859137FE6B
S113207081915F01B60190E00E94591121102A94C8
S113208021E0821A91088114910471F7E8C0843622
S113209011F0893641F5F80137FE07C0608171817E
S11320A0828193810C5F1F4F08C060817181072E6C
S11320B0000C880B990B0E5F1F4FF32DFF763F2EFC
S11320C097FF09C090958095709561957F4F8F4FCC
S11320D09F4FF0683F2E2AE030E0A3010E94951143
S11320E0882E861845C0853731F4232D2F7EB22ED5
S11320F02AE030E025C0932D997FB92E8F36C1F0A8
S113210018F4883579F0B5C0803719F0883721F094
S1132110B0C0E92FE061BE2EB4FE0DC0FB2DF4600B
S1132120BF2E09C034FE0AC0292F2660B22E06C075
S113213028E030E005C020E130E002C020E132E0D8
S1132140F801B7FE07C060817181828193810C5FC1
S11321501F4F06C06081718180E090E00E5F1F4FC9
S1132160A3010E949511882E8618FB2DFF773F2E20
S113217036FE0DC0232D2E7FA22E891458F434FE72
S11321800BC032FC09C0832D8E7EA82E05C0B82C4E
S1132190A32C03C0B82C01C0B92CA4FE0FC0FE01AF
S11321A0E80DF11D8081803321F49A2D997EA92EAA
S11321B009C0A2FE06C0B394B39404C08A2D8678E5
S11321C009F0B394A3FC11C0A0FE06C0B21488F4B5
S11321D0280C922C9B180EC0B21460F4B60180E255
S11321E090E00E945911B394F7CFB21418F42B184D
S11321F002C0982C212CA4FE10C0B60180E390E00C
S11322000E945911A2FE17C0A1FC03C088E790E008
S113221002C088E590E0B6010CC08A2D867859F09A
S1132220A1FE02C08BE201C080E2A7FC8DE2B601F0
S113223090E00E945911891438F4B60180E390E0CB
S11322400E9459119A94F7CF8A94F301E80DF11D75
S11322508081B60190E00E9459118110F5CF2220AF
S113226009F442CEB60180E290E00E9459112A940A
S1132270F6CFF6018681978102C08FEF9FEF2B96F0
S1132280E2E10C940F12FC010590615070400110C2
S1132290D8F7809590958E0F9F1F0895FC0161508B
S11322A0704001900110D8F7809590958E0F9F1F74
S11322B008950F931F93CF93DF93FB01238121FD97
S11322C003C08FEF9FEF2CC022FF16C046815781B9
S11322D0248135814217530744F4A081B1819D01C3
S11322E02F5F3F4F318320838C93268137812F5F6B
S11322F03F4F3783268314C08B01EC01FB0100841C
S1132300F185E02D0995892BE1F6D80116968D917A
S11323109C911797019617969C938E931697CE01CE
S1132320DF91CF911F910F910895FA01AA272830C8
S113233051F1203181F1E8946F936E7F6E5F7F4F8E
S11323408F4F9F4FAF4FB1E03ED0B4E03CD0670F0A
S1132350781F891F9A1FA11D680F791F8A1F911D5D
S1132360A11D6A0F711D811D911DA11D20D009F4AD
S113237068943F912AE0269F11243019305D3193EF
S1132380DEF6CF010895462F4770405D4193B3E0D8
S11323900FD0C9F7F6CF462F4F70405D4A3318F07F
S11323A0495D31FD4052419302D0A9F7EACFB4E030
S11323B0A6959795879577956795BA95C9F70097E8
S11323C06105710508959B01AC010A2E0694579589
S11323D0479537952795BA95C9F7620F731F841FE0
S11323E0951FA01D08952F923F924F925F926F9276
S11323F07F928F929F92AF92BF92CF92DF92EF9291
S1132400FF920F931F93CF93DF93CDB7DEB7CA1B11
S1132410DB0B0FB6F894DEBF0FBECDBF09942A883C
S1132420398848885F846E847D848C849B84AA84E4
S1132430B984C884DF80EE80FD800C811B81AA8171
S1132440B981CE0FD11D0FB6F894DEBF0FBECDBF3C
S10B2450ED010895F894FFCF9B
S1132458290122011B0112010A01335633204F5569
S1132468540056424154204F5554002B35562049A8
S11324784E00494E54424154004558544241540078
S113248877018E01AA01C0018813C800E40C9600E4
S1132498983AC800B036C800F4D10700F4D1070050
S11324A8FAE80300F4D107007DF4010001020306F1
S11324B8070A0A0D53595354454D204552524F5259
S11324C80A0D25730A0D000A0D53657269616C20A3
S11324D84672616D696E67204572726F72000A0DEB
S11324E853657269616C2044617461204F7665722A
S11324F872756E204572726F72000A0D53657269A7
S1132508616C20506172697479204572726F72002F
S11325180A0D53657269616C2054582062756620EF
S11325286F766572666C6F77204572726F720045BC
S11325385854424154203D2025730A0D00494E54F5
S1132548424154203D2025730A0D0050464C4F410A
S113255844203D2025730A0D00446973706C617929
S1132568696E6720253032780D00202025303575B6
S113257820202025303575202020253035750D0084
S11325882025303575002573203D2025756D56208E
S11325982D20000A0A0D2A2A2A20257320566F6C3A
S11325A87461676520746F6F2068696768202D20DF
S11325B825756D56202B2F2D2025756D56202A2A1A
S11325C82A0A0D000A0A0D2A2A2A20257320566F82
S11325D86C7461676520746F6F206C6F77202D2091
S11325E825756D56202B2F2D2025756D56202A2AEA
S11325F82A0A0D000A0D5468726573686F6C6420AA
S11326083D2025646D56202B2F2D2025646D560AF8
S11326180D455854424154203D2025646D560A0DF9
S1132628000A0A0D4C6F77657220546872657368E6
S11326386F6C64204F4B20402025756D560A0D00A1
S11326480A0A0D5570706572205468726573686F54
S11326586C64204F4B20402025756D560A0D000AE6
S11326680A0D204E4F5720444F20504F4C59465581
S1132678534520535455464620210A0D0025730A14
S10726880A0D000033
S9030000FC
