:100000000C94E5080C9402090C9402090C94020962
:100010000C9402090C9402090C9402090C94020934
:100020000C9402090C9402090C9402090C94861891
:100030000C9402090C9402090C9402090C94020914
:100040000C9402090C9402090C941D0B0C945A0A8E
:100050000C9402090C942B090C9402090C940209CB
:100060000C9402090C9402090A0A0A0D5665726979
:100070006669636174696F6E205468726573686F36
:100080006C64206D6F64696669636174696F6E206A
:100090004D656E750A0D3D3D3D3D3D3D3D3D3D3D52
:1000A0003D3D3D3D3D3D3D3D3D3D3D3D3D3D3D3D80
:1000B0003D3D3D3D3D3D3D3D3D3D3D3D3D3D0A0DD3
:1000C00053656C656374206F7074696F6E20626530
:1000D0006C6F7720746F20746F67676C6520766132
:1000E0006C7565206265747765656E2061637475F3
:1000F000616C20616E642076657269666963617403
:10010000696F6E2076616C7565730A0A0D31202D5A
:1001100020496E637265617365204C6F776572204C
:100120005468726573686F6C640A0D32202D204428
:1001300065637265617365204C6F776572205468E2
:10014000726573686F6C640A0D33202D20496E63ED
:1001500072656173652055707065722054687265B0
:1001600073686F6C640A0D34202D204465637265DA
:10017000617365205570706572205468726573688C
:100180006F6C640A0D35202D204C6F7765722050FE
:100190006F6C79667573652054726970205468724B
:1001A0006573686F6C640A0D000A0D45202D20549C
:1001B0006F67676C652045585442415420737461E1
:1001C0007475730A0D49202D20546F67676C652084
:1001D000494E54424154207374617475730A0D5032
:1001E000202D20546F67676C6520506F6C796675A1
:1001F0007365204C6F6164207374617475730A0DAC
:100200000A0D5072657373205820746F20657869E9
:10021000740A0A0D0A0D2020455854202020494E0A
:10022000542020202B355620202056424154202097
:100230003356330A0D000A0A0A0A0D492F4F20438C
:100240006F6E74726F6C204465627567204D656EC9
:10025000750A0D3D3D3D3D3D3D3D3D3D3D3D3D3DF9
:100260003D3D3D3D3D3D3D3D3D0A0A0D43757272AC
:10027000656E74205374617475733A0A0D000A0A2E
:100280000A0A0D4144432044656275670A0D3D3DED
:100290003D3D3D3D3D3D3D0A0A0D0A0D50726573E1
:1002A00073205820746F20657869740A0A0D0A0D4E
:1002B0002020202020416C6C204461746120696EF4
:1002C000206D696C6C69766F6C74730A0D0A0D2071
:1002D00020455854202020494E542020202B3556AC
:1002E0002020205642415420203356330A0D000A64
:1002F0000A0A0A0D49324320546573740A0D3D3DC4
:100300003D3D3D3D3D3D0A0A0D4E4F54453A204589
:100310006E7375726520746865204D6F64756C65C9
:100320002069732050726F6772616D6D6564206122
:10033000732061204D61737465720A0A0D42202D8D
:10034000204C454420697320424C554520202D20E7
:100350004572726F7220436F6465203078666666FE
:10036000660A0D47202D204C4544206973204752D2
:1003700045454E202D204572726F7220436F646593
:10038000203078666666650A0D52202D204C454463
:10039000206973205245442020202D204572726F21
:1003A0007220436F6465203078666666640A0A0DC1
:1003B00050726573732027582720746F20726574FC
:1003C00075726E20746F204465627567204D656E8E
:1003D000750A0A0D000A0A0A0A0D444542554720CB
:1003E0004D454E550A0D3D3D3D3D3D3D3D3D3D3D5F
:1003F0003D3D3D0A0D41202D20414443207465734D
:10040000740A0D43202D20492F4F20436F6E7472C4
:100410006F6C20746573740A0D49202D2049324396
:1004200020746573740A0D54202D20546F67676C17
:1004300065205468726573686F6C647320666F72B0
:1004400020566572696669636174696F6E0A0D583A
:10045000202D204578697420746F20537461727464
:10046000204D656E750A0D000A0A0D072A2A2A2AF0
:100470002A2A2A2A2A2A2A2A2A2A2A2A2A2A2A2ADC
:100480002A2A2A2A2A2A2A2A0A0D2A20546573741B
:10049000696E67206973206E6F7720636F6D706C73
:1004A00065746564202A0A0D2A2A2A2A2A2A2A2AF9
:1004B0002A2A2A2A2A2A2A2A2A2A2A2A2A2A2A2A9C
:1004C0002A2A2A2A0A0A0D202D205475726E204FDE
:1004D00046462074686520355620506F7765722037
:1004E0007377697463680A0D202D2052656D6F76ED
:1004F000652074686520426F61726420556E646582
:100500007220546573742026206170706C792054B9
:100510004553544544206D61726B0A0D202D2043D4
:100520006F6E6E65637420746865206E65787420E4
:10053000626F61726420746F2062652074657374E9
:10054000656420746F20746865204A696720616E55
:10055000642070726573732027454E544552270AF4
:100560000A0D202D204F7220707265737320507217
:100570006573732027582720746F2065786974206D
:10058000746F207374617274206D656E750A0A0D44
:10059000000A0A0D56455249465920746861742C68
:1005A000206166746572207072657373696E67206E
:1005B0007468652027454E54455227206B65792C79
:1005C0002074686520666F6C6C6F77696E67206F4A
:1005D00063637572733A0A0D202D20546865202BD1
:1005E000355620737570706C7920666F7220746850
:1005F00065204C45442064726976652069732072D9
:1006000065647563656420746F206C657373207412
:1006100068616E20312E3556206166746572203314
:10062000207365636F6E64730A0D202D2054686516
:10063000205452492D436F6C6F7572204C454420F5
:1006400069732062726965666C7920657874696E79
:10065000677569736865640A0D202D2054686520EC
:100660004D617374657220646973706C617920697F
:1006700073206E6F742061666665637465642061C3
:100680006E64207374696C6C20646973706C61793A
:1006900073202742415454455259270A0A0D50727B
:1006A0006573732027582720746F2065786974203C
:1006B0006F7220454E54455220746F2070726F63E4
:1006C0006565640A0A0D000A0A0D564552494659E5
:1006D00020746865204D617374657220646973705D
:1006E0006C6179206E6F772073686F777320746800
:1006F00065206D65737361676520274241545445D9
:100700005259270A0A0D5072657373202758272003
:10071000746F2065786974206F7220454E5445527D
:1007200020746F2070726F636565640A0A0D000A99
:100730000A0D56455249465920746865204D61732B
:1007400074657220646973706C6179206E6F7720B4
:1007500073686F77732074686520696E646963617C
:10076000746564204572726F7220436F6465206106
:100770006E64207468650A0D5452492D436F6C6F86
:100780007572204C4544206973206E6F7720696C28
:100790006C756D696E61746564206173206964694C
:1007A00063617465643A0A0A0D5072657373202799
:1007B000582720746F2065786974206F7220454E29
:1007C00054455220746F2070726F636565640A0A25
:1007D0000D000A0A0D564552494659207468617445
:1007E0002C207768656E20746865204D6173746590
:1007F0007220646973706C617920697320746F75FD
:10080000636865642074686520666F6C6C6F7769D7
:100810006E67206F63637572733A0A0D202D206135
:100820006E20274558542050575227206D6573730A
:100830006167652061707065617273206F6E2074EE
:100840006865204D617374657220646973706C61B2
:10085000790A0D202D20746865205452492D436F6C
:100860006C6F7572204C4544206F6E207468652053
:100870004A696720697320696C6C756D696E617473
:10088000656420616E6420697320475245454E209F
:10089000696E20636F6C6F75720A0A0D5645524976
:1008A000465920656163682074696D6520746865C8
:1008B000204D617374657220646973706C61792076
:1008C000697320746F756368656420746865206F50
:1008D0006E2F6F6666207374617475732069732060
:1008E000746F67676C65640A0A0D536574207468D9
:1008F0006520646973706C617920746F2074686519
:10090000204F4E2073746174650A0A0D507265732E
:10091000732027582720746F2065786974206F72C0
:1009200020454E54455220746F2070726F63656588
:10093000640A0A0D000A0A0D4379636C6520746825
:100940006520706F77657220746F2074686520422F
:100950005554207573696E6720746865202B355671
:1009600020706F776572207377697463680A0A0D67
:100970005645524946592074686520736C61766506
:1009800020646973706C6179206973206E6F7720C1
:10099000626C616E6B20616E6420746865204D61CD
:1009A0007374657220646973706C61792073686F09
:1009B000777320616E0A0D274F4E2F4F4646272032
:1009C00073796D626F6C2C20616E64207468652091
:1009D0005452492D436F6C6F7572204C4544206F03
:1009E0006E20746865204A6967206973204F464607
:1009F0000A0A0D50726573732027582720746F20E0
:100A000065786974206F7220454E54455220746F8A
:100A10002070726F636565640A0A0D00466F6C6C26
:100A20006F772074686520696E737472756374697A
:100A30006F6E7320696E207468652054657374202E
:100A40004D6574686F6420746F2070726F67726197
:100A50006D207468652042555420696E746F204D76
:100A60004153544552204D4F44450A0A0D5072657A
:100A700073732027582720746F2065786974206F5E
:100A80007220454E54455220746F2070726F63651A
:100A900065640A0A0D005645524946592074686536
:100AA00020274558542050575227206D6573736195
:100AB000676520686173206265656E207265706C81
:100AC0006163656420776974682074686520666F67
:100AD0006C6C6F77696E673A0A0A0D20202020201F
:100AE000202020202020202020202020272D3A2DCB
:100AF0002D27200A0A0D56455249465920616E207D
:100B00002749444C4527206D6573736167652061F3
:100B10007070656172732061626F766520746865BC
:100B20002062617474657279206368617267652000
:100B30007374617475730A0A0D507265737320279C
:100B4000582720746F2065786974206F7220454E95
:100B500054455220746F2070726F636565640A0A91
:100B60000D000A0A0D4379636C6520746865207076
:100B70006F77657220746F20746865204255542029
:100B80007573696E67207468652027355627205075
:100B90006F776572207377697463680A0D564552E2
:100BA000494659206F6E20706F7765722075702CE2
:100BB0002074686520736C61766520646973706C5D
:100BC0006179732062726965666C792073686F77EA
:100BD000732074686520636F727265637420666940
:100BE000726D776172652076657273696F6E0A0A3D
:100BF0000D56455249465920616674657220612040
:100C000073686F72742064656C6179207468652004
:100C1000666F6C6C6F77696E672069732073686F9D
:100C2000776E206F6E2074686520736C6176652026
:100C3000646973706C61793A0A0D202D20546865DF
:100C400020626174746572792063686172676520DF
:100C500073746174757320696E2074686520666FA3
:100C6000726D2027585825270A0D202D20546865BD
:100C7000206D657373616765202745585420505770
:100C8000522720697320646973706C617965640A06
:100C90000A0D50726573732027582720746F2065E2
:100CA000786974206F7220454E54455220746F202D
:100CB00070726F636565640A0A0D000A0A0D4C655F
:100CC00061766520746865202735562720706F7718
:100CD000657220737769746368204F4E20616E647B
:100CE00020666F6C6C6F772074686520696E737412
:100CF00072756374696F6E7320696E207468652005
:100D000054657374204D6574686F640A0D746F20A8
:100D100070726F6772616D2074686520425554204F
:100D2000696E746F20534C415645204D4F44450A1F
:100D30000A0D50726573732027582720746F206541
:100D4000786974206F7220454E54455220746F208C
:100D500070726F636565640A0A0D000A0A0D2A2A1B
:100D60002A20555050455220535749544348494E24
:100D700047205448524553484F4C44204552524F07
:100D800052202A2A2A0A0A0D000A0A0D2A2A2A2093
:100D90004C4F57455220535749544348494E4720DA
:100DA0005448524553484F4C44204552524F5220CC
:100DB0002A2A2A0A0A0D000A0D5072657373202729
:100DC000582720746F2065786974206F7220454E13
:100DD00054455220746F2052657472790A0D000ACE
:100DE0000D536C6F776C7920496E63726561736522
:100DF000207468652045585442415420766F6C74C5
:100E000061676520756E74696C2061204D65737330
:100E100061676520617070656172730A0D5072655B
:100E200073732027582720746F2065786974206FAA
:100E30007220454E54455220746F2070726F636566
:100E400065640A0A0D20204558544241542020561A
:100E500042415420202020494E544241540A0D0062
:100E60000A0D536C6F776C7920446563726561730A
:100E700065207468652045585442415420766F6C53
:100E80007461676520756E74696C2061204D6573AF
:100E90007361676520617070656172730A0D5072CD
:100EA0006573732027582720746F20657869742034
:100EB0006F7220454E54455220746F2070726F63DC
:100EC0006565640A0A0D202045585442415420208B
:100ED0005642415420202020494E544241540A0D8C
:100EE000000A0D2A2A2A205455524E2054484520E3
:100EF0002B355620504F574552205357495443489D
:100F0000204F4E202A2A2A0A0D507265737320271B
:100F1000582720746F2065786974206F7220454EC1
:100F200054455220746F2070726F636565640A0ABD
:100F30000D000A0D2A2A2A2041646A75737420491B
:100F40006E70757420566F6C74616765202A2A2A4A
:100F50000A0D004641494C0A0D00504153530A0DF9
:100F6000000A0A0A0A0D426F6172642054657374A4
:100F70000A0D3D3D3D3D3D3D3D3D3D3D0A0D456E2E
:100F80007375726520746865204558544241542039
:100F90005053552069732073657420746F20313469
:100FA0002E3056202B2F2D20302E31560A0D456E17
:100FB000737572652074686520494E54424154200F
:100FC0005053552069732073657420746F20313538
:100FD0002E3056202B2F2D20302E31560A0D436FE8
:100FE0006E6E6563742074686520426F6172642060
:100FF000556E6465722054657374202842555429D7
:1010000020746F20746865204A69670A0D0A2A2ACD
:101010002A20456E7375726520746865202B3556DD
:1010200020506F7765722053776974636820697305
:10103000204F464620617420746869732073746180
:101040006765202A2A2A0A0A0D5475726E20746870
:10105000652045787465726E616C2050535573201D
:101060004F4E0A0D50726573732027582720746FF6
:101070002065786974206F7220454E544552207463
:101080006F2070726F636565640A0A0D000A0A0DAD
:101090005374617274204D454E550A0D3D3D3D3DE2
:1010A0003D3D3D3D3D3D0A0D54202D20426F617276
:1010B0006420746573740A0D44202D2044656275A4
:1010C00067204D656E750A0D3C454E5445523E2DC8
:1010D00020546F2072656672657368207363726551
:1010E000656E0A0A0D0020436F6D6D616E64206E9F
:1010F0006F7420696D706C656D656E7465640A0D42
:10110000000A0A0D454547204261747465727920D2
:101110004D6F64756C65202D2049324320546573F2
:101120007420536F6674776172650A0D3D3D3D3DD5
:101130003D3D3D3D3D3D3D3D3D3D3D3D3D3D3D3DDF
:101140003D3D3D3D3D3D3D3D3D3D3D3D3D3D3D3DCF
:101150003D3D0A0D544A30303030303420466972FB
:101160006D776172652049643A20000A0A0A0A0A0A
:101170000A0A0A0A0A0A0D28632920436F70797245
:101180006967687420546865204D61677374696D80
:1011900020436F6D70616E79204C74642E20323064
:1011A00032350A0A0D000A0A0A0A0A0A0A0A0A0A53
:1011B0000A0A0A0A0A0D004F4646004F4E000A0D61
:1011C000005665722056312E300011241FBECFEF1D
:1011D000D8E0DEBFCDBF14E0A0E0B1E0EEEDF7E374
:1011E00002C005900D92AE34B107D9F726E0AEE407
:1011F000B4E001C01D92AE33B207E1F70E94E90BE3
:101200000C94ED1B0C94000010925904E0915904C9
:10121000F0E0EE59FE4F808180937C0010927B00BD
:1012200080E090E029E0289FF001299FF00D112433
:10123000E65AFB4F108211821282138215821482A9
:1012400017821682108601968530910561F78FEC22
:1012500080937A0008951F920F920FB60F92112477
:101260002F933F938F939F93AF93BF93EF93FF93EE
:101270002091780030917900E091590480915904CF
:101280008F5F80935904853010F010925904A0911B
:101290005904B0E0AE59BE4F8C9180937C008FEC26
:1012A00080937A0089E0E89FF0011124E65AFB4F11
:1012B00080819181A281B381820F931FA11DB11DF5
:1012C00080839183A283B3838681978101969783DC
:1012D000868380389105A8F01782168280819181DB
:1012E000A281B38127E0B695A795979587952A9512
:1012F000D1F795838483108211821282138281E058
:101300008087FF91EF91BF91AF919F918F913F9116
:101310002F910F900FBE0F901F9018950F931F9352
:10132000CF93DF938C01C62FD0E089E0689FF00156
:101330001124E65AFB4F80858823B9F0A481B5813A
:10134000CC0FDD1FCC0FDD1FC25BDE4F2881398142
:101350004A815B810E94E218BB27A92F982F872F13
:10136000E80199838883108681E0DF91CF911F91F6
:101370000F910895E82FF0E0EE0FFF1FE050FF4FB0
:10138000808191810895CF92DF92EF92FF920F9327
:101390001F93CF93DF9300D0CDB7DEB7082F162F62
:1013A00010924F0410924E048FEF9FEF90935104D0
:1013B00080935004109253041092520410925404DB
:1013C000109255041092560410925704109258042B
:1013D000809158048117D8F5602FCE0101960E94A4
:1013E0008E098823C9F389819A8120915004309114
:1013F00051048217930720F4909351048093500472
:1014000020914E0430914F042817390720F490930F
:101410004F0480934E0440915404509155046091C0
:101420005604709157046A017B01C80ED91EE11C55
:10143000F11CC0925404D0925504E0925604F092EC
:101440005704809158048F5F80935804C1CF212F97
:1014500030E040E050E06091540470915504809178
:101460005604909157040E94C0183093530420935F
:1014700052048EE494E00F900F90DF91CF911F9172
:101480000F91FF90EF90DF90CF9008951092480554
:101490001092470510924605109245051092C5001E
:1014A00087E68093C40086E08093C20088E9809339
:1014B000C10008951F920F920FB60F9211248F93BF
:1014C0009F93EF93FF939091460580914505981364
:1014D00006C08091C1008F7D8093C10011C0E09152
:1014E0004505F0E0EF56FB4F80818093C600809168
:1014F00045058F5F80934505843B10F010924505AC
:10150000FF91EF919F918F910F900FBE0F901F90C1
:101510001895F8942091460530E08091450578941F
:10152000482F50E02417350710F42C543F4F8D54AA
:10153000821B08951F93CF93DF93D82F192FC62FA7
:101540000E94890A8C17E0F3809146052D2FED2F1C
:10155000F12F9E2F921B9C1758F49191A82FB0E069
:10156000AF56BB4F9C938F5F843B98F380E0F1CFE5
:10157000F894809346058091C10085FD16C0E091E6
:101580004505F0E0EF56FB4F80818093C6008091C7
:1015900045058F5F80934505843B10F0109245050B
:1015A0008091C10080628093C100789484E0DF91D3
:1015B000CF911F910895CF93DF93FC0101900020FC
:1015C000E9F73197EF01C81BD90B6C2F0E949A0ADB
:1015D000843011F48C2F01C080E0DF91CF91089509
:1015E000CF93C82F1092C1000E94460AEC2FF0E062
:1015F000EE0FFF1FE05DFE4F81818F9380818F93FF
:1016000087E691E09F938F9387E595E09F938F9373
:101610000E9403190F900F900F900F900F900F9052
:1016200087E595E0CF910C94DB0A209146059091D7
:10163000450581E0291380E008951F920F920FB6AF
:101640000F9211242F933F934F935F936F937F9348
:101650008F939F93AF93BF93EF93FF939091C000AD
:101660008091C600E0914805F0E0E957FB4F808388
:10167000809148058F5F809348058A3010F0109262
:101680004805892F8C7159F094FF02C080E005C095
:1016900093FF02C081E001C082E00E94F00AFF9146
:1016A000EF91BF91AF919F918F917F916F915F91DA
:1016B0004F913F912F910F900FBE0F901F90189553
:1016C00030914805209147053217A9F0F894E09130
:1016D0004705F0E0E957FB4F2081FC012083809112
:1016E00047058F5F809347058A3010F010924705B9
:1016F000789484E0089580E00895CF93DF931F925B
:10170000CDB7DEB78FEF9FEF2091BC0029832981F1
:1017100027FD02C00197C1F70F90DF91CF91089587
:101720008CE08093B800ECEBF0E0808184608083F3
:101730000895FF920F931F93CF93DF93C82F162F17
:10174000F42E052F84EA8093BC000E947D0BCC0F01
:10175000C093BB0084E88093BC000E947D0BCF2D1A
:10176000D02FCE01810F911D8C0184E8F82EC01777
:10177000D10741F089918093BB00F092BC000E9498
:101780007D0BF5CF8091B90094E99093BC00DF9177
:10179000CF911F910F91FF9008951092B800ECEB3C
:1017A000F0E080818B7F80830895579A5F985F9ADD
:1017B0005F985F9A5F985F9A5F988EE080937E0053
:1017C00087E084B985B1887F85B984E08AB95A9A5F
:1017D00008950E94D50B0E944F180E94460A0E944D
:1017E00004090E94900B0E94E3170E941C18FDCF71
:1017F000982F83B1913049F020F0923049F48170F4
:10180000089582FB882780F9089586958170089550
:1018100080E00895813051F018F0823069F0089529
:10182000613011F42A9A08952A980895613011F4CC
:10183000299A089529980895613011F4289A0895F5
:101840002898089590934D0580934C0587EB9DE073
:1018500090934B0580934A0589EA97E190934F0551
:1018600080934E0589E193E1909351058093500553
:10187000089580E00E94F80B813019F48BEB91E120
:1018800002C087EB91E10E9442189F938F9385EEEF
:1018900091E09F938F9387E595E09F938F930E94AC
:1018A000031987E595E00E94DB0A81E00E94F80BAE
:1018B0000F900F900F900F900F900F90813019F4B0
:1018C0008BEB91E102C087EB91E10E9442189F935C
:1018D0008F9383EF91E09F938F9387E595E09F939C
:1018E0008F930E94031987E595E00E94DB0A82E04E
:1018F0000E94F80B0F900F900F900F900F900F9089
:10190000813019F48BEB91E102C087EB91E10E94E9
:1019100042189F938F9381E092E09F938F9387E586
:1019200095E09F938F930E94031987E595E00E94AD
:10193000DB0A89EA91E090934B0580934A058EEB90
:1019400090E190934F0580934E0589E193E1909348
:101950005105809350050F900F900F900F900F90AE
:101960000F900895EF92FF920F931F93CF93DF9301
:10197000EC017B018A0160E0CE010E948E09882380
:10198000D1F361E0C7010E948E098823D1F363E09F
:10199000C8010E948E098823D1F3F70181818F93BA
:1019A00080818F93F80181818F9380818F938981CA
:1019B0008F9388818F938FE092E09F938F9387E539
:1019C00095E09F938F930E9403198DB79EB70A9657
:1019D0000FB6F8949EBF0FBE8DBF87E595E0DF91EF
:1019E000CF911F910F91FF90EF900C94DB0ACF9253
:1019F000DF92EF92FF921F93CF93DF9300D0CDB78A
:101A0000DEB710E085E2E82E82E0F82E97E5C92ED9
:101A100095E0D92E612FCE0101960E948E09811189
:101A200017C01F5F1530B1F76DE273E087E595E0F1
:101A30000E94FC1887E595E00E94DB0A0F900F904A
:101A4000DF91CF911F91FF90EF90DF90CF9008959D
:101A50008A818F9389818F93FF92EF92DF92CF9249
:101A60000E94031987E595E00E94DB0A0F900F9012
:101A70000F900F900F900F900E94150B8823E1F3A9
:101A8000D0CFCF92DF92EF92FF920F931F93CF931D
:101A9000DF93F82EEB0168E00E94C3096C01FC01A2
:101AA000148105818F2D0E94BA090F931F939F9374
:101AB0008F938BE292E09F938F9307E515E01F933E
:101AC0000F930E940319C8010E94DB0AF6012481CA
:101AD0003581888199814A815B81BC01640F751FC2
:101AE000EDB7FEB738960FB6F894FEBF0FBEEDBF48
:101AF0006217730738F583E59FE00E9442180E9441
:101B0000DB0ADA80CB80E880C9818F2D0E94BA0978
:101B1000CF92DF92CF93EF929F938F9388E392E0DF
:101B20009F938F931F930F930E940319C8010E94E4
:101B3000DB0A8DB79EB70A960FB6F8949EBF0FBE0C
:101B40008DBF2CC0841B950B2817390748F583E5FA
:101B50009FE00E9442180E94DB0ACA80EB80D88076
:101B6000C9818F2D0E94BA09EF92CF92CF93DF9255
:101B70009F938F9389E692E09F938F931F930F9388
:101B80000E94031987E595E00E94DB0AEDB7FEB7D6
:101B90003A960FB6F894FEBF0FBEEDBF80E007C0C7
:101BA0008AE59FE00E9442180E94DB0A81E0DF91F3
:101BB000CF911F910F91FF90EF90DF90CF900895FC
:101BC000CF93DF9300D000D0CDB7DEB780914A012C
:101BD00090914B019A83898388EC90E09C838B835E
:101BE00060E081E00E940A0C8AEF90E00E947F187A
:101BF00061E080E00E940A0C8AEF90E00E947F186A
:101C00006AE471E080E00E94410D811107C082E327
:101C10009FE00E9442180E94DB0A20C062E471E04B
:101C200084E00E94410D8823C9F0BE016F5F7F4FA1
:101C300083E00E94410D882389F010924B05109299
:101C40004A058DE39EE090934F0580934E0589E110
:101C500093E1909351058093500504C080EE9DE080
:101C60000E94220C60E080E00E940A0C0F900F900E
:101C70000F900F90DF91CF910895CF93DF9300D015
:101C800000D0CDB7DEB780914601909147019A838D
:101C9000898388EC90E09C838B8360E080E00E94E5
:101CA0000A0C8AEF90E00E947F1861E081E00E94B8
:101CB0000A0C8AEF90E00E947F1866E471E081E0F0
:101CC0000E94410D811107C082E39FE00E944218EB
:101CD0000E94DB0A22C062E471E084E00E94410DB0
:101CE0008823D9F0BE016F5F7F4F83E00E94410DD2
:101CF000882399F081EE9EE090934B0580934A05EE
:101D000080EB93E190934F0580934E0589E193E139
:101D1000909351058093500504C08DE39EE00E948E
:101D2000220C60E081E00E940A0C0F900F900F904F
:101D30000F90DF91CF9108951F93CF93DF931F9260
:101D4000CDB7DEB7182FCE0101960E94600B882315
:101D500091F0112379F089818D3039F48EEB91E186
:101D60000E9442180E94DB0A05C061E0CE01019684
:101D70000E949A0A89810F90DF91CF911F91089557
:101D800080E00E94F80B813021F460E080E00E9446
:101D90000A0C81E00E94F80B813019F460E00E9487
:101DA0000A0C82E00E94F80B813021F460E082E0AE
:101DB0000E940A0C81E00E949C0E8823A1F18435C8
:101DC00041F018F4843471F016C0843659F0843729
:101DD00091F481E69FE090934B0580934A0588E754
:101DE00093E117C085ED93E090934B0580934A05EE
:101DF00084E19FE00EC086EE90E10E9442180E94AE
:101E0000DB0A8DE890E190934B0580934A0580ECC6
:101E10009EE090934F0580934E0589E193E1909366
:101E2000510580935005089581E00E949C0E8823FF
:101E300009F462C0883559F158F48334F9F018F484
:101E4000813499F041C08934A1F1843549F13CC015
:101E5000893679F128F4813641F0833679F034C03F
:101E60008437F1F0883799F02FC08EE792E0909395
:101E70004B0580934A058AE593E134C086E392E0FE
:101E800090934B0580934A0589E39CE02BC08DE835
:101E900090E190934B0580934A0580EC9EE022C030
:101EA00088E690E090934B0580934A058BE090E1A3
:101EB00019C00E94900B8FEE92E090934B05809397
:101EC0004A058DE79FE00EC086EE90E10E94421821
:101ED0000E94DB0A85ED93E090934B0580934A05C1
:101EE00084E19FE090934F0580934E0589E193E153
:101EF000909351058093500508950F931F93CF93AE
:101F0000DF9300D000D01F92CDB7DEB780E00E94F3
:101F10009C0E882309F475C08835C1F040F48734DD
:101F200089F0823509F445C0823431F53EC08736E8
:101F300049F018F48236C9F11FC08237D1F18837D1
:101F400029F01AC08EE992E01EEF36C081E1898344
:101F50001A821B82AE014F5F5F4F63E080E10E94F7
:101F6000990B0E94CD0B85ED93E090934B058093E8
:101F70004A0584E19FE00EC086EE90E10E9442187F
:101F80000E94DB0A8FEE92E090934B0580934A0506
:101F90008DE79FE090934F0580934E0589E193E193
:101FA00090935105809350052CC089E992E01FEF72
:101FB00003C084EA92E01DEF9F938F931F921F93BB
:101FC0001F920FEF0F9388EA92E09F938F9387E51C
:101FD00095E09F938F930E94031987E595E00E94F7
:101FE000DB0A81E189830A831B83AE014F5F5F4F68
:101FF00063E080E10E94990B0FB6F894DEBF0FBE3C
:10200000CDBF0F900F900F900F900F90DF91CF9159
:102010001F910F91089581E00E949C0E882309F47E
:10202000ACC08433C1F130F48233D1F038F5813360
:1020300051F063C0883509F44DC0883709F44AC0AF
:102040008533B9F15AC080913C0190913D01803CAB
:102050009B4219F480EE9EE20CC080EC9BE209C02A
:1020600080913C0190913D01803C9B42B1F780EA18
:1020700098E290933D0180933C0145C080913A01E4
:1020800090913B01883C924319F488EE95E30CC093
:1020900088EC92E309C080913A0190913B01883C21
:1020A0009243B1F788EA9FE290933B0180933A0113
:1020B0002AC080913801909139018C3D954019F4E6
:1020C00084E690E002C08CED95E090933901809316
:1020D000380119C085ED93E090934B0580934A0534
:1020E00084E19FE090934F0580934E0589E193E151
:1020F0009093510580935005089586EE90E10E94DB
:1021000042180E94DB0A809139018F938091380137
:102110008F9380913B018F9380913A018F938091AF
:102120003D018F9380913C018F9389ED92E09F93C5
:102130008F9387E595E09F938F930E94031987E51E
:1021400095E00E94DB0A88E690E090934B0580932F
:102150004A058BE090E190934F0580934E0589E10D
:1021600093E190935105809350058DB79EB70A96E1
:102170000FB6F8949EBF0FBE8DBF089581E00E94F8
:102180009C0E811102C00C94F70C883581F138F453
:102190008934C9F0803511F1853491F50BC0893649
:1021A00091F018F4853631F02BC08037B9F08837BC
:1021B000F1F026C080E00E94F80B61E0813009F464
:1021C00060E080E008C081E00E94F80B61E08130AF
:1021D00009F460E081E00E940A0C18C082E00E94CD
:1021E000F80B61E0813009F460E082E0F4CF85ED26
:1021F00093E090934B0580934A0584E19FE00EC0E5
:1022000086EE90E10E9442180E94DB0A86E392E08B
:1022100090934B0580934A0589E39CE090934F058A
:1022200080934E0589E193E1909351058093500589
:102230000895CF93DF9300D000D01F92CDB7DEB7C3
:1022400081E00E949C0E882309F44DC08D3089F0F6
:1022500018F48A3071F02FC0883511F0883759F59D
:102260008DE890E190934B0580934A0580EC9EE0C9
:1022700030C086EA91E10E9442180E94DB0A0E9467
:10228000900B81E189838DEF8A8380934905AE01AC
:102290004F5F5F4F63E080E10E94990B80ED97E014
:1022A0000E945A188FE297E090934B0580934A055D
:1022B0008BE791E10EC086EE90E10E9442180E94E9
:1022C000DB0A82ED97E090934B0580934A0589E104
:1022D00091E190934F0580934E0589E193E19093AE
:1022E0005105809350050F900F900F900F900F9015
:1022F000DF91CF9108950F931F93CF93DF9300D079
:1023000000D01F92CDB7DEB781E00E949C0E8823DB
:1023100009F448C08D3089F018F48A3071F03BC060
:10232000883511F08837B9F58DE890E190934B0529
:1023300080934A0580EC9EE023C086EA91E10E94EA
:1023400042180E94DB0A60E080E00E940A0C61E013
:1023500081E00E940A0C81E189831A821B82AE010E
:102360004F5F5F4F63E080E10E94990B0E94CD0BAD
:1023700087EC96E090934B0580934A0585E595E1BF
:1023800090934F0580934E0589E193E19093510519
:10239000809350054EC086EE90E10E9442180E9444
:1023A000DB0A47C00E947718882309F442C081E104
:1023B00089838FEF8A83809149058F5F80934905D8
:1023C000811106C08DEF8093490504EA12E007C031
:1023D0008F3F19F00EE912E002C009E912E0809186
:1023E00049058B83AE014F5F5F4F63E080E10E9440
:1023F000990B1F930F93809149051F928F931F9202
:102400008FEF8F9388EA92E09F938F9387E595E013
:102410009F938F930E94031987E595E00E94DB0A42
:1024200080ED97E00E945A180FB6F894DEBF0FBEF9
:10243000CDBF0F900F900F900F900F90DF91CF9125
:102440001F910F910895CF92DF92EF92FF920F9319
:102450001F93CF93DF9300D0CDB7DEB781E00E940A
:102460009C0E882309F4DAC08D3091F018F48A307C
:1024700079F0BCC0883519F0883709F0B7C08DE80D
:1024800090E190934B0580934A0580EC9EE0BCC0A0
:1024900086EA91E10E9442180E94DB0A61E082E034
:1024A0000E940A0C8FE293E00E94DB0A00E010E039
:1024B00083E4E82E83E0F82E97E5C92E95E0D92E27
:1024C00088EE93E00E945A180E94771881111DC06F
:1024D00062E0CE0101960E948E098823C9F31F9302
:1024E0000F938A818F9389818F93FF92EF92DF926E
:1024F000CF920E94031987E595E00E94DB0A0FB690
:10250000F894DEBF0FBECDBFDFCF0F5F1F4F03308C
:102510001105B1F689819A812091380130913901F4
:102520008217930790F59F938F931F9283E08F9369
:1025300082E593E09F938F9387E595E09F938F9338
:102540000E94031987E595E00E94DB0A60E082E0C3
:102550000E940A0C60E080E00E940A0C60E081E0CA
:102560000E940A0C88E694E090934B0580934A05FC
:1025700085E995E190934F0580934E0589E193E1BC
:1025800090935105809350052BC03F932F939F93B9
:102590008F931F9283E08F938CE893E09F938F93A8
:1025A00087E595E09F938F930E94031987E595E057
:1025B0000E94DB0A87EB9DE090934B0580934A05D0
:1025C00083E292E190934F0580934E0589E193E178
:1025D000909351058093500560E082E00E940A0CC0
:1025E0000FB6F894DEBF0FBECDBF18C086EE90E1E7
:1025F0000E9442180E94DB0A81E995E090934B0506
:1026000080934A0583E292E190934F0580934E05B3
:1026100089E193E190935105809350050F900F90BD
:10262000DF91CF911F910F91FF90EF90DF90CF90AE
:102630000895CF93DF9380914A0590914B050097C1
:1026400071F10E943618EC01833B910510F0C2EB4A
:10265000D0E00E94890A90E08C179D07D0F3BE015C
:1026600080914A0590914B050E94241820914A05BB
:1026700030914B052C0F3D1F30934B0520934A059D
:102680006C2F0E949A0AE0914A05F0914B05E49163
:10269000E1110DC010924B0510924A0508C08091BF
:1026A0004E0590914F059093510580935005DF9111
:1026B000CF9108950E94F70C81E00E949C0E882320
:1026C000B1F0883511F0883791F485ED93E090935F
:1026D0004B0580934A0584E19FE090934F058093DA
:1026E0004E0589E193E1909351058093500508953B
:1026F00081E00E949C0E882391F18D3089F018F4BE
:102700008A3071F014C0883511F0883781F48DE873
:1027100090E190934B0580934A0580EC9EE015C0B4
:1027200010924B0510924A0580EE9DE00EC086EE99
:1027300090E10E9442180E94DB0A81E69FE090939C
:102740004B0580934A0588E793E190934F0580936A
:102750004E0589E193E190935105809350050895CA
:1027600081E00E949C0E882391F18D3089F018F44D
:102770008A3071F014C0883511F0883781F48DE803
:1027800090E190934B0580934A0580EC9EE015C044
:1027900010924B0510924A058FEC95E10EC086EE23
:1027A00090E10E9442180E94DB0A81EE9EE0909325
:1027B0004B0580934A0580EB93E190934F058093FE
:1027C0004E0589E193E1909351058093500508955A
:1027D00081E00E949C0E882309F442C08D3089F06C
:1027E00018F48A3071F024C0883511F0883701F56B
:1027F0008DE890E190934B0580934A0580EC9EE034
:1028000025C060E080E00E940A0C60E081E00E9448
:102810000A0C86EA91E10E9442180E94DB0A82E6D5
:102820009BE090934B0580934A0581E394E10EC0B1
:1028300086EE90E10E9442180E94DB0A8BEB9CE03E
:1028400090934B0580934A0588EE93E190934F0552
:1028500080934E0589E193E1909351058093500553
:10286000089581E00E949C0E882309F442C08D30B7
:1028700089F018F48A3071F024C0883511F0883757
:1028800001F58DE890E190934B0580934A0580EC2B
:102890009EE025C060E080E00E940A0C61E081E0DB
:1028A0000E940A0C86EA91E10E9442180E94DB0A0B
:1028B00086E99AE090934B0580934A058AE794E174
:1028C0000EC086EE90E10E9442180E94DB0A82E66A
:1028D0009BE090934B0580934A0581E394E19093AC
:1028E0004F0580934E0589E193E1909351058093C4
:1028F0005005089581E00E949C0E882309F442C08F
:102900008D3089F018F48A3071F024C0883511F0C8
:10291000883701F58DE890E190934B0580934A0547
:1029200080EC9EE025C060E080E00E940A0C60E040
:1029300081E00E940A0C86EA91E10E9442180E94FE
:10294000DB0A8CE19AE090934B0580934A0583EC77
:1029500094E10EC086EE90E10E9442180E94DB0ACC
:1029600086E99AE090934B0580934A058AE794E1C3
:1029700090934F0580934E0589E193E19093510523
:1029800080935005089581E00E949C0E882309F4ED
:1029900042C08D3089F018F48A3071F024C0883537
:1029A00011F0883701F58DE890E190934B05809305
:1029B0004A0580EC9EE025C060E080E00E940A0CA1
:1029C00060E081E00E940A0C86EA91E10E944218D0
:1029D0000E94DB0A85E399E090934B0580934A05BA
:1029E0008CE095E10EC086EE90E10E9442180E94B4
:1029F000DB0A8CE19AE090934B0580934A0583ECC7
:102A000094E190934F0580934E0589E193E1909373
:102A1000510580935005089581E00E949C0E882303
:102A200009F442C08D3089F018F48A3071F024C066
:102A3000883511F0883701F58DE890E190934B05CA
:102A400080934A0580EC9EE025C061E080E00E9412
:102A50000A0C60E081E00E940A0C86EA91E10E9483
:102A600042180E94DB0A82ED97E090934B05809319
:102A70004A0589E191E10EC086EE90E10E9442187C
:102A80000E94DB0A8CE19AE090934B0580934A0503
:102A90008CE095E190934F0580934E0589E193E199
:102AA0009093510580935005089581E00E949C0EFB
:102AB0008823D1F18D3089F018F48A3071F01CC070
:102AC000883511F08837C1F48DE890E190934B057B
:102AD00080934A0580EC9EE01DC086EA91E10E9449
:102AE00042180E94DB0A81E995E090934B058093A0
:102AF0004A0583E292E10EC086EE90E10E94421800
:102B00000E94DB0A87EC96E090934B0580934A0580
:102B100085E595E190934F0580934E0589E193E11A
:102B20009093510580935005089581E00E949C0E7A
:102B30008823A1F18D3089F018F48A3071F016C025
:102B4000883511F0883791F48DE890E190934B052A
:102B500080934A0580EC9EE017C081E69FE0909349
:102B60004B0580934A0588E793E10EC086EE90E11D
:102B70000E9442180E94DB0A88E694E090934B057D
:102B800080934A0585E995E190934F0580934E0522
:102B900089E193E1909351058093500508956EE388
:102BA00071E082E00E94410D811108C08FEC95E137
:102BB0000E94220C60E081E00C940A0C62E471E057
:102BC00084E00E94410D882389F386EA91E10E9406
:102BD00042180E94DB0A80E69EE090934B058093AA
:102BE0004A058DE096E190934F0580934E0589E16B
:102BF00093E1909351058093500561E080E00E943D
:102C00000A0C8AEF90E00E947F1861E081E00E9448
:102C10000A0C8AEF90E00C947F18CF93DF9300D0DA
:102C200000D000D0CDB7DEB781E00E949C0E8111AC
:102C300093C0AE014F5F5F4FBE016D5F7F4FCE010E
:102C400005960E94B20C2D813E8149815A81B901BD
:102C50006659710980913C0190913D0146175707D3
:102C6000B8F1645D7E4F6417750790F1805991400B
:102C70004817590708F095C089E89DE00E9442185E
:102C80000E94DB0A8E818F938D818F9381E08F93D9
:102C900080E98F9380913D018F9380913C018F93C8
:102CA0008BED93E09F938F9387E595E09F938F93B0
:102CB0000E94031987E595E00E94DB0A8DE096E10A
:102CC0000E94220C0FB6F894DEBF0FBECDBF69C0C4
:102CD000AC01405951404217530770F680579E4F40
:102CE0002817390748F686EA91E10E9442180E94A7
:102CF000DB0A8E818F938D818F9388E094E09F9380
:102D00008F9387E595E09F938F930E94031987E542
:102D100095E00E94DB0A8FED9DE090934B05809338
:102D20004A058AED96E190934F0580934E0589E11F
:102D300093E1909351058093500584EF91E00E94B8
:102D40005A180F900F900F900F900F900F900E94B5
:102D500077188823E1F325C0883511F0883749F4C6
:102D60008DE890E190934B0580934A0580EC9EE0BE
:102D70000EC086EE90E10E9442180E94DB0A80E6B7
:102D80009EE090934B0580934A058DE096E19093E9
:102D90004F0580934E0589E193E19093510580930F
:102DA000500526960FB6F894DEBF0FBECDBFDF915B
:102DB000CF910895CF93DF9300D000D000D0CDB74E
:102DC000DEB781E00E949C0E811195C0AE014F5F7D
:102DD0005F4FBE016D5F7F4FCE0105960E94B20C22
:102DE0002B813C8169817A81F901E659F109809151
:102DF0003A0190913B014D815E816E177F07B8F1DA
:102E00002A563F4F2617370790F180579E4F841759
:102E1000950708F095C08BE59DE00E9442180E943E
:102E2000DB0A8E818F938D818F9381E08F9380E970
:102E30008F9380913B018F9380913A018F938BED1B
:102E400093E09F938F9387E595E09F938F930E94E4
:102E5000031987E595E00E94DB0A8AED96E10E945E
:102E6000220C0FB6F894DEBF0FBECDBF69C09C0127
:102E7000205931402417350770F680579E4F481768
:102E8000590748F686EA91E10E9442180E94DB0A3F
:102E90008E818F938D818F9388E294E09F938F939F
:102EA00087E595E09F938F930E94031987E595E04E
:102EB0000E94DB0A60E080E00E940A0C60E081E092
:102EC0000E940A0C8BEB9CE090934B0580934A0583
:102ED00088EE93E190934F0580934E0589E193E14D
:102EE00090935105809350050F900F900F900F9085
:102EF0000F900F9025C0883511F0883749F48DE880
:102F000090E190934B0580934A0580EC9EE00EC0C3
:102F100086EE90E10E9442180E94DB0A80E69EE065
:102F200090934B0580934A058DE096E190934F0571
:102F300080934E0589E193E190935105809350056C
:102F400026960FB6F894DEBF0FBECDBFDF91CF91AE
:102F5000089581E00E949C0E8823A1F18D3089F0B4
:102F600018F48A3071F016C0883511F0883791F462
:102F70008DE890E190934B0580934A0580EC9EE0AC
:102F800017C080914C0590914D0510924B05109201
:102F90004A050EC086EE90E10E9442180E94DB0AAC
:102FA00087EB9DE090934B0580934A0589EA97E172
:102FB00090934F0580934E0589E193E190935105DD
:102FC0008093500508958BE691E10E9442180E947B
:102FD000DB0A81E091E10E9442180E94DB0A0E9414
:102FE000BD180E9442189F938F9388E494E09F93AA
:102FF0008F9387E595E09F938F930E94031987E550
:1030000095E00E94DB0A8DE890E190934B05809358
:103010004A0580EC9EE090934F0580934E0589E130
:1030200093E190935105809350050F900F900F906E
:103030000F900F900F900895E0915005F091510579
:10304000309709F009940895A9E8B5E020E030E050
:103050002617370741F0FC01E20FF31FE491ED93CF
:103060002F5F3F4FF5CF89E895E008959C0180E000
:1030700090E0F901E80FF91FE491EE2311F00196B9
:10308000F8CF0895CF93DF93EC010E943618BC016E
:103090006F5F7F4FCE01DF91CF910C942418109277
:1030A0005605109255051092540510925305109232
:1030B0005205089590935605809355051092540536
:1030C0001092530510928500109284008AEF90E0D0
:1030D0009093890080938800EFE6F0E08081826021
:1030E0008083E1E8F0E080818360808308958091AF
:1030F0005205882319F01092520581E008950E942C
:103100005A180E9477188823E1F308951F920F92AE
:103110000FB60F9211242F933F938F939F9380911B
:10312000530590915405019690935405809353054F
:1031300020915505309156058217930759F4109246
:10314000810080916F008D7F80936F0081E080937C
:1031500052050AC0809188009091890086509F4F47
:1031600090938900809388009F918F913F912F9138
:103170000F900FBE0F901F90189581EC91E108956C
:10318000A1E21A2EAA1BBB1BFD010DC0AA1FBB1F6B
:10319000EE1FFF1FA217B307E407F50720F0A21BDD
:1031A000B30BE40BF50B661F771F881F991F1A944A
:1031B00069F760957095809590959B01AC01BD0174
:1031C000CF0108950E94ED18A59F900DB49F900D1A
:1031D000A49F800D911D11240895A29FB001B39F5B
:1031E000C001A39F700D811D1124911DB29F700D10
:1031F000811D1124911D0895FB01DC0101900D92A8
:103200000020E1F70895AEE0B0E0E9E0F9E10C94C8
:10321000C41B0D891E8986E08C831A8309838FEF76
:103220009FE79E838D83AE01475E5F4F6F89788DE8
:10323000CE0101960E942519EF81F885E00FF11F5C
:1032400010822E96E4E00C94E01BABE0B0E0EBE2E1
:10325000F9E10C94B61B6C017B018A01FC01178219
:103260001682838181FFCCC1CE0101963C01F6011B
:103270009381F70193FD859193FF81917F018823CD
:1032800009F4BAC1853239F493FD859193FF819198
:103290007F01853229F4B60190E00E941C1BE7CF24
:1032A000912C212C312CFFE1F315D8F08B3279F0E1
:1032B00038F4803279F08332A1F4232D20611DC0CF
:1032C0008D3261F0803369F4232D216016C0832D87
:1032D0008260382EE32DE4603E2E2AC0F32DF86084
:1032E0001DC037FC2DC020ED280F2A3040F08E3253
:1032F000B9F436FC81C1232D2064322E19C036FE6C
:1033000006C08AE0989E200D1124922E11C0EAE09A
:103310002E9E200D1124222EF32DF0623F2E08C088
:103320008C3621F4832D8068382E02C0883641F413
:10333000F70193FD859193FF81917F018111B3CFB7
:10334000982F9F7D9554933028F40C5F1F4F9FE377
:1033500099830DC0833631F0833771F0833509F0DE
:1033600059C021C0F801808189830E5F1F4F8824D6
:103370008394912C530113C02801F2E04F0E511C8D
:10338000F801A080B18036FE03C0692D70E002C054
:103390006FEF7FEFC5010E94111B4C018201F32DDD
:1033A000FF773F2E16C0280122E0420E511CF80183
:1033B000A080B18036FE03C0692D70E002C06FEFBF
:1033C0007FEFC5010E94061B4C01F32DF0683F2ED4
:1033D000820133FC1BC0822D90E088169906B0F460
:1033E000B60180E290E00E941C1B2A94F4CFF50104
:1033F00037FC859137FE81915F01B60190E00E9414
:103400001C1B21102A9421E0821A91088114910436
:1034100071F7E8C0843611F0893641F5F80137FEBE
:1034200007C060817181828193810C5F1F4F08C04A
:1034300060817181072E000C880B990B0E5F1F4F66
:10344000F32DFF763F2E97FF09C0909580957095DC
:1034500061957F4F8F4F9F4FF0683F2E2AE030E0FD
:10346000A3010E94581B882E861845C0853731F469
:10347000232D2F7EB22E2AE030E025C0932D997F98
:10348000B92E8F36C1F018F4883579F0B5C0803781
:1034900019F0883721F0B0C0E92FE061BE2EB4FEEC
:1034A0000DC0FB2DF460BF2E09C034FE0AC0292FC9
:1034B0002660B22E06C028E030E005C020E130E0F2
:1034C00002C020E132E0F801B7FE07C060817181DF
:1034D000828193810C5F1F4F06C06081718180E003
:1034E00090E00E5F1F4FA3010E94581B882E861884
:1034F000FB2DFF773F2E36FE0DC0232D2E7FA22EF3
:10350000891458F434FE0BC032FC09C0832D8E7E22
:10351000A82E05C0B82CA32C03C0B82C01C0B92C10
:10352000A4FE0FC0FE01E80DF11D8081803321F45F
:103530009A2D997EA92E09C0A2FE06C0B394B39419
:1035400004C08A2D867809F0B394A3FC11C0A0FEB4
:1035500006C0B21488F4280C922C9B180EC0B2142A
:1035600060F4B60180E290E00E941C1BB394F7CF98
:10357000B21418F42B1802C0982C212CA4FE10C0F1
:10358000B60180E390E00E941C1BA2FE17C0A1FCC4
:1035900003C088E790E002C088E590E0B6010CC067
:1035A0008A2D867859F0A1FE02C08BE201C080E22C
:1035B000A7FC8DE2B60190E00E941C1B891438F430
:1035C000B60180E390E00E941C1B9A94F7CF8A9486
:1035D000F301E80DF11D8081B60190E00E941C1BF3
:1035E0008110F5CF222009F442CEB60180E290E0AE
:1035F0000E941C1B2A94F6CFF6018681978102C097
:103600008FEF9FEF2B96E2E10C94D21BFC0105900B
:10361000615070400110D8F7809590958E0F9F1FD4
:103620000895FC016150704001900110D8F7809519
:1036300090958E0F9F1F08950F931F93CF93DF9345
:10364000FB01238121FD03C08FEF9FEF2CC022FFE0
:1036500016C046815781248135814217530744F4AF
:10366000A081B1819D012F5F3F4F318320838C93D7
:10367000268137812F5F3F4F3783268314C08B010C
:10368000EC01FB010084F185E02D0995892BE1F621
:10369000D80116968D919C911797019617969C9339
:1036A0008E931697CE01DF91CF911F910F910895C0
:1036B000FA01AA27283051F1203181F1E8946F9363
:1036C0006E7F6E5F7F4F8F4F9F4FAF4FB1E03ED009
:1036D000B4E03CD0670F781F891F9A1FA11D680FA7
:1036E000791F8A1F911DA11D6A0F711D811D911DDA
:1036F000A11D20D009F468943F912AE0269F11244F
:103700003019305D3193DEF6CF010895462F4770B2
:10371000405D4193B3E00FD0C9F7F6CF462F4F700D
:10372000405D4A3318F0495D31FD4052419302D06B
:10373000A9F7EACFB4E0A695979587957795679511
:10374000BA95C9F700976105710508959B01AC0111
:103750000A2E06945795479537952795BA95C9F738
:10376000620F731F841F951FA01D08952F923F9213
:103770004F925F926F927F928F929F92AF92BF9281
:10378000CF92DF92EF92FF920F931F93CF93DF932D
:10379000CDB7DEB7CA1BDB0B0FB6F894DEBF0FBE8A
:1037A000CDBF09942A88398848885F846E847D84D7
:1037B0008C849B84AA84B984C884DF80EE80FD80D9
:1037C0000C811B81AA81B981CE0FD11D0FB6F8944F
:0E37D000DEBF0FBECDBFED010895F894FFCF10
:1037DE00290122011B0112010A01335633204F55D4
:1037EE00540056424154204F5554002B3556204913
:1037FE004E00494E544241540045585442415400E3
:10380E007D019401B001C601DC05C832C02B8813BE
:10381E009600E40C9600983A6400B0366400A40F4B
:10382E000000A40F0000D2070000A40F0000E9035F
:10383E00000001020306070A0A0D53595354454D61
:10384E00204552524F520A0D25730A0D000A0D5390
:10385E00657269616C204672616D696E6720457292
:10386E00726F72000A0D53657269616C2044617447
:10387E0061204F76657272756E204572726F72009E
:10388E000A0D53657269616C2050617269747920FA
:10389E004572726F72000A0D53657269616C205425
:1038AE005820627566206F766572666C6F7720455C
:1038BE0072726F7200455854424154203D20257358
:1038CE000A0D00494E54424154203D2025730A0DE5
:1038DE000050464C4F4144203D2025730A0D0020D8
:1038EE0020253035752020202530357520202025C7
:1038FE003035750D002025303575002573203D209F
:10390E0025756D56202D20000A0A0D2A2A2A2025FB
:10391E007320566F6C7461676520746F6F206869D1
:10392E006768202D2025756D56202B2F2D2025758F
:10393E006D56202A2A2A0A0D000A0A0D2A2A2A2042
:10394E00257320566F6C7461676520746F6F206CE1
:10395E006F77202D2025756D56202B2F2D20257548
:10396E006D56202A2A2A0A0D00424C554500475210
:10397E0045454E0052454400446973706C61796947
:10398E006E67204572726F7220436F6465203078C7
:10399E002530327825303278204C4544206973200A
:1039AE00257320202020200D000A0A0D4C6F77650C
:1039BE0072205468726573686F6C64203D202530E8
:1039CE0035646D560A0D55707065722054687265B7
:1039DE0073686F6C64203D20253035646D560A0D7A
:1039EE00506F6C7966757365205468726573686F75
:1039FE006C64203D20253035646D560A0A0D000A90
:103A0E000A0D506F6C7966757365202054696D656B
:103A1E000A0D0020253034646D56202020202564A8
:103A2E000D00200A0A0D504F4C594655534520544F
:103A3E0065737420504153533A20566F6C7461670E
:103A4E0065206166746572202564207365636F6EF0
:103A5E006473203D20253035646D5600200A0A0D12
:103A6E00504F4C594655534520546573742046416A
:103A7E00494C3A20566F6C746167652061667465B7
:103A8E0072202564207365636F6E6473203D20255C
:103A9E003035646D5620285468726573686F6C6497
:103AAE00203D20253035646D5629000A0D5468726C
:103ABE006573686F6C64203D2025646D56202B2F36
:103ACE002D2025646D560A0D455854424154203D13
:103ADE002025646D560A0D000A0A0D074C6F776596
:103AEE0072205468726573686F6C64204F4B20406F
:103AFE002025756D560A0D000A0A0D075570706562
:103B0E0072205468726573686F6C64204F4B20404E
:0E3B1E002025756D560A0D0025730A0A0D004C
:00000001FF
