:100000000C94B7010C94D4010C94D4010C94D40139
:100010000C94D4010C94D4010C94D4010C94D4010C
:100020000C94D4010C94D4010C94D4010C94D401FC
:100030000C94D4010C94D4010C94D4010C94D401EC
:100040000C94D4010C94D4010C9458030C949D028C
:100050000C94D4010C9400020C94D4010C94D4019F
:100060000C94D4010C94D4010A0A0A0A0D414443A9
:100070002044656275670A0D3D3D3D3D3D3D3D3D7A
:100080003D0A0A0D0A0D5072657373205820746F73
:1000900020657869740A0A0D000A0A0A0A0D4932B5
:1000A0004320546573740A0D3D3D3D3D3D3D3D3D4E
:1000B0000A0A0D456E7375726520746865204D6F70
:1000C00064756C652069732050726F6772616D6D25
:1000D00065642061732061204D61737465720A0D3F
:1000E000436F6E6E6563742074686520546F75632A
:1000F000682050616E656C204C434420746F2074FE
:100100006865204D6F64756C6520616E642073773F
:1001100069746368204F4E0A0A0D54686520272BC6
:1001200027206B65792077696C6C20696E63726536
:100130006D656E742074686520414D5020434F44B6
:10014000452076616C756520646973706C617965B2
:100150006420627920310A0D54686520272D2720FC
:100160006B65792077696C6C2064656372656D6579
:100170006E742074686520414D5020434F444520E3
:1001800076616C756520646973706C617965642053
:10019000627920310A0D5072657373202758272029
:1001A000746F2072657475726E20746F205465735D
:1001B00074204D656E750A0A0D000A0A0A0A0D447C
:1001C00045425547204D454E550A0D3D3D3D3D3D6F
:1001D0003D3D3D3D3D3D3D3D0A0D41202D204144ED
:1001E0004320746573740A0D58202D204578697476
:1001F00020746F205374617274204D656E750A0D02
:10020000000A0A0A0A0D54455354204D454E550A1A
:100210000D3D3D3D3D3D3D3D3D3D3D3D3D0A0D4995
:10022000202D2049324320746573740A0D58202D07
:10023000204578697420746F205374617274204D66
:10024000656E750A0D000A0A0D5374617274204DB3
:10025000454E550A0D3D3D3D3D3D3D3D3D3D3D3D00
:100260003D0A0D54202D20426F6172642074657325
:1002700074730A0D44202D204465627567204D6516
:100280006E750A0D3C454E5445523E2D20546F204C
:10029000726566726573682073637265656E0A0ABB
:1002A0000D0020436F6D6D616E64206E6F74206968
:1002B0006D706C656D656E7465640A0D000A0A0DDB
:1002C0004545472042617474657279204D6F6475AD
:1002D0006C65202D20493243205465737420536F80
:1002E0006674776172650A0D3D3D3D3D3D3D3D3D86
:1002F0003D3D3D3D3D3D3D3D3D3D3D3D3D3D3D3D2E
:100300003D3D3D3D3D3D3D3D3D3D3D3D3D3D0A0D80
:10031000544A303030303034204669726D77617223
:10032000652049643A20000A0A0A0A0A0A0A0A0AE7
:100330000A0A0D28632920436F707972696768740F
:1003400020546865204D61677374696D20436F6D3B
:1003500070616E79204C74642E20323032350A0A76
:100360000D000A0D005665722050312E3000112408
:100370001FBECFEFD8E0DEBFCDBF11E0A0E0B1E0FF
:10038000E0E9F3E102C005900D92A23CB107D9F774
:1003900023E0A2ECB1E001C01D92A03AB207E1F760
:1003A0000E9424040C94C6090C9400001092C2010F
:1003B000E091C201F0E0E45EFE4F808180937C001A
:1003C00010927B0080E090E029E0289FF001299FB7
:1003D000F00D1124ED53FE4F108211821282138210
:1003E0001582148217821682108601968530910537
:1003F00061F78FEC80937A00089510927A00089547
:100400001F920F920FB60F9211242F933F938F9349
:100410009F93AF93BF93EF93FF9320917800309118
:100420007900E091C2018091C2018F5F8093C20187
:10043000853010F01092C201A091C201B0E0A45E1C
:10044000BE4F8C9180937C008FEC80937A0089E082
:10045000E89FF0011124ED53FE4F80819181A2812C
:10046000B381820F931FA11DB11D80839183A2834D
:10047000B383868197810196978386838F3F910509
:1004800099F090F01782168280819181A281B381C8
:10049000892F9A2FAB2FBB279583848310821182DB
:1004A0001282138281E08087FF91EF91BF91AF911B
:1004B0009F918F913F912F910F900FBE0F901F90A2
:1004C00018950F931F93CF93DF938C01C62FD0E025
:1004D00089E0689FF0011124ED53FE4F8085882349
:1004E00099F0A481B581CC0FDD1FCC0FDD1FC85F53
:1004F000DE4F288139814A815B810E94BB06D80189
:100500008D939C93108681E0DF91CF911F910F9185
:1005100008951092B1021092B0021092AF021092A0
:10052000AE021092C50087E68093C40086E08093F7
:10053000C20088E98093C10008951F920F920FB600
:100540000F9211248F939F93EF93FF939091AF029B
:100550008091AE02981306C08091C1008F7D809378
:10056000C10011C0E091AE02F0E0E650FE4F808184
:100570008093C6008091AE028F5F8093AE02843B71
:1005800010F01092AE02FF91EF919F918F910F901A
:100590000FBE0F901F901895F8942091AF0230E095
:1005A0008091AE027894482F50E02417350710F45C
:1005B0002C543F4F8D54821B08951F93CF93DF938C
:1005C000D82F192FC62F0E94CC028C17E0F38091F0
:1005D000AF022D2FED2FF12F9E2F921B9C1758F459
:1005E0009191A82FB0E0A650BE4F9C938F5F843BA3
:1005F00098F380E0F1CFF8948093AF028091C1002E
:1006000085FD16C0E091AE02F0E0E650FE4F80811D
:100610008093C6008091AE028F5F8093AE02843BD0
:1006200010F01092AE028091C10080628093C100F0
:10063000789484E0DF91CF911F910895CF93DF9359
:10064000FC0101900020E9F73197EF01C81BD90B9D
:100650006C2F0E94DD02843011F48C2F01C080E0E9
:10066000DF91CF910895CF93C82F1092C1000E94BF
:100670008902EC2FF0E0EE0FFF1FE050FF4F818169
:100680008F9380818F9381E291E09F938F9389EB89
:1006900092E09F938F930E94DC060F900F900F9033
:1006A0000F900F900F9089EB92E0CF910C941E0366
:1006B0001F920F920FB60F9211242F933F934F93D7
:1006C0005F936F937F938F939F93AF93BF93EF93BA
:1006D000FF939091C0008091C600E091B102F0E0DC
:1006E000E051FE4F80838091B1028F5F8093B10211
:1006F0008A3010F01092B102892F8C7159F094FF5A
:1007000002C080E005C093FF02C081E001C082E02A
:100710000E943303FF91EF91BF91AF919F918F9111
:100720007F916F915F914F913F912F910F900FBEED
:100730000F901F9018953091B1022091B00232179E
:10074000A9F0F894E091B002F0E0E051FE4F208172
:10075000FC0120838091B0028F5F8093B0028A30C9
:1007600010F01092B002789484E0089580E008952B
:10077000CF93DF931F92CDB7DEB78FEF9FEF20911E
:10078000BC002983298127FD02C00197C1F70F9082
:10079000DF91CF9108958CE08093B800ECEBF0E00E
:1007A0008081846080830895FF920F931F93CF937D
:1007B000DF93C82F162FF42E052F84EA8093BC00F8
:1007C0000E94B803CC0FC093BB0084E88093BC00A8
:1007D0000E94B803CF2DD02FCE01810F911D8C0127
:1007E00084E8F82EC017D10741F089918093BB00AF
:1007F000F092BC000E94B803F5CF8091B90094E953
:100800009093BC00DF91CF911F910F91FF900895BD
:100810001092B800ECEBF0E080818B7F808308952C
:10082000579A5F985F9A5F985F9A5F985F9A5F9810
:100830008EE080937E0087E084B985B1887F85B99A
:1008400084E08AB95A9A08950E9410040E9489028D
:100850000E94D6010E944C060E948506FDCFCF93D0
:10086000DF9300D000D01F92CDB7DEB70E94CB033C
:1008700081E08093B2021F928F938FE991E09F9362
:100880008F9389EB92E09F938F930E94DC0689EB14
:1008900092E00E941E0381E189838091B2028A83E3
:1008A000AE014F5F5F4F62E080E10E94D40310927F
:1008B000B4021092B3028CEE95E09093B60280934E
:1008C000B50281E095E09093B8028093B7020F9053
:1008D0000F900F900F900F900F900F900F900F9020
:1008E0000F900F90DF91CF9108951F93CF93DF93D7
:1008F0001F92CDB7DEB7182FCE0101960E949B0341
:10090000882391F0112379F089818D3039F482E6C2
:1009100093E00E94AB060E941E0305C061E0CE0179
:1009200001960E94DD0289810F90DF91CF911F9186
:100930000895CF92DF92EF92FF920F931F93CF9380
:10094000DF9300D0CDB7DEB700E010E080EBE82EFB
:1009500081E0F82E99EBC92E92E0D92E602FCE01BE
:1009600001960E9461028823A9F08A818F93898170
:100970008F931F930F93FF92EF92DF92CF920E947B
:10098000DC0689EB92E00E941E030FB6F894DEBFEE
:100990000FBECDBF0F5F1F4F05301105F9F66FEB8E
:1009A00071E089EB92E00E94D50689EB92E00E940B
:1009B0001E0381E00E9475048823C1F0883511F080
:1009C0008837A1F40E94FD018AEB91E09093B40274
:1009D0008093B3028CE795E09093B6028093B502C2
:1009E00081E095E09093B8028093B7020F900F904A
:1009F000DF91CF911F910F91FF90EF90DF90CF90FB
:100A00000895CF93DF938091B3029091B402009741
:100A100071F10E949F06EC01833B910510F0C2EB3F
:100A2000D0E00E94CC0290E08C179D07D0F3BE016D
:100A30008091B3029091B4020E948D062091B3027E
:100A40003091B4022C0F3D1F3093B4022093B302B7
:100A50006C2F0E94DD02E091B302F091B402E491A8
:100A6000E1110DC01092B4021092B30208C080913F
:100A7000B5029091B6029093B8028093B702DF91CD
:100A8000CF91089581E00E9475048823A1F18435F7
:100A900041F018F4843471F016C0843659F084376C
:100AA00091F481E092E09093B4028093B30287EBDB
:100AB00095E017C08AEB91E09093B4028093B30263
:100AC0008CE795E00EC082EA92E00E94AB060E949D
:100AD0001E0386E492E09093B4028093B30282E412
:100AE00095E09093B6028093B50281E095E09093F3
:100AF000B8028093B702089581E00E9475048823AC
:100B0000A9F1883591F018F4813431F017C081369D
:100B100019F0883751F012C088E690E09093B40243
:100B20008093B30289E994E017C086E492E0909341
:100B3000B4028093B30282E495E00EC082EA92E0B0
:100B40000E94AB060E941E038AEB91E09093B402D0
:100B50008093B3028CE795E09093B6028093B50240
:100B600081E095E09093B8028093B702089581E008
:100B70000E947504882379F1883591F018F489343E
:100B800031F017C0893619F0883751F012C089E961
:100B900090E09093B4028093B3028FE294E011C08E
:100BA00086E492E09093B4028093B30282E495E0ED
:100BB00008C08AEB91E09093B4028093B3028CE773
:100BC00095E09093B6028093B50281E095E0909312
:100BD000B8028093B7020895CF93DF9300D000D07E
:100BE0001F92CDB7DEB780E00E947504882309F418
:100BF0004BC08D3201F130F48B3211F58091B2028D
:100C00008F5F1CC0883511F08837D1F40E9408042A
:100C100081E092E09093B4028093B30287EB95E079
:100C20009093B6028093B50281E095E09093B8026C
:100C30008093B70229C08091B20281508093B202A2
:100C40008091B2021F928F938FE991E09F938F93CF
:100C500089EB92E09F938F930E94DC0689EB92E0F0
:100C60000E941E0381E189838091B2028A83AE01D2
:100C70004F5F5F4F62E080E10E94D4030F900F90BE
:100C80000F900F900F900F900F900F900F900F906C
:100C90000F90DF91CF91089587E293E00E94AB0619
:100CA0000E941E038DEB92E00E94AB060E941E0381
:100CB0000E94B8060E94AB069F938F938BEB91E046
:100CC0009F938F9389EB92E09F938F930E94DC0612
:100CD00089EB92E00E941E0386E492E09093B402B6
:100CE0008093B30282E495E09093B6028093B502BC
:100CF00081E095E09093B8028093B7020F900F9037
:100D00000F900F900F900F900895E091B702F0911F
:100D1000B802309709F009940895ABEEB2E020E0F4
:100D200030E02617370741F0FC01E20FF31FE49192
:100D3000ED932F5F3F4FF5CF8BEE92E008959C012E
:100D400080E090E0F901E80FF91FE491EE2311F043
:100D50000196F8CF0895CF93DF93EC010E949F0690
:100D6000BC016F5F7F4FCE01DF91CF910C948D0658
:100D700085E693E008950E94C606A59F900DB49F56
:100D8000900DA49F800D911D11240895A29FB00184
:100D9000B39FC001A39F700D811D1124911DB29FAF
:100DA000700D811D1124911D0895FB01DC0101903E
:100DB0000D920020E1F70895AEE0B0E0E2EEF6E03B
:100DC0000C949D090D891E8986E08C831A83098302
:100DD0008FEF9FE79E838D83AE01475E5F4F6F89E4
:100DE000788DCE0101960E94FE06EF81F885E00F16
:100DF000F11F10822E96E4E00C94B909ABE0B0E04C
:100E0000E4E0F7E00C948F096C017B018A01FC019E
:100E100017821682838181FFCCC1CE0101963C01ED
:100E2000F6019381F70193FD859193FF81917F01F5
:100E3000882309F4BAC1853239F493FD859193FF73
:100E400081917F01853229F4B60190E00E94F50876
:100E5000E7CF912C212C312CFFE1F315D8F08B3208
:100E600079F038F4803279F08332A1F4232D2061B7
:100E70001DC08D3261F0803369F4232D216016C0CE
:100E8000832D8260382EE32DE4603E2E2AC0F32DA0
:100E9000F8601DC037FC2DC020ED280F2A3040F02F
:100EA0008E32B9F436FC81C1232D2064322E19C054
:100EB00036FE06C08AE0989E200D1124922E11C0A5
:100EC000EAE02E9E200D1124222EF32DF0623F2EFB
:100ED00008C08C3621F4832D8068382E02C08836F5
:100EE00041F4F70193FD859193FF81917F01811179
:100EF000B3CF982F9F7D9554933028F40C5F1F4FEC
:100F00009FE399830DC0833631F0833771F08335C9
:100F100009F059C021C0F801808189830E5F1F4FFD
:100F200088248394912C530113C02801F2E04F0EC2
:100F3000511CF801A080B18036FE03C0692D70E01D
:100F400002C06FEF7FEFC5010E94EA084C018201E9
:100F5000F32DFF773F2E16C0280122E0420E511CD0
:100F6000F801A080B18036FE03C0692D70E002C098
:100F70006FEF7FEFC5010E94DF084C01F32DF06891
:100F80003F2E820133FC1BC0822D90E0881699060B
:100F9000B0F4B60180E290E00E94F5082A94F4CF04
:100FA000F50137FC859137FE81915F01B60190E034
:100FB0000E94F50821102A9421E0821A91088114D8
:100FC000910471F7E8C0843611F0893641F5F801D3
:100FD00037FE07C060817181828193810C5F1F4F52
:100FE00008C060817181072E000C880B990B0E5F81
:100FF0001F4FF32DFF763F2E97FF09C090958095E8
:10100000709561957F4F8F4F9F4FF0683F2E2AE07C
:1010100030E0A3010E943109882E861845C085372B
:1010200031F4232D2F7EB22E2AE030E025C0932DFF
:10103000997FB92E8F36C1F018F4883579F0B5C094
:10104000803719F0883721F0B0C0E92FE061BE2E5B
:10105000B4FE0DC0FB2DF460BF2E09C034FE0AC0E3
:10106000292F2660B22E06C028E030E005C020E11E
:1010700030E002C020E132E0F801B7FE07C0608135
:101080007181828193810C5F1F4F06C060817181E5
:1010900080E090E00E5F1F4FA3010E943109882E6F
:1010A0008618FB2DFF773F2E36FE0DC0232D2E7F99
:1010B000A22E891458F434FE0BC032FC09C0832DD3
:1010C0008E7EA82E05C0B82CA32C03C0B82C01C05E
:1010D000B92CA4FE0FC0FE01E80DF11D8081803304
:1010E00021F49A2D997EA92E09C0A2FE06C0B394C0
:1010F000B39404C08A2D867809F0B394A3FC11C080
:10110000A0FE06C0B21488F4280C922C9B180EC0C6
:10111000B21460F4B60180E290E00E94F508B39446
:10112000F7CFB21418F42B1802C0982C212CA4FE6F
:1011300010C0B60180E390E00E94F508A2FE17C03F
:10114000A1FC03C088E790E002C088E590E0B6010A
:101150000CC08A2D867859F0A1FE02C08BE201C036
:1011600080E2A7FC8DE2B60190E00E94F5088914A8
:1011700038F4B60180E390E00E94F5089A94F7CF26
:101180008A94F301E80DF11D8081B60190E00E9480
:10119000F5088110F5CF222009F442CEB60180E295
:1011A00090E00E94F5082A94F6CFF6018681978197
:1011B00002C08FEF9FEF2B96E2E10C94AB09FC018C
:1011C0000590615070400110D8F7809590958E0F72
:1011D0009F1F0895FC016150704001900110D8F7E5
:1011E000809590958E0F9F1F08950F931F93CF9317
:1011F000DF93FB01238121FD03C08FEF9FEF2CC004
:1012000022FF16C04681578124813581421753073A
:1012100044F4A081B1819D012F5F3F4F3183208332
:101220008C93268137812F5F3F4F3783268314C0ED
:101230008B01EC01FB010084F185E02D0995892BE0
:10124000E1F6D80116968D919C9117970196179605
:101250009C938E931697CE01DF91CF911F910F91A2
:101260000895FA01AA27283051F1203181F1E8943C
:101270006F936E7F6E5F7F4F8F4F9F4FAF4FB1E089
:101280003ED0B4E03CD0670F781F891F9A1FA11D84
:10129000680F791F8A1F911DA11D6A0F711D811D85
:1012A000911DA11D20D009F468943F912AE0269F4A
:1012B00011243019305D3193DEF6CF010895462FA9
:1012C0004770405D4193B3E00FD0C9F7F6CF462F8A
:1012D0004F70405D4A3318F0495D31FD40524193F3
:1012E00002D0A9F7EACFB4E0A695979587957795B0
:1012F0006795BA95C9F700976105710508959B0137
:10130000AC010A2E06945795479537952795BA95BF
:10131000C9F7620F731F841F951FA01D08952F9298
:101320003F924F925F926F927F928F929F92AF9275
:10133000BF92CF92DF92EF92FF920F931F93CF93C2
:10134000DF93CDB7DEB7CA1BDB0B0FB6F894DEBF59
:101350000FBECDBF09942A88398848885F846E847F
:101360007D848C849B84AA84B984C884DF80EE80C9
:10137000FD800C811B81AA81B981CE0FD11D0FB6D2
:10138000F894DEBF0FBECDBFED010895F894FFCFF6
:1013900037014E016A018001E8A30F00E8A30F00A6
:1013A000F4D10700E8A30F00FAE8030001020306E6
:1013B000070A0A0D53595354454D204552524F5276
:1013C0000A0D25730A0D000A0D53657269616C20C0
:1013D0004672616D696E67204572726F72000A0D08
:1013E00053657269616C2044617461204F76657247
:1013F00072756E204572726F72000A0D53657269C4
:10140000616C20506172697479204572726F72004C
:101410000A0D53657269616C20545820627566200C
:101420006F766572666C6F77204572726F720044DA
:101430006973706C6179696E6720253032780D00B0
:1014400025643D253035756D56200025730A0A0D3B
:0214500000009A
:00000001FF
