S0130000544A3030303030345F53572E7372656346
S11300000C94B7010C94D4010C94D4010C94D40135
S11300100C94D4010C94D4010C94D4010C94D40108
S11300200C94D4010C94D4010C94D4010C94D401F8
S11300300C94D4010C94D4010C94D4010C94D401E8
S11300400C94D4010C94D4010C94AC030C94F102E0
S11300500C94D4010C9404020C94D4010C94D40197
S11300600C94D4010C94D4010A0A0A0A0D414443A5
S11300702044656275670A0D3D3D3D3D3D3D3D3D76
S11300803D0A0A0D0A0D5072657373205820746F6F
S113009020657869740A0A0D000A0A0A0A0D4932B1
S11300A04320546573740A0D3D3D3D3D3D3D3D3D4A
S11300B00A0A0D456E7375726520746865204D6F6C
S11300C064756C652069732050726F6772616D6D21
S11300D065642061732061204D61737465720A0D3B
S11300E0436F6E6E6563742074686520546F756326
S11300F0682050616E656C204C434420746F2074FA
S11301006865204D6F64756C6520616E642073773B
S113011069746368204F4E0A0A0D54686520272BC2
S113012027206B65792077696C6C20696E63726532
S11301306D656E742074686520414D5020434F44B2
S1130140452076616C756520646973706C617965AE
S11301506420627920310A0D54686520272D2720F8
S11301606B65792077696C6C2064656372656D6575
S11301706E742074686520414D5020434F444520DF
S113018076616C756520646973706C61796564204F
S1130190627920310A0D5072657373202758272025
S11301A0746F2072657475726E20746F2054657359
S11301B074204D656E750A0A0D000A0A0A0A0D4478
S11301C045425547204D454E550A0D3D3D3D3D3D6B
S11301D03D3D3D3D3D3D3D3D0A0D41202D204144E9
S11301E04320746573740A0D58202D204578697472
S11301F020746F205374617274204D656E750A0DFE
S1130200000A0A0A0A0D54455354204D454E550A16
S11302100D3D3D3D3D3D3D3D3D3D3D3D3D0A0D4991
S1130220202D2049324320746573740A0D58202D03
S1130230204578697420746F205374617274204D62
S1130240656E750A0D000A0A0D5374617274204DAF
S1130250454E550A0D3D3D3D3D3D3D3D3D3D3D3DFC
S11302603D0A0D54202D20426F6172642074657321
S113027074730A0D44202D204465627567204D6512
S11302806E750A0D3C454E5445523E2D20546F2048
S1130290726566726573682073637265656E0A0AB7
S11302A00D0020436F6D6D616E64206E6F74206964
S11302B06D706C656D656E7465640A0D000A0A0DD7
S11302C04545472042617474657279204D6F6475A9
S11302D06C65202D20493243205465737420536F7C
S11302E06674776172650A0D3D3D3D3D3D3D3D3D82
S11302F03D3D3D3D3D3D3D3D3D3D3D3D3D3D3D3D2A
S11303003D3D3D3D3D3D3D3D3D3D3D3D3D3D0A0D7C
S1130310544A303030303034204669726D7761721F
S1130320652049643A20000A0A0A0A0A0A0A0A0AE3
S11303300A0A0D28632920436F707972696768740B
S113034020546865204D61677374696D20436F6D37
S113035070616E79204C74642E20323032350A0A72
S11303600D000A0D005665722050312E3000112404
S11303701FBECFEFD8E0DEBFCDBF11E0A0E0B1E0FB
S1130380EEEEF3E102C005900D92AE3AB107D9F753
S113039023E0AEEAB1E001C01D92A337B207E1F752
S11303A00E9478040C94F5090C94000083E0809377
S11303B07C0010927B001092BF011092C001109239
S11303C0C1011092C2011092BB011092BC011092A3
S11303D0BD011092BE011092BA011092B6011092A2
S11303E0B7011092B8011092B9011092B2011092A3
S11303F0B3011092B4011092B5018FEE80937A008C
S1130400089510927A0008951F920F920FB60F92DA
S113041011242F933F938F939F93AF93BF93809116
S1130420BF0180FF02C05F9A01C05F9820917800ED
S1130430309179008091BB019091BC01A091BD01E4
S1130440B091BE01820F931FA11DB11D8093BB010A
S11304509093BC01A093BD01B093BE018091BF01F4
S11304609091C001A091C101B091C2010196A11D5A
S1130470B11D8093BF019093C001A093C101B093BB
S1130480C2018F3F9105A105B10541F138F1809179
S1130490BB019091BC01A091BD01B091BE01892F17
S11304A09A2FAB2FBB278093AE019093AF01A093FB
S11304B0B001B093B1011092BF011092C00110922B
S11304C0C1011092C2011092BB011092BC011092A2
S11304D0BD011092BE0181E08093BA01BF91AF913A
S11304E09F918F913F912F910F900FBE0F901F906E
S11304F018950F931F932091BA01211102C080E037
S113050051C00091B2011091B3012091B401309116
S1130510B5014091AE015091AF016091B00170916D
S1130520B101400F511F621F731F4093B2015093DA
S1130530B3016093B4017093B5010091B6011091B9
S1130540B7012091B8013091B9010F5F1F4F2F4FB0
S11305503F4F0F3F11052105310509F048F4009381
S1130560B6011093B7012093B8013093B901C7CFF6
S11305701092B6011092B7011092B8011092B9010D
S11305801092B2011092B3011092B4011092B5010D
S1130590452F562F672F7727FC01408351836283B1
S11305A0738381E01F910F910895DC0124EF31EDF5
S11305B047E050E00E94F1060895109284021092E0
S11305C0830210928202109281021092C50087E683
S11305D08093C40086E08093C20088E98093C100C0
S11305E008951F920F920FB60F9211248F939F9329
S11305F0EF93FF939091820280918102981306C039
S11306008091C1008F7D8093C10011C0E09181026F
S1130610F0E0E353FE4F80818093C6008091810215
S11306208F5F80938102843B10F010928102FF91CE
S1130630EF919F918F910F900FBE0F901F9018957F
S1130640F8942091820230E0809181027894482FBE
S113065050E02417350710F42C543F4F8D54821B5F
S113066008951F93CF93DF93D82F192FC62F0E947D
S113067020038C17E0F3809182022D2FED2FF12FB0
S11306809E2F921B9C1758F49191A82FB0E0A3536E
S1130690BE4F9C938F5F843B98F380E0F1CFF89436
S11306A0809382028091C10085FD16C0E091810291
S11306B0F0E0E353FE4F80818093C6008091810275
S11306C08F5F80938102843B10F0109281028091AD
S11306D0C10080628093C100789484E0DF91CF915F
S11306E01F910895CF93DF93FC0101900020E9F757
S11306F03197EF01C81BD90B6C2F0E943103843052
S113070011F48C2F01C080E0DF91CF910895CF9335
S1130710C82F1092C1000E94DD02EC2FF0E0EE0F12
S1130720FF1FE050FF4F81818F9380818F9388E07A
S113073091E09F938F938CE892E09F938F930E9414
S11307400B070F900F900F900F900F900F908CE865
S113075092E0CF910C9472031F920F920FB60F92F6
S113076011242F933F934F935F936F937F938F93B2
S11307709F93AF93BF93EF93FF939091C0008091A9
S1130780C600E0918402F0E0ED53FE4F8083809137
S113079084028F5F809384028A3010F01092840266
S11307A0892F8C7159F094FF02C080E005C093FF3B
S11307B002C081E001C082E00E948703FF91EF91B3
S11307C0BF91AF919F918F917F916F915F914F9165
S11307D03F912F910F900FBE0F901F90189530915D
S11307E08402209183023217A9F0F894E0918302E5
S11307F0F0E0ED53FE4F2081FC01208380918302C1
S11308008F5F809383028A3010F010928302789471
S113081084E0089580E00895CF93DF931F92CDB7CD
S1130820DEB78FEF9FEF2091BC002983298127FD3C
S113083002C00197C1F70F90DF91CF9108958CE02A
S11308408093B800ECEBF0E08081846080830895AD
S1130850FF920F931F93CF93DF93C82F162FF42E7D
S1130860052F84EA8093BC000E940C04CC0FC09333
S1130870BB0084E88093BC000E940C04CF2DD02FD1
S1130880CE01810F911D8C0184E8F82EC017D10789
S113089041F089918093BB00F092BC000E940C044B
S11308A0F5CF8091B90094E99093BC00DF91CF918A
S11308B01F910F91FF9008951092B800ECEBF0E0B7
S11308C080818B7F80830895579A5F985F9A5F98A1
S11308D05F9A5F985F9A5F988EE080937E0087E0CE
S11308E084B985B1887F85B984E08AB95A9A089514
S11308F00E9464040E94DD020E9482060E94BB06DC
S1130900FDCFCF93DF9300D000D01F92CDB7DEB7D9
S11309100E941F0481E0809385021F928F9386E8D2
S113092091E09F938F938CE892E09F938F930E9422
S11309300B078CE892E00E94720381E18983809125
S113094085028A83AE014F5F5F4F62E080E10E94BF
S11309502804109287021092860282E296E0909315
S113096089028093880285E395E090938B028093BB
S11309708A020F900F900F900F900F900F900F908E
S11309800F900F900F900F90DF91CF9108951F93C8
S1130990CF93DF931F92CDB7DEB7182FCE01019608
S11309A00E94EF03882391F0112379F089818D301F
S11309B039F482E693E00E94E1060E94720305C0C6
S11309C061E0CE0101960E94310389810F90DF918D
S11309D0CF911F910895CF93DF9300D000D0CDB76E
S11309E0DEB7CE0101960E9479028823D1F0898175
S11309F09A810E94D5029F938F9387E991E09F93F8
S1130A008F938CE892E09F938F930E940B078CE85E
S1130A1092E00E9472030F900F900F900F900F902E
S1130A200F9081E00E94C7048823C1F0883511F03B
S1130A308837A1F40E9401028AEB91E09093870227
S1130A408093860280EB95E09093890280938802DC
S1130A5085E395E090938B0280938A020F900F9028
S1130A600F900F90DF91CF910895CF93DF938091F2
S1130A70860290918702009771F10E94D506EC01DD
S1130A80833B910510F0C2EBD0E00E94200390E07C
S1130A908C179D07D0F3BE01809186029091870246
S1130AA00E94C30620918602309187022C0F3D1FBD
S1130AB030938702209386026C2F0E943103E091C9
S1130AC08602F0918702E491E1110DC01092870231
S1130AD01092860208C080918802909189029093B6
S1130AE08B0280938A02DF91CF91089581E00E9466
S1130AF0C7048823A1F1843541F018F4843471F0DB
S1130B0016C0843659F0843791F481E092E09093D2
S1130B108702809386028DEE95E017C08AEB91E000
S1130B20909387028093860280EB95E00EC082EA60
S1130B3092E00E94E1060E94720386E492E09093A0
S1130B4087028093860286E795E0909389028093DA
S1130B50880285E395E090938B0280938A0208953E
S1130B6081E00E94C7048823B9F18835A1F018F404
S1130B70813431F019C0813619F0883761F014C01E
S1130B800E94D60188E690E09093870280938602C3
S1130B908BEE94E017C086E492E0909387028093F2
S1130BA0860286E795E00EC082EA92E00E94E106A2
S1130BB00E9472038AEB91E09093870280938602ED
S1130BC080EB95E0909389028093880285E395E019
S1130BD090938B0280938A02089581E00E94C70457
S1130BE0882379F1883591F018F4893431F017C0ED
S1130BF0893619F0883751F012C089E990E0909352
S1130C0087028093860281E894E011C086E492E032
S1130C10909387028093860286E795E008C08AEB6A
S1130C2091E0909387028093860280EB95E0909305
S1130C3089028093880285E395E090938B028093E8
S1130C408A020895CF93DF9300D000D01F92CDB7CE
S1130C50DEB780E00E94C704882309F44BC08D32BC
S1130C6001F130F48B3211F5809185028F5F1CC045
S1130C70883511F08837D1F40E945C0481E092E059
S1130C8090938702809386028DEE95E0909389027B
S1130C908093880285E395E090938B0280938A0287
S1130CA029C08091850281508093850280918502BC
S1130CB01F928F9386E891E09F938F938CE892E044
S1130CC09F938F930E940B078CE892E00E9472031B
S1130CD081E18983809185028A83AE014F5F5F4FF2
S1130CE062E080E10E9428040F900F900F900F9013
S1130CF00F900F900F900F900F900F900F90DF9127
S1130D00CF91089587E293E00E94E1060E94720366
S1130D108DEB92E00E94E1060E9472030E94EE06AF
S1130D200E94E1069F938F9387EA91E09F938F93AC
S1130D308CE892E09F938F930E940B078CE892E0DB
S1130D400E94720386E492E0909387028093860265
S1130D5086E795E0909389028093880285E395E085
S1130D6090938B0280938A020F900F900F900F90B4
S1130D700F900F900895E0918A02F0918B023097C2
S1130D8009F009940895AEEBB2E020E030E02617B4
S1130D90370741F0FC01E20FF31FE491ED932F5F5D
S1130DA03F4FF5CF8EEB92E008959C0180E090E0F8
S1130DB0F901E80FF91FE491EE2311F00196F8CF41
S1130DC00895CF93DF93EC010E94D506BC016F5FB9
S1130DD07F4FCE01DF91CF910C94C30685E693E05B
S1130DE008950E94FC06A59F900DB49F900DA49FAA
S1130DF0800D911D11240895A29FB001B39FC001DD
S1130E00A39F700D811D1124911DB29F700D811D32
S1130E101124911D0895AEE0B0E0E1E1F7E00C94F7
S1130E20CC090D891E8986E08C831A8309838FEF90
S1130E309FE79E838D83AE01475E5F4F6F89788DF8
S1130E40CE0101960E942D07EF81F885E00FF11F76
S1130E5010822E96E4E00C94E809ABE0B0E0E3E302
S1130E60F7E00C94BE096C017B018A01FC01178236
S1130E701682838181FFCCC1CE0101963C01F6012B
S1130E809381F70193FD859193FF81917F018823DD
S1130E9009F4BAC1853239F493FD859193FF8191A8
S1130EA07F01853229F4B60190E00E942409E7CF3E
S1130EB0912C212C312CFFE1F315D8F08B3279F0F1
S1130EC038F4803279F08332A1F4232D20611DC0DF
S1130ED08D3261F0803369F4232D216016C0832D97
S1130EE08260382EE32DE4603E2E2AC0F32DF86094
S1130EF01DC037FC2DC020ED280F2A3040F08E3263
S1130F00B9F436FC81C1232D2064322E19C036FE7B
S1130F1006C08AE0989E200D1124922E11C0EAE0AA
S1130F202E9E200D1124222EF32DF0623F2E08C098
S1130F308C3621F4832D8068382E02C0883641F423
S1130F40F70193FD859193FF81917F018111B3CFC7
S1130F50982F9F7D9554933028F40C5F1F4F9FE387
S1130F6099830DC0833631F0833771F0833509F0EE
S1130F7059C021C0F801808189830E5F1F4F8824E6
S1130F808394912C530113C02801F2E04F0E511C9D
S1130F90F801A080B18036FE03C0692D70E002C064
S1130FA06FEF7FEFC5010E9419094C018201F32DF7
S1130FB0FF773F2E16C0280122E0420E511CF80193
S1130FC0A080B18036FE03C0692D70E002C06FEFCF
S1130FD07FEFC5010E940E094C01F32DF0683F2EEE
S1130FE0820133FC1BC0822D90E088169906B0F470
S1130FF0B60180E290E00E9424092A94F4CFF5011E
S113100037FC859137FE81915F01B60190E00E9423
S1131010240921102A9421E0821A91088114910450
S113102071F7E8C0843611F0893641F5F80137FECE
S113103007C060817181828193810C5F1F4F08C05A
S113104060817181072E000C880B990B0E5F1F4F76
S1131050F32DFF763F2E97FF09C0909580957095EC
S113106061957F4F8F4F9F4FF0683F2E2AE030E00D
S1131070A3010E946009882E861845C0853731F483
S1131080232D2F7EB22E2AE030E025C0932D997FA8
S1131090B92E8F36C1F018F4883579F0B5C0803791
S11310A019F0883721F0B0C0E92FE061BE2EB4FEFC
S11310B00DC0FB2DF460BF2E09C034FE0AC0292FD9
S11310C02660B22E06C028E030E005C020E130E002
S11310D002C020E132E0F801B7FE07C060817181EF
S11310E0828193810C5F1F4F06C06081718180E013
S11310F090E00E5F1F4FA3010E946009882E86189E
S1131100FB2DFF773F2E36FE0DC0232D2E7FA22E02
S1131110891458F434FE0BC032FC09C0832D8E7E32
S1131120A82E05C0B82CA32C03C0B82C01C0B92C20
S1131130A4FE0FC0FE01E80DF11D8081803321F46F
S11311409A2D997EA92E09C0A2FE06C0B394B39429
S113115004C08A2D867809F0B394A3FC11C0A0FEC4
S113116006C0B21488F4280C922C9B180EC0B2143A
S113117060F4B60180E290E00E942409B394F7CFB2
S1131180B21418F42B1802C0982C212CA4FE10C001
S1131190B60180E390E00E942409A2FE17C0A1FCDE
S11311A003C088E790E002C088E590E0B6010CC077
S11311B08A2D867859F0A1FE02C08BE201C080E23C
S11311C0A7FC8DE2B60190E00E942409891438F44A
S11311D0B60180E390E00E9424099A94F7CF8A94A0
S11311E0F301E80DF11D8081B60190E00E9424090D
S11311F08110F5CF222009F442CEB60180E290E0BE
S11312000E9424092A94F6CFF6018681978102C0B0
S11312108FEF9FEF2B96E2E10C94DA09FC01059025
S1131220615070400110D8F7809590958E0F9F1FE4
S11312300895FC016150704001900110D8F7809529
S113124090958E0F9F1F08950F931F93CF93DF9355
S1131250FB01238121FD03C08FEF9FEF2CC022FFF0
S113126016C046815781248135814217530744F4BF
S1131270A081B1819D012F5F3F4F318320838C93E7
S1131280268137812F5F3F4F3783268314C08B011C
S1131290EC01FB010084F185E02D0995892BE1F631
S11312A0D80116968D919C911797019617969C9349
S11312B08E931697CE01DF91CF911F910F910895D0
S11312C0FA01AA27283051F1203181F1E8946F9373
S11312D06E7F6E5F7F4F8F4F9F4FAF4FB1E03ED019
S11312E0B4E03CD0670F781F891F9A1FA11D680FB7
S11312F0791F8A1F911DA11D6A0F711D811D911DEA
S1131300A11D20D009F468943F912AE0269F11245E
S11313103019305D3193DEF6CF010895462F4770C2
S1131320405D4193B3E00FD0C9F7F6CF462F4F701D
S1131330405D4A3318F0495D31FD4052419302D07B
S1131340A9F7EACFB4E0A695979587957795679521
S1131350BA95C9F700976105710508959B01AC0121
S11313600A2E06945795479537952795BA95C9F748
S1131370620F731F841F951FA01D08952F923F9223
S11313804F925F926F927F928F929F92AF92BF9291
S1131390CF92DF92EF92FF920F931F93CF93DF933D
S11313A0CDB7DEB7CA1BDB0B0FB6F894DEBF0FBE9A
S11313B0CDBF09942A88398848885F846E847D84E7
S11313C08C849B84AA84B984C884DF80EE80FD80E9
S11313D00C811B81AA81B981CE0FD11D0FB6F8945F
S11113E0DEBF0FBECDBFED010895F894FFCF20
S11313EE1E013501510167010A0A0D535953544523
S11313FE4D204552524F520A0D25730A0D000A0D07
S113140E53657269616C204672616D696E67204521
S113141E72726F72000A0D53657269616C204461B9
S113142E7461204F76657272756E204572726F729A
S113143E000A0D53657269616C205061726974798A
S113144E204572726F72000A0D53657269616C20C9
S113145E545820627566206F766572666C6F7720BD
S113146E4572726F7200446973706C6179696E674C
S113147E20253032780D00434837203D2025756DE8
S111148E56202020200D0025730A0A0D0000B0
S9030000FC
