:100000000C9447020C9464020C9464020C946402F5
:100010000C9464020C9464020C9464020C946402C8
:100020000C9464020C9464020C9464020C946402B8
:100030000C9464020C9464020C9464020C946402A8
:100040000C9464020C9464020C94ED030C942A0347
:100050000C9464020C948D020C9464020C9464025F
:100060000C9464020C9464020A0D45202D20546FF8
:1000700067676C652045585442415420737461741D
:1000800075730A0D49202D20546F67676C652049F0
:100090004E54424154207374617475730A0D50209C
:1000A0002D20546F67676C6520506F6C796675738F
:1000B00065204C6F61642073747461747573494E6C
:1000C00054424154207374617475730A0D0A0D50C3
:1000D00072657373205820746F20657869740A0AFA
:1000E0000D000A0A0A0A0D492F4F20436F6E7472E1
:1000F0006F6C204465627567204D656E750A0D3D15
:100100003D3D3D3D3D3D3D3D3D3D3D3D3D3D3D3D1F
:100110003D3D3D3D3D0A0A0D43757272656E74208A
:100120005374617475733A0A0D000A0A0A0A0D4184
:1001300044432044656275670A0D3D3D3D3D3D3DAC
:100140003D3D3D0A0A0D0A0D50726573732058201B
:10015000746F20657869740A0A0D0A0D202020202A
:1001600020416C6C204461746120696E206D696C63
:100170006C69766F6C74730A0D0A0D202045585413
:10018000202020494E542020202B35562020204F5F
:1001900055542020203356330A0D000A0A0A0A0D4E
:1001A00049324320546573740A0D3D3D3D3D3D3D4C
:1001B0003D3D0A0A0D456E737572652074686520B1
:1001C0004D6F64756C652069732050726F67726142
:1001D0006D6D65642061732061204D61737465727B
:1001E0000A0D436F6E6E6563742074686520546FEA
:1001F0007563682050616E656C204C434420746FB9
:1002000020746865204D6F64756C6520616E642094
:10021000737769746368204F4E0A0A0D546865202D
:10022000272B27206B65792077696C6C20696E63BA
:1002300072656D656E742074686520414D50204371
:100240004F44452076616C756520646973706C61FC
:1002500079656420627920310A0D54686520272D64
:1002600027206B65792077696C6C20646563726503
:100270006D656E742074686520414D5020434F4475
:10028000452076616C756520646973706C61796571
:100290006420627920310A0D5072657373202758EB
:1002A0002720746F2072657475726E20746F2054ED
:1002B000657374204D656E750A0A0D000A0A0A0AF4
:1002C0000D4445425547204D454E550A0D3D3D3D97
:1002D0003D3D3D3D3D3D3D3D3D3D0A0D41202D20F7
:1002E00041444320746573740A0D43202D20492F27
:1002F0004F20436F6E74726F6C20746573740A0DB7
:1003000058202D204578697420746F2053746172D1
:1003100074204D656E750A0D000A0A0A0A0D5445CF
:100320005354204D454E550A0D3D3D3D3D3D3D3D0F
:100330003D3D3D3D3D0A0D49202D2049324320746D
:100340006573740A0D58202D204578697420746FE8
:10035000205374617274204D656E750A0D000A0A8F
:100360000D5374617274204D454E550A0D3D3D3D4F
:100370003D3D3D3D3D3D3D3D3D0A0D54202D20423E
:100380006F6172642074657374730A0D44202D20AC
:100390004465627567204D656E750A0D3C454E5487
:1003A00045523E2D20546F20726566726573682039
:1003B00073637265656E0A0A0D0020436F6D6D618F
:1003C0006E64206E6F7420696D706C656D656E74FF
:1003D00065640A0D000A0A0D4545472042617474A0
:1003E000657279204D6F64756C65202D204932430C
:1003F000205465737420536F6674776172650A0DBB
:100400003D3D3D3D3D3D3D3D3D3D3D3D3D3D3D3D1C
:100410003D3D3D3D3D3D3D3D3D3D3D3D3D3D3D3D0C
:100420003D3D3D3D3D3D0A0D544A30303030303485
:10043000204669726D776172652049643A20000A2E
:100440000A0A0A0A0A0A0A0A0A0A0D286329204324
:100450006F7079726967687420546865204D6167B0
:100460007374696D20436F6D70616E79204C746494
:100470002E20323032350A0A0D004F4646004F4ECC
:10048000000A0D005665722050312E3032001124C2
:100490001FBECFEFD8E0DEBFCDBF11E0A0E0B1E0DE
:1004A000E8ECF6E102C005900D92AE3EB107D9F737
:1004B00023E0AEEEB1E001C01D92AC3CB207E1F723
:1004C0000E94B9040C94620B0C9400001092EE018F
:1004D000E091EE01F0E0E45EFE4F808180937C00CD
:1004E00010927B0080E090E029E0289FF001299F96
:1004F000F00D1124E151FE4F1082118212821382FD
:100500001582148217821682108601968530910515
:1005100061F78FEC80937A0008951F920F920FB6C7
:100520000F9211242F933F938F939F93AF93BF9379
:10053000EF93FF932091780030917900E091EE01E4
:100540008091EE018F5F8093EE01853010F0109264
:10055000EE01A091EE01B0E0A45EBE4F8C918093BD
:100560007C008FEC80937A0089E0E89FF0011124F1
:10057000E151FE4F80819181A281B381820F931F4F
:10058000A11DB11D80839183A283B383868197814E
:100590000196978386838F3F910599F090F017829B
:1005A000168280819181A281B381892F9A2FAB2FEE
:1005B000BB2795838483108211821282138281E08B
:1005C0008087FF91EF91BF91AF919F918F913F9164
:1005D0002F910F900FBE0F901F9018950F931F93A0
:1005E000CF93DF938C01C62FD0E089E0689FF001A4
:1005F0001124E151FE4F8085882399F0A481B581B3
:10060000CC0FDD1FCC0FDD1FC85FDE4F2881398185
:100610004A815B810E945708D8018D939C93108674
:1006200081E0DF91CF911F910F9108951092DD022B
:100630001092DC021092DB021092DA021092C500D6
:1006400087E68093C40086E08093C20088E98093A7
:10065000C10008951F920F920FB60F9211248F932D
:100660009F93EF93FF939091DB028091DA029813AE
:1006700006C08091C1008F7D8093C10011C0E091C0
:10068000DA02F0E0EA5DFD4F80818093C600809140
:10069000DA028F5F8093DA02843B10F01092DA0264
:1006A000FF91EF919F918F910F900FBE0F901F9030
:1006B0001895F8942091DB0230E08091DA0278946A
:1006C000482F50E02417350710F42C543F4F8D5419
:1006D000821B08951F93CF93DF93D82F192FC62F16
:1006E0000E9459038C17E0F38091DB022D2FED2F30
:1006F000F12F9E2F921B9C1758F49191A82FB0E0D8
:10070000AA5DBD4F9C938F5F843B98F380E0F1CF4F
:10071000F8948093DB028091C10085FD16C0E091C2
:10072000DA02F0E0EA5DFD4F80818093C60080919F
:10073000DA028F5F8093DA02843B10F01092DA02C3
:100740008091C10080628093C100789484E0DF9141
:10075000CF911F910895CF93DF93FC01019000206A
:10076000E9F73197EF01C81BD90B6C2F0E946A0380
:10077000843011F48C2F01C080E0DF91CF91089577
:10078000CF93C82F1092C1000E941603EC2FF0E007
:10079000EE0FFF1FE050FF4F81818F9380818F9379
:1007A00081E291E09F938F9385EE92E09F938F93E8
:1007B0000E9478080F900F900F900F900F900F905D
:1007C00085EE92E0CF910C94AB032091DB029091E7
:1007D000DA0281E0291380E008951F920F920FB68C
:1007E0000F9211242F933F934F935F936F937F93B7
:1007F0008F939F93AF93BF93EF93FF939091C0001C
:100800008091C600E091DD02F0E0E45EFD4F808360
:100810008091DD028F5F8093DD028A3010F01092AC
:10082000DD02892F8C7159F094FF02C080E005C071
:1008300093FF02C081E001C082E00E94C003FF91EB
:10084000EF91BF91AF919F918F917F916F915F9148
:100850004F913F912F910F900FBE0F901F901895C1
:100860003091DD022091DC023217A9F0F894E0917A
:10087000DC02F0E0E45EFD4F2081FC0120838091EA
:10088000DC028F5F8093DC028A3010F01092DC0271
:10089000789484E0089580E00895CF93DF931F92C9
:1008A000CDB7DEB78FEF9FEF2091BC002983298160
:1008B00027FD02C00197C1F70F90DF91CF910895F6
:1008C0008CE08093B800ECEBF0E080818460808362
:1008D0000895FF920F931F93CF93DF93C82F162F86
:1008E000F42E052F84EA8093BC000E944D04CC0FA7
:1008F000C093BB0084E88093BC000E944D04CF2DC0
:10090000D02FCE01810F911D8C0184E8F82EC017E5
:10091000D10741F089918093BB00F092BC000E9406
:100920004D04F5CF8091B90094E99093BC00DF911C
:10093000CF911F910F91FF9008951092B800ECEBAA
:10094000F0E080818B7F80830895579A5F985F9A4B
:100950005F985F9A5F985F9A5F988EE080937E00C1
:1009600087E084B985B1887F85B984E08AB95A9ACD
:1009700008950E94A5040E9416030E9466020E9428
:10098000E8070E942108FDCF982F83B1913049F0EC
:1009900020F0923049F48170089582FB882780F915
:1009A00008958695817008950895813051F018F06A
:1009B000823069F00895613011F42A9A08952A98D6
:1009C0000895613011F4299A0895299808956130A5
:1009D00011F4289A08952898089580E00E94C4048C
:1009E000813019F48EE794E002C08AE794E00E9417
:1009F00047089F938F938FE991E09F938F9385EEA4
:100A000092E09F938F930E94780885EE92E00E9477
:100A1000AB0381E00E94C4040F900F900F900F90E1
:100A20000F900F90813019F48EE794E002C08AE7AE
:100A300094E00E9447089F938F938DEA91E09F93E3
:100A40008F9385EE92E09F938F930E94780885EEB6
:100A500092E00E94AB0382E00E94C4040F900F90CA
:100A60000F900F900F900F90813019F48EE794E063
:100A700002C08AE794E00E9447089F938F938BEB14
:100A800091E09F938F9385EE92E09F938F930E94C6
:100A9000780885EE92E00E94AB0388E690E09093A0
:100AA000E0028093DF0280ED95E09093E202809374
:100AB000E10280E996E09093E4028093E3020F90D4
:100AC0000F900F900F900F900F900895CF93DF939A
:100AD00000D000D01F92CDB7DEB70E94600481E045
:100AE0008093DE021F928F9380ED91E09F938F930E
:100AF00085EE92E09F938F930E94780885EE92E0B6
:100B00000E94AB0381E189838091DE028A83AE017A
:100B10004F5F5F4F62E080E10E9469041092E00243
:100B20001092DF0288E897E09093E2028093E1025E
:100B300080E996E09093E4028093E3020F900F9097
:100B40000F900F900F900F900F900F900F900F90AD
:100B50000F90DF91CF9108951F93CF93DF931F9252
:100B6000CDB7DEB7182FCE0101960E94300488233E
:100B700091F0112379F089818D3039F481E894E086
:100B80000E9447080E94AB0305C061E0CE010196B8
:100B90000E946A0389810F90DF91CF911F91089580
:100BA00081E00E94AC05882309F453C0883581F1A7
:100BB00038F48934C9F0803511F1853491F50BC0D2
:100BC000893691F018F4853631F02BC08037B9F0B2
:100BD0008837F1F026C080E00E94C40461E08130D3
:100BE00009F460E080E008C081E00E94C40461E094
:100BF000813009F460E081E00E94D50418C082E0F1
:100C00000E94C40461E0813009F460E082E0F4CF26
:100C10008CEB92E09093E0028093DF028BE097E010
:100C20000EC08AEB93E00E9447080E94AB0382EE5D
:100C300090E09093E0028093DF028DEE94E0909339
:100C4000E2028093E10280E996E09093E4028093CF
:100C5000E3020895CF92DF92EF92FF921F93CF931A
:100C6000DF9300D0CDB7DEB710E081EEE82E81E053
:100C7000F82E95EEC92E92E0D92E612FCE01019665
:100C80000E94EE02811104C01F5F1530B1F719C038
:100C90008A818F9389818F93FF92EF92DF92CF9217
:100CA0000E94780885EE92E00E94AB030F900F90AF
:100CB0000F900F900F900F900E94E5038823E1F3AF
:100CC000E3CF6BEE71E085EE92E00E94710885EE55
:100CD00092E00E94AB0381E00E94AC058823B1F052
:100CE000883511F0883791F48CEB92E09093E00214
:100CF0008093DF028BE097E09093E2028093E10221
:100D000080E996E09093E4028093E3020F900F90C5
:100D1000DF91CF911F91FF90EF90DF90CF900895DA
:100D2000CF93DF938091DF029091E002009771F101
:100D30000E943B08EC01833B910510F0C2EBD0E030
:100D40000E94590390E08C179D07D0F3BE0180915B
:100D5000DF029091E0020E9429082091DF02309189
:100D6000E0022C0F3D1F3093E0022093DF026C2F36
:100D70000E946A03E091DF02F091E002E491E11148
:100D80000DC01092E0021092DF0208C08091E102D3
:100D90009091E2029093E4028093E302DF91CF917D
:100DA000089581E00E94AC058823A1F1843541F0CB
:100DB00018F4843471F016C0843659F0843791F4F5
:100DC00089E193E09093E0028093DF0283E597E06E
:100DD00017C08CEB92E09093E0028093DF028BE0EF
:100DE00097E00EC08AEB93E00E9447080E94AB0395
:100DF0008EE593E09093E0028093DF0281ED96E030
:100E00009093E2028093E10280E996E09093E402FD
:100E10008093E302089581E00E94AC05882309F4E1
:100E200041C08835F1F028F4813449F0833481F0F1
:100E300021C0833669F08837A1F08136D9F48AE27F
:100E400091E09093E0028093DF028AE296E020C076
:100E500082EE90E09093E0028093DF028DEE94E0CA
:100E600017C08EE593E09093E0028093DF0281ED5E
:100E700096E00EC08AEB93E00E9447080E94AB0305
:100E80008CEB92E09093E0028093DF028BE097E09E
:100E90009093E2028093E10280E996E09093E4026D
:100EA0008093E302089581E00E94AC05882379F1E4
:100EB000883591F018F4893431F017C0893619F06B
:100EC000883751F012C08BE991E09093E002809353
:100ED000DF0286E695E011C08EE593E09093E00294
:100EE0008093DF0281ED96E008C08CEB92E0909356
:100EF000E0028093DF028BE097E09093E202809320
:100F0000E10280E996E09093E4028093E302089581
:100F1000CF93DF9300D000D01F92CDB7DEB780E033
:100F20000E94AC05882309F44BC08D3201F130F4E6
:100F30008B3211F58091DE028F5F1CC0883511F075
:100F40008837D1F40E949D0489E193E09093E002F8
:100F50008093DF0283E597E09093E2028093E102C1
:100F600080E996E09093E4028093E30229C08091A7
:100F7000DE0281508093DE028091DE021F928F9309
:100F800080ED91E09F938F9385EE92E09F938F93F6
:100F90000E94780885EE92E00E94AB0381E189838C
:100FA0008091DE028A83AE014F5F5F4F62E080E195
:100FB0000E9469040F900F900F900F900F900F9068
:100FC0000F900F900F900F900F90DF91CF91089599
:100FD0008FE394E00E9447080E94AB0385ED93E005
:100FE0000E9447080E94AB030E9454080E944708D1
:100FF0009F938F9387EE91E09F938F9385EE92E07E
:101000009F938F930E94780885EE92E00E94AB0335
:101010008EE593E09093E0028093DF0281ED96E00D
:101020009093E2028093E10280E996E09093E402DB
:101030008093E3020F900F900F900F900F900F90FE
:101040000895E091E302F091E402309709F00994E9
:101050000895A7E1B3E020E030E02617370741F01C
:10106000FC01E20FF31FE491ED932F5F3F4FF5CFAB
:1010700087E193E008959C0180E090E0F901E80F9A
:10108000F91FE491EE2311F00196F8CF0895CF9364
:10109000DF93EC010E943B08BC016F5F7F4FCE01E4
:1010A000DF91CF910C94290884E894E008950E9480
:1010B0006208A59F900DB49F900DA49F800D911D77
:1010C00011240895A29FB001B39FC001A39F700D8A
:1010D000811D1124911DB29F700D811D1124911D40
:1010E0000895FB01DC0101900D920020E1F70895C5
:1010F000AEE0B0E0EEE7F8E00C94390B0D891E8904
:1011000086E08C831A8309838FEF9FE79E838D830C
:10111000AE01475E5F4F6F89788DCE0101960E94C8
:101120009A08EF81F885E00FF11F10822E96E4E017
:101130000C94550BABE0B0E0E0EAF8E00C942B0B1C
:101140006C017B018A01FC0117821682838181FF79
:10115000CCC1CE0101963C01F6019381F70193FDCC
:10116000859193FF81917F01882309F4BAC185326B
:1011700039F493FD859193FF81917F01853229F4A4
:10118000B60190E00E94910AE7CF912C212C312CDE
:10119000FFE1F315D8F08B3279F038F4803279F032
:1011A0008332A1F4232D20611DC08D3261F0803384
:1011B00069F4232D216016C0832D8260382EE32D23
:1011C000E4603E2E2AC0F32DF8601DC037FC2DC010
:1011D00020ED280F2A3040F08E32B9F436FC81C160
:1011E000232D2064322E19C036FE06C08AE0989E58
:1011F000200D1124922E11C0EAE02E9E200D112404
:10120000222EF32DF0623F2E08C08C3621F4832D60
:101210008068382E02C0883641F4F70193FD85912D
:1012200093FF81917F018111B3CF982F9F7D9554BA
:10123000933028F40C5F1F4F9FE399830DC08336D2
:1012400031F0833771F0833509F059C021C0F801BE
:10125000808189830E5F1F4F88248394912C5301D2
:1012600013C02801F2E04F0E511CF801A080B1809C
:1012700036FE03C0692D70E002C06FEF7FEFC5013D
:101280000E94860A4C018201F32DFF773F2E16C083
:10129000280122E0420E511CF801A080B18036FEE8
:1012A00003C0692D70E002C06FEF7FEFC5010E949F
:1012B0007B0A4C01F32DF0683F2E820133FC1BC0EA
:1012C000822D90E088169906B0F4B60180E290E095
:1012D0000E94910A2A94F4CFF50137FC859137FEDC
:1012E00081915F01B60190E00E94910A21102A9439
:1012F00021E0821A91088114910471F7E8C08436C4
:1013000011F0893641F5F80137FE07C0608171811F
:10131000828193810C5F1F4F08C060817181072E0D
:10132000000C880B990B0E5F1F4FF32DFF763F2E9D
:1013300097FF09C090958095709561957F4F8F4F6D
:101340009F4FF0683F2E2AE030E0A3010E94CD0AB3
:10135000882E861845C0853731F4232D2F7EB22E76
:101360002AE030E025C0932D997FB92E8F36C1F049
:1013700018F4883579F0B5C0803719F0883721F036
:10138000B0C0E92FE061BE2EB4FE0DC0FB2DF460AD
:10139000BF2E09C034FE0AC0292F2660B22E06C017
:1013A00028E030E005C020E130E002C020E132E07A
:1013B000F801B7FE07C060817181828193810C5F63
:1013C0001F4F06C06081718180E090E00E5F1F4F6B
:1013D000A3010E94CD0A882E8618FB2DFF773F2E91
:1013E00036FE0DC0232D2E7FA22E891458F434FE14
:1013F0000BC032FC09C0832D8E7EA82E05C0B82CF0
:10140000A32C03C0B82C01C0B92CA4FE0FC0FE0150
:10141000E80DF11D8081803321F49A2D997EA92E4B
:1014200009C0A2FE06C0B394B39404C08A2D867886
:1014300009F0B394A3FC11C0A0FE06C0B21488F456
:10144000280C922C9B180EC0B21460F4B60180E2F6
:1014500090E00E94910AB394F7CFB21418F42B18BD
:1014600002C0982C212CA4FE10C0B60180E390E0AD
:101470000E94910AA2FE17C0A1FC03C088E790E079
:1014800002C088E590E0B6010CC08A2D867859F03C
:10149000A1FE02C08BE201C080E2A7FC8DE2B60192
:1014A00090E00E94910A891438F4B60180E390E03C
:1014B0000E94910A9A94F7CF8A94F301E80DF11DE6
:1014C0008081B60190E00E94910A8110F5CF222020
:1014D00009F442CEB60180E290E00E94910A2A947B
:1014E000F6CFF6018681978102C08FEF9FEF2B9692
:1014F000E2E10C94470BFC01059061507040011033
:10150000D8F7809590958E0F9F1F0895FC0161502C
:10151000704001900110D8F7809590958E0F9F1F15
:1015200008950F931F93CF93DF93FB01238121FD38
:1015300003C08FEF9FEF2CC022FF16C0468157815A
:10154000248135814217530744F4A081B1819D0164
:101550002F5F3F4F318320838C93268137812F5F0C
:101560003F4F3783268314C08B01EC01FB010084BD
:10157000F185E02D0995892BE1F6D80116968D911C
:101580009C911797019617969C938E931697CE0170
:10159000DF91CF911F910F910895FA01AA2728306A
:1015A00051F1203181F1E8946F936E7F6E5F7F4F30
:1015B0008F4F9F4FAF4FB1E03ED0B4E03CD0670FAC
:1015C000781F891F9A1FA11D680F791F8A1F911DFF
:1015D000A11D6A0F711D811D911DA11D20D009F44F
:1015E00068943F912AE0269F11243019305D319391
:1015F000DEF6CF010895462F4770405D4193B3E07A
:101600000FD0C9F7F6CF462F4F70405D4A3318F020
:10161000495D31FD4052419302D0A9F7EACFB4E0D1
:10162000A6959795879577956795BA95C9F7009789
:101630006105710508959B01AC010A2E069457952A
:10164000479537952795BA95C9F7620F731F841F81
:10165000951FA01D08952F923F924F925F926F9217
:101660007F928F929F92AF92BF92CF92DF92EF9232
:10167000FF920F931F93CF93DF93CDB7DEB7CA1BB3
:10168000DB0B0FB6F894DEBF0FBECDBF09942A88DE
:10169000398848885F846E847D848C849B84AA8486
:1016A000B984C884DF80EE80FD800C811B81AA8113
:1016B000B981CE0FD11D0FB6F894DEBF0FBECDBFDE
:0816C000ED010895F894FFCF3D
:1016C80037014E016A018001E8A30F00E8A30F006B
:1016D800F4D10700E8A30F00FAE8030001020306AB
:1016E800070A0A0D53595354454D204552524F523B
:1016F8000A0D25730A0D000A0D53657269616C2085
:101708004672616D696E67204572726F72000A0DCC
:1017180053657269616C2044617461204F7665720B
:1017280072756E204572726F72000A0D5365726988
:10173800616C20506172697479204572726F720011
:101748000A0D53657269616C2054582062756620D1
:101758006F766572666C6F77204572726F7200459E
:101768005854424154203D2025730A0D00494E54D7
:10177800424154203D2025730A0D00504F4C5946D4
:10178800555345204C4F4144203D2025730A0D00F8
:10179800446973706C6179696E6720253032780D01
:0E17A8000020253035750025730A0A0D00005B
:00000001FF
